{
	"data": {
		"bytecode": {
			"linkReferences": {},
			"object": "60806040526201518042601191906064565b5f556127106001556127106002553480156029575f80fd5b50608d565b5f819050919050565b7f4e487b71000000000000000000000000000000000000000000000000000000005f52601260045260245ffd5b5f606c82602e565b9150607583602e565b92508260825760816037565b5b828204905092915050565b612fbc8061009a5f395ff3fe60806040526004361061009b575f3560e01c80637e01395b116100635780637e01395b14610161578063886a94161461018b57806391d33dea146101b5578063a668b28f146101df578063b2f897f714610209578063e3ad2cf6146102455761009b565b806314df9e431461009f578063595d0b77146100c7578063598c4648146100f1578063624679671461011b5780636d2968de14610145575b5f80fd5b3480156100aa575f80fd5b506100c560048036038101906100c09190611eac565b61026f565b005b3480156100d2575f80fd5b506100db610744565b6040516100e89190611eef565b60405180910390f35b3480156100fc575f80fd5b506101056109ef565b6040516101129190611eef565b60405180910390f35b348015610126575f80fd5b5061012f610b0b565b60405161013c9190611fbf565b60405180910390f35b61015f600480360381019061015a9190612145565b610ced565b005b34801561016c575f80fd5b50610175611211565b604051610182919061230c565b60405180910390f35b348015610196575f80fd5b5061019f6114b6565b6040516101ac919061230c565b60405180910390f35b3480156101c0575f80fd5b506101c961175b565b6040516101d691906123ab565b60405180910390f35b3480156101ea575f80fd5b506101f36118a8565b604051610200919061230c565b60405180910390f35b348015610214575f80fd5b5061022f600480360381019061022a9190612489565b611b4d565b60405161023c91906124fd565b60405180910390f35b348015610250575f80fd5b50610259611bcb565b60405161026691906125be565b60405180910390f35b5f805f62015180426102819190612638565b90505f60405180602001604052805f81525090505f600190505b60168110156104a75760035f8281526020019081526020015f205f9054906101000a900473ffffffffffffffffffffffffffffffffffffffff1673ffffffffffffffffffffffffffffffffffffffff163373ffffffffffffffffffffffffffffffffffffffff1614801561032057508260055f8381526020019081526020015f205410155b801561033f5750600360045f8381526020019081526020015f205f0154145b156103e6576001945060045f8281526020019081526020015f20600101805461036790612695565b80601f016020809104026020016040519081016040528092919081815260200182805461039390612695565b80156103de5780601f106103b5576101008083540402835291602001916103de565b820191905f5260205f20905b8154815290600101906020018083116103c157829003601f168201915b505050505091505b60035f8281526020019081526020015f205f9054906101000a900473ffffffffffffffffffffffffffffffffffffffff1673ffffffffffffffffffffffffffffffffffffffff168673ffffffffffffffffffffffffffffffffffffffff1614801561046257508260055f8381526020019081526020015f205410155b80156104825750600260045f8381526020019081526020015f205f015410155b1561048c57600193505b8480156104965750835b6104a757808060010191505061029b565b50836104e8576040517f08c379a00000000000000000000000000000000000000000000000000000000081526004016104df90612745565b60405180910390fd5b82610528576040517f08c379a000000000000000000000000000000000000000000000000000000000815260040161051f906127d3565b60405180910390fd5b5f60065f8773ffffffffffffffffffffffffffffffffffffffff1673ffffffffffffffffffffffffffffffffffffffff1681526020019081526020015f208054806020026020016040519081016040528092919081815260200182805480156105e357602002820191905f5260205f20905b815f9054906101000a900473ffffffffffffffffffffffffffffffffffffffff1673ffffffffffffffffffffffffffffffffffffffff168152602001906001019080831161059a575b505050505090506105f43382611b4d565b15610634576040517f08c379a000000000000000000000000000000000000000000000000000000000815260040161062b90612861565b60405180910390fd5b60065f8773ffffffffffffffffffffffffffffffffffffffff1673ffffffffffffffffffffffffffffffffffffffff1681526020019081526020015f2033908060018154018082558091505060019003905f5260205f20015f9091909190916101000a81548173ffffffffffffffffffffffffffffffffffffffff021916908373ffffffffffffffffffffffffffffffffffffffff16021790555060075f8773ffffffffffffffffffffffffffffffffffffffff1673ffffffffffffffffffffffffffffffffffffffff1681526020019081526020015f2082908060018154018082558091505060019003905f5260205f20015f90919091909150908161073b9190612a1c565b50505050505050565b5f8062015180426107559190612638565b90505f80600190505b60168110156109e6575f60055f8381526020019081526020015f205490508084111580156107e7575060035f8381526020019081526020015f205f9054906101000a900473ffffffffffffffffffffffffffffffffffffffff1673ffffffffffffffffffffffffffffffffffffffff163373ffffffffffffffffffffffffffffffffffffffff16145b156109d8575f60045f8481526020019081526020015f206040518060800160405290815f820154815260200160018201805461082290612695565b80601f016020809104026020016040519081016040528092919081815260200182805461084e90612695565b80156108995780601f1061087057610100808354040283529160200191610899565b820191905f5260205f20905b81548152906001019060200180831161087c57829003601f168201915b505050505081526020016002820180546108b290612695565b80601f01602080910402602001604051908101604052809291908181526020018280546108de90612695565b80156109295780601f1061090057610100808354040283529160200191610929565b820191905f5260205f20905b81548152906001019060200180831161090c57829003601f168201915b5050505050815260200160038201805461094290612695565b80601f016020809104026020016040519081016040528092919081815260200182805461096e90612695565b80156109b95780601f10610990576101008083540402835291602001916109b9565b820191905f5260205f20905b81548152906001019060200180831161099c57829003601f168201915b5050505050815250509050805f01518410156109d657805f015193505b505b50808060010191505061075e565b50809250505090565b5f806201518042610a009190612638565b90505f805f6402540be40060035f5486610bb8610a1d9190612aeb565b610a279190612b1e565b610a319190612638565b610a3b9190612b51565b90505f600190505b6016811015610a81578460055f8381526020019081526020015f205410610a7457600184610a719190612aeb565b93505b8080600101915050610a43565b50600f831115610a9357809150610b01565b600783118015610aa45750600f8311155b15610ab3576001549150610b00565b600254600a610ac29190612b51565b6009600154610ad19190612b51565b1115610af957600a6009600154610ae89190612b51565b610af29190612638565b9150610aff565b60025491505b5b5b8194505050505090565b60605f6201518042610b1d9190612638565b90505f80600190505b6016811015610be65760035f8281526020019081526020015f205f9054906101000a900473ffffffffffffffffffffffffffffffffffffffff1673ffffffffffffffffffffffffffffffffffffffff163373ffffffffffffffffffffffffffffffffffffffff16148015610bab57508260055f8381526020019081526020015f205410155b8015610bcb5750600260045f8381526020019081526020015f205f015410155b15610bd95760019150610be6565b8080600101915050610b26565b5080610c27576040517f08c379a0000000000000000000000000000000000000000000000000000000008152600401610c1e90612c02565b60405180910390fd5b60065f3373ffffffffffffffffffffffffffffffffffffffff1673ffffffffffffffffffffffffffffffffffffffff1681526020019081526020015f20805480602002602001604051908101604052809291908181526020018280548015610ce157602002820191905f5260205f20905b815f9054906101000a900473ffffffffffffffffffffffffffffffffffffffff1673ffffffffffffffffffffffffffffffffffffffff1681526020019060010190808311610c98575b50505050509250505090565b5f60018510158015610cff5750600885105b15610d0d5760039050610d32565b60088510158015610d1e5750600f85105b15610d2c5760029050610d31565b600190505b5b5f6201518042610d429190612638565b90505f805f6402540be40060035f5486610bb8610d5f9190612aeb565b610d699190612b1e565b610d739190612638565b86610d7e9190612b51565b610d889190612b51565b90505f600190505b6016811015610dce578460055f8381526020019081526020015f205410610dc157600184610dbe9190612aeb565b93505b8080600101915050610d90565b50600f831115610de057809150610e4e565b600783118015610df15750600f8311155b15610e00576001549150610e4d565b600254600a610e0f9190612b51565b6009600154610e1e9190612b51565b1115610e4657600a6009600154610e359190612b51565b610e3f9190612638565b9150610e4c565b60025491505b5b5b5f8911610e90576040517f08c379a0000000000000000000000000000000000000000000000000000000008152600401610e8790612c6a565b60405180910390fd5b6015891115610ed4576040517f08c379a0000000000000000000000000000000000000000000000000000000008152600401610ecb90612cd2565b60405180910390fd5b81341015610f17576040517f08c379a0000000000000000000000000000000000000000000000000000000008152600401610f0e90612d3a565b60405180910390fd5b5f60055f8b81526020019081526020015f205490505f811461110d575f60035f8c81526020019081526020015f205f9054906101000a900473ffffffffffffffffffffffffffffffffffffffff1690503373ffffffffffffffffffffffffffffffffffffffff168173ffffffffffffffffffffffffffffffffffffffff1603610fd5576040517f08c379a0000000000000000000000000000000000000000000000000000000008152600401610fcc90612da2565b60405180910390fd5b858210611017576040517f08c379a000000000000000000000000000000000000000000000000000000000815260040161100e90612e0a565b60405180910390fd5b601e866110249190612aeb565b60055f8d81526020019081526020015f208190555060405180608001604052808881526020018b81526020018a81526020018981525060045f8d81526020019081526020015f205f820151815f015560208201518160010190816110889190612a1c565b50604082015181600201908161109e9190612e8a565b5060608201518160030190816110b49190612e8a565b509050503360035f8d81526020019081526020015f205f6101000a81548173ffffffffffffffffffffffffffffffffffffffff021916908373ffffffffffffffffffffffffffffffffffffffff160217905550506111fe565b601e8561111a9190612aeb565b60055f8c81526020019081526020015f208190555060405180608001604052808781526020018a81526020018981526020018881525060045f8c81526020019081526020015f205f820151815f0155602082015181600101908161117e9190612a1c565b5060408201518160020190816111949190612e8a565b5060608201518160030190816111aa9190612e8a565b509050503360035f8c81526020019081526020015f205f6101000a81548173ffffffffffffffffffffffffffffffffffffffff021916908373ffffffffffffffffffffffffffffffffffffffff1602179055505b8260018190555050505050505050505050565b611219611df6565b5f62015180426112299190612638565b9050611233611df6565b5f600190505b60168110156114ad575f60055f8381526020019081526020015f20549050808411611468575f60045f8481526020019081526020015f206040518060800160405290815f820154815260200160018201805461129490612695565b80601f01602080910402602001604051908101604052809291908181526020018280546112c090612695565b801561130b5780601f106112e25761010080835404028352916020019161130b565b820191905f5260205f20905b8154815290600101906020018083116112ee57829003601f168201915b5050505050815260200160028201805461132490612695565b80601f016020809104026020016040519081016040528092919081815260200182805461135090612695565b801561139b5780601f106113725761010080835404028352916020019161139b565b820191905f5260205f20905b81548152906001019060200180831161137e57829003601f168201915b505050505081526020016003820180546113b490612695565b80601f01602080910402602001604051908101604052809291908181526020018280546113e090612695565b801561142b5780601f106114025761010080835404028352916020019161142b565b820191905f5260205f20905b81548152906001019060200180831161140e57829003601f168201915b50505050508152505090508060400151846001856114499190612b1e565b6015811061145a57611459612f59565b5b60200201819052505061149f565b60405180602001604052805f815250836001846114859190612b1e565b6015811061149657611495612f59565b5b60200201819052505b508080600101915050611239565b50809250505090565b6114be611df6565b5f62015180426114ce9190612638565b90506114d8611df6565b5f600190505b6016811015611752575f60055f8381526020019081526020015f2054905080841161170d575f60045f8481526020019081526020015f206040518060800160405290815f820154815260200160018201805461153990612695565b80601f016020809104026020016040519081016040528092919081815260200182805461156590612695565b80156115b05780601f10611587576101008083540402835291602001916115b0565b820191905f5260205f20905b81548152906001019060200180831161159357829003601f168201915b505050505081526020016002820180546115c990612695565b80601f01602080910402602001604051908101604052809291908181526020018280546115f590612695565b80156116405780601f1061161757610100808354040283529160200191611640565b820191905f5260205f20905b81548152906001019060200180831161162357829003601f168201915b5050505050815260200160038201805461165990612695565b80601f016020809104026020016040519081016040528092919081815260200182805461168590612695565b80156116d05780601f106116a7576101008083540402835291602001916116d0565b820191905f5260205f20905b8154815290600101906020018083116116b357829003601f168201915b50505050508152505090508060200151846001856116ee9190612b1e565b601581106116ff576116fe612f59565b5b602002018190525050611744565b60405180602001604052805f8152508360018461172a9190612b1e565b6015811061173b5761173a612f59565b5b60200201819052505b5080806001019150506114de565b50809250505090565b611763611e1e565b5f62015180426117739190612638565b905061177d611e1e565b5f600190505b601681101561189f575f60055f8381526020019081526020015f20549050808411611839575f60035f8481526020019081526020015f205f9054906101000a900473ffffffffffffffffffffffffffffffffffffffff16905080846001856117eb9190612b1e565b601581106117fc576117fb612f59565b5b602002019073ffffffffffffffffffffffffffffffffffffffff16908173ffffffffffffffffffffffffffffffffffffffff168152505050611891565b5f836001846118489190612b1e565b6015811061185957611858612f59565b5b602002019073ffffffffffffffffffffffffffffffffffffffff16908173ffffffffffffffffffffffffffffffffffffffff16815250505b508080600101915050611783565b50809250505090565b6118b0611df6565b5f62015180426118c09190612638565b90506118ca611df6565b5f600190505b6016811015611b44575f60055f8381526020019081526020015f20549050808411611aff575f60045f8481526020019081526020015f206040518060800160405290815f820154815260200160018201805461192b90612695565b80601f016020809104026020016040519081016040528092919081815260200182805461195790612695565b80156119a25780601f10611979576101008083540402835291602001916119a2565b820191905f5260205f20905b81548152906001019060200180831161198557829003601f168201915b505050505081526020016002820180546119bb90612695565b80601f01602080910402602001604051908101604052809291908181526020018280546119e790612695565b8015611a325780601f10611a0957610100808354040283529160200191611a32565b820191905f5260205f20905b815481529060010190602001808311611a1557829003601f168201915b50505050508152602001600382018054611a4b90612695565b80601f0160208091040260200160405190810160405280929190818152602001828054611a7790612695565b8015611ac25780601f10611a9957610100808354040283529160200191611ac2565b820191905f5260205f20905b815481529060010190602001808311611aa557829003601f168201915b5050505050815250509050806060015184600185611ae09190612b1e565b60158110611af157611af0612f59565b5b602002018190525050611b36565b60405180602001604052805f81525083600184611b1c9190612b1e565b60158110611b2d57611b2c612f59565b5b60200201819052505b5080806001019150506118d0565b50809250505090565b5f805f90505b8251811015611bc0578373ffffffffffffffffffffffffffffffffffffffff16838281518110611b8657611b85612f59565b5b602002602001015173ffffffffffffffffffffffffffffffffffffffff1603611bb3576001915050611bc5565b8080600101915050611b53565b505f90505b92915050565b60605f6201518042611bdd9190612638565b90505f80600190505b6016811015611ca65760035f8281526020019081526020015f205f9054906101000a900473ffffffffffffffffffffffffffffffffffffffff1673ffffffffffffffffffffffffffffffffffffffff163373ffffffffffffffffffffffffffffffffffffffff16148015611c6b57508260055f8381526020019081526020015f205410155b8015611c8b5750600260045f8381526020019081526020015f205f015410155b15611c995760019150611ca6565b8080600101915050611be6565b5080611ce7576040517f08c379a0000000000000000000000000000000000000000000000000000000008152600401611cde90612c02565b60405180910390fd5b60075f3373ffffffffffffffffffffffffffffffffffffffff1673ffffffffffffffffffffffffffffffffffffffff1681526020019081526020015f20805480602002602001604051908101604052809291908181526020015f905b82821015611deb578382905f5260205f20018054611d6090612695565b80601f0160208091040260200160405190810160405280929190818152602001828054611d8c90612695565b8015611dd75780601f10611dae57610100808354040283529160200191611dd7565b820191905f5260205f20905b815481529060010190602001808311611dba57829003601f168201915b505050505081526020019060010190611d43565b505050509250505090565b604051806102a001604052806015905b6060815260200190600190039081611e065790505090565b604051806102a00160405280601590602082028036833780820191505090505090565b5f604051905090565b5f80fd5b5f80fd5b5f73ffffffffffffffffffffffffffffffffffffffff82169050919050565b5f611e7b82611e52565b9050919050565b611e8b81611e71565b8114611e95575f80fd5b50565b5f81359050611ea681611e82565b92915050565b5f60208284031215611ec157611ec0611e4a565b5b5f611ece84828501611e98565b91505092915050565b5f819050919050565b611ee981611ed7565b82525050565b5f602082019050611f025f830184611ee0565b92915050565b5f81519050919050565b5f82825260208201905092915050565b5f819050602082019050919050565b611f3a81611e71565b82525050565b5f611f4b8383611f31565b60208301905092915050565b5f602082019050919050565b5f611f6d82611f08565b611f778185611f12565b9350611f8283611f22565b805f5b83811015611fb2578151611f998882611f40565b9750611fa483611f57565b925050600181019050611f85565b5085935050505092915050565b5f6020820190508181035f830152611fd78184611f63565b905092915050565b611fe881611ed7565b8114611ff2575f80fd5b50565b5f8135905061200381611fdf565b92915050565b5f80fd5b5f80fd5b5f601f19601f8301169050919050565b7f4e487b71000000000000000000000000000000000000000000000000000000005f52604160045260245ffd5b61205782612011565b810181811067ffffffffffffffff8211171561207657612075612021565b5b80604052505050565b5f612088611e41565b9050612094828261204e565b919050565b5f67ffffffffffffffff8211156120b3576120b2612021565b5b6120bc82612011565b9050602081019050919050565b828183375f83830152505050565b5f6120e96120e484612099565b61207f565b9050828152602081018484840111156121055761210461200d565b5b6121108482856120c9565b509392505050565b5f82601f83011261212c5761212b612009565b5b813561213c8482602086016120d7565b91505092915050565b5f805f806080858703121561215d5761215c611e4a565b5b5f61216a87828801611ff5565b945050602085013567ffffffffffffffff81111561218b5761218a611e4e565b5b61219787828801612118565b935050604085013567ffffffffffffffff8111156121b8576121b7611e4e565b5b6121c487828801612118565b925050606085013567ffffffffffffffff8111156121e5576121e4611e4e565b5b6121f187828801612118565b91505092959194509250565b5f60159050919050565b5f81905092915050565b5f819050919050565b5f81519050919050565b5f82825260208201905092915050565b8281835e5f83830152505050565b5f61224c8261221a565b6122568185612224565b9350612266818560208601612234565b61226f81612011565b840191505092915050565b5f6122858383612242565b905092915050565b5f602082019050919050565b5f6122a3826121fd565b6122ad8185612207565b9350836020820285016122bf85612211565b805f5b858110156122fa57848403895281516122db858261227a565b94506122e68361228d565b925060208a019950506001810190506122c2565b50829750879550505050505092915050565b5f6020820190508181035f8301526123248184612299565b905092915050565b5f60159050919050565b5f81905092915050565b5f819050919050565b5f602082019050919050565b61235e8161232c565b6123688184612336565b925061237382612340565b805f5b838110156123a357815161238a8782611f40565b965061239583612349565b925050600181019050612376565b505050505050565b5f6102a0820190506123bf5f830184612355565b92915050565b5f67ffffffffffffffff8211156123df576123de612021565b5b602082029050602081019050919050565b5f80fd5b5f612406612401846123c5565b61207f565b90508083825260208201905060208402830185811115612429576124286123f0565b5b835b81811015612452578061243e8882611e98565b84526020840193505060208101905061242b565b5050509392505050565b5f82601f8301126124705761246f612009565b5b81356124808482602086016123f4565b91505092915050565b5f806040838503121561249f5761249e611e4a565b5b5f6124ac85828601611e98565b925050602083013567ffffffffffffffff8111156124cd576124cc611e4e565b5b6124d98582860161245c565b9150509250929050565b5f8115159050919050565b6124f7816124e3565b82525050565b5f6020820190506125105f8301846124ee565b92915050565b5f81519050919050565b5f82825260208201905092915050565b5f819050602082019050919050565b5f602082019050919050565b5f61255582612516565b61255f8185612520565b93508360208202850161257185612530565b805f5b858110156125ac578484038952815161258d858261227a565b94506125988361253f565b925060208a01995050600181019050612574565b50829750879550505050505092915050565b5f6020820190508181035f8301526125d6818461254b565b905092915050565b7f4e487b71000000000000000000000000000000000000000000000000000000005f52601260045260245ffd5b7f4e487b71000000000000000000000000000000000000000000000000000000005f52601160045260245ffd5b5f61264282611ed7565b915061264d83611ed7565b92508261265d5761265c6125de565b5b828204905092915050565b7f4e487b71000000000000000000000000000000000000000000000000000000005f52602260045260245ffd5b5f60028204905060018216806126ac57607f821691505b6020821081036126bf576126be612668565b5b50919050565b5f82825260208201905092915050565b7f6f6e6c79206f776e6572206f662061207469657220332b20736c6f742063616e5f8201527f2070696e67000000000000000000000000000000000000000000000000000000602082015250565b5f61272f6025836126c5565b915061273a826126d5565b604082019050919050565b5f6020820190508181035f83015261275c81612723565b9050919050565b7f6f6e6c79206f776e6572206f662061207469657220322b20736c6f742063616e5f8201527f2062652070696e67656400000000000000000000000000000000000000000000602082015250565b5f6127bd602a836126c5565b91506127c882612763565b604082019050919050565b5f6020820190508181035f8301526127ea816127b1565b9050919050565b7f796f75206861766520616c72656164792070696e6765642074686973206164645f8201527f7265737300000000000000000000000000000000000000000000000000000000602082015250565b5f61284b6024836126c5565b9150612856826127f1565b604082019050919050565b5f6020820190508181035f8301526128788161283f565b9050919050565b5f819050815f5260205f209050919050565b5f6020601f8301049050919050565b5f82821b905092915050565b5f600883026128db7fffffffffffffffffffffffffffffffffffffffffffffffffffffffffffffffff826128a0565b6128e586836128a0565b95508019841693508086168417925050509392505050565b5f819050919050565b5f61292061291b61291684611ed7565b6128fd565b611ed7565b9050919050565b5f819050919050565b61293983612906565b61294d61294582612927565b8484546128ac565b825550505050565b5f90565b612961612955565b61296c818484612930565b505050565b5b8181101561298f576129845f82612959565b600181019050612972565b5050565b601f8211156129d4576129a58161287f565b6129ae84612891565b810160208510156129bd578190505b6129d16129c985612891565b830182612971565b50505b505050565b5f82821c905092915050565b5f6129f45f19846008026129d9565b1980831691505092915050565b5f612a0c83836129e5565b9150826002028217905092915050565b612a258261221a565b67ffffffffffffffff811115612a3e57612a3d612021565b5b612a488254612695565b612a53828285612993565b5f60209050601f831160018114612a84575f8415612a72578287015190505b612a7c8582612a01565b865550612ae3565b601f198416612a928661287f565b5f5b82811015612ab957848901518255600182019150602085019450602081019050612a94565b86831015612ad65784890151612ad2601f8916826129e5565b8355505b6001600288020188555050505b505050505050565b5f612af582611ed7565b9150612b0083611ed7565b9250828201905080821115612b1857612b1761260b565b5b92915050565b5f612b2882611ed7565b9150612b3383611ed7565b9250828203905081811115612b4b57612b4a61260b565b5b92915050565b5f612b5b82611ed7565b9150612b6683611ed7565b9250828202612b7481611ed7565b91508282048414831517612b8b57612b8a61260b565b5b5092915050565b7f796f75206e6f206c6f6e67657220686176652061207469657220322b207375625f8201527f736372697074696f6e0000000000000000000000000000000000000000000000602082015250565b5f612bec6029836126c5565b9150612bf782612b92565b604082019050919050565b5f6020820190508181035f830152612c1981612be0565b9050919050565b7f74686520736c6f74732073746172742066726f6d2031000000000000000000005f82015250565b5f612c546016836126c5565b9150612c5f82612c20565b602082019050919050565b5f6020820190508181035f830152612c8181612c48565b9050919050565b7f77616c6c58612068617320323120736c6f7473206f6e6c7900000000000000005f82015250565b5f612cbc6018836126c5565b9150612cc782612c88565b602082019050919050565b5f6020820190508181035f830152612ce981612cb0565b9050919050565b7f6e6f7420656e6f756768206777656920617474616368656400000000000000005f82015250565b5f612d246018836126c5565b9150612d2f82612cf0565b602082019050919050565b5f6020820190508181035f830152612d5181612d18565b9050919050565b7f796f7520616c7265616479206f776e207468697320736c6f74000000000000005f82015250565b5f612d8c6019836126c5565b9150612d9782612d58565b602082019050919050565b5f6020820190508181035f830152612db981612d80565b9050919050565b7f7468697320736c6f74206973207374696c6c20626f6f6b6564210000000000005f82015250565b5f612df4601a836126c5565b9150612dff82612dc0565b602082019050919050565b5f6020820190508181035f830152612e2181612de8565b9050919050565b5f81519050919050565b5f819050815f5260205f209050919050565b601f821115612e8557612e5681612e32565b612e5f84612891565b81016020851015612e6e578190505b612e82612e7a85612891565b830182612971565b50505b505050565b612e9382612e28565b67ffffffffffffffff811115612eac57612eab612021565b5b612eb68254612695565b612ec1828285612e44565b5f60209050601f831160018114612ef2575f8415612ee0578287015190505b612eea8582612a01565b865550612f51565b601f198416612f0086612e32565b5f5b82811015612f2757848901518255600182019150602085019450602081019050612f02565b86831015612f445784890151612f40601f8916826129e5565b8355505b6001600288020188555050505b505050505050565b7f4e487b71000000000000000000000000000000000000000000000000000000005f52603260045260245ffdfea2646970667358221220b066f492deb57ef7e2c9e19175f711446995ac13f4bdecf55ac05a93bde1135c64736f6c634300081a0033",
			"opcodes": "PUSH1 0x80 PUSH1 0x40 MSTORE PUSH3 0x15180 TIMESTAMP PUSH1 0x11 SWAP2 SWAP1 PUSH1 0x64 JUMP JUMPDEST PUSH0 SSTORE PUSH2 0x2710 PUSH1 0x1 SSTORE PUSH2 0x2710 PUSH1 0x2 SSTORE CALLVALUE DUP1 ISZERO PUSH1 0x29 JUMPI PUSH0 DUP1 REVERT JUMPDEST POP PUSH1 0x8D JUMP JUMPDEST PUSH0 DUP2 SWAP1 POP SWAP2 SWAP1 POP JUMP JUMPDEST PUSH32 0x4E487B7100000000000000000000000000000000000000000000000000000000 PUSH0 MSTORE PUSH1 0x12 PUSH1 0x4 MSTORE PUSH1 0x24 PUSH0 REVERT JUMPDEST PUSH0 PUSH1 0x6C DUP3 PUSH1 0x2E JUMP JUMPDEST SWAP2 POP PUSH1 0x75 DUP4 PUSH1 0x2E JUMP JUMPDEST SWAP3 POP DUP3 PUSH1 0x82 JUMPI PUSH1 0x81 PUSH1 0x37 JUMP JUMPDEST JUMPDEST DUP3 DUP3 DIV SWAP1 POP SWAP3 SWAP2 POP POP JUMP JUMPDEST PUSH2 0x2FBC DUP1 PUSH2 0x9A PUSH0 CODECOPY PUSH0 RETURN INVALID PUSH1 0x80 PUSH1 0x40 MSTORE PUSH1 0x4 CALLDATASIZE LT PUSH2 0x9B JUMPI PUSH0 CALLDATALOAD PUSH1 0xE0 SHR DUP1 PUSH4 0x7E01395B GT PUSH2 0x63 JUMPI DUP1 PUSH4 0x7E01395B EQ PUSH2 0x161 JUMPI DUP1 PUSH4 0x886A9416 EQ PUSH2 0x18B JUMPI DUP1 PUSH4 0x91D33DEA EQ PUSH2 0x1B5 JUMPI DUP1 PUSH4 0xA668B28F EQ PUSH2 0x1DF JUMPI DUP1 PUSH4 0xB2F897F7 EQ PUSH2 0x209 JUMPI DUP1 PUSH4 0xE3AD2CF6 EQ PUSH2 0x245 JUMPI PUSH2 0x9B JUMP JUMPDEST DUP1 PUSH4 0x14DF9E43 EQ PUSH2 0x9F JUMPI DUP1 PUSH4 0x595D0B77 EQ PUSH2 0xC7 JUMPI DUP1 PUSH4 0x598C4648 EQ PUSH2 0xF1 JUMPI DUP1 PUSH4 0x62467967 EQ PUSH2 0x11B JUMPI DUP1 PUSH4 0x6D2968DE EQ PUSH2 0x145 JUMPI JUMPDEST PUSH0 DUP1 REVERT JUMPDEST CALLVALUE DUP1 ISZERO PUSH2 0xAA JUMPI PUSH0 DUP1 REVERT JUMPDEST POP PUSH2 0xC5 PUSH1 0x4 DUP1 CALLDATASIZE SUB DUP2 ADD SWAP1 PUSH2 0xC0 SWAP2 SWAP1 PUSH2 0x1EAC JUMP JUMPDEST PUSH2 0x26F JUMP JUMPDEST STOP JUMPDEST CALLVALUE DUP1 ISZERO PUSH2 0xD2 JUMPI PUSH0 DUP1 REVERT JUMPDEST POP PUSH2 0xDB PUSH2 0x744 JUMP JUMPDEST PUSH1 0x40 MLOAD PUSH2 0xE8 SWAP2 SWAP1 PUSH2 0x1EEF JUMP JUMPDEST PUSH1 0x40 MLOAD DUP1 SWAP2 SUB SWAP1 RETURN JUMPDEST CALLVALUE DUP1 ISZERO PUSH2 0xFC JUMPI PUSH0 DUP1 REVERT JUMPDEST POP PUSH2 0x105 PUSH2 0x9EF JUMP JUMPDEST PUSH1 0x40 MLOAD PUSH2 0x112 SWAP2 SWAP1 PUSH2 0x1EEF JUMP JUMPDEST PUSH1 0x40 MLOAD DUP1 SWAP2 SUB SWAP1 RETURN JUMPDEST CALLVALUE DUP1 ISZERO PUSH2 0x126 JUMPI PUSH0 DUP1 REVERT JUMPDEST POP PUSH2 0x12F PUSH2 0xB0B JUMP JUMPDEST PUSH1 0x40 MLOAD PUSH2 0x13C SWAP2 SWAP1 PUSH2 0x1FBF JUMP JUMPDEST PUSH1 0x40 MLOAD DUP1 SWAP2 SUB SWAP1 RETURN JUMPDEST PUSH2 0x15F PUSH1 0x4 DUP1 CALLDATASIZE SUB DUP2 ADD SWAP1 PUSH2 0x15A SWAP2 SWAP1 PUSH2 0x2145 JUMP JUMPDEST PUSH2 0xCED JUMP JUMPDEST STOP JUMPDEST CALLVALUE DUP1 ISZERO PUSH2 0x16C JUMPI PUSH0 DUP1 REVERT JUMPDEST POP PUSH2 0x175 PUSH2 0x1211 JUMP JUMPDEST PUSH1 0x40 MLOAD PUSH2 0x182 SWAP2 SWAP1 PUSH2 0x230C JUMP JUMPDEST PUSH1 0x40 MLOAD DUP1 SWAP2 SUB SWAP1 RETURN JUMPDEST CALLVALUE DUP1 ISZERO PUSH2 0x196 JUMPI PUSH0 DUP1 REVERT JUMPDEST POP PUSH2 0x19F PUSH2 0x14B6 JUMP JUMPDEST PUSH1 0x40 MLOAD PUSH2 0x1AC SWAP2 SWAP1 PUSH2 0x230C JUMP JUMPDEST PUSH1 0x40 MLOAD DUP1 SWAP2 SUB SWAP1 RETURN JUMPDEST CALLVALUE DUP1 ISZERO PUSH2 0x1C0 JUMPI PUSH0 DUP1 REVERT JUMPDEST POP PUSH2 0x1C9 PUSH2 0x175B JUMP JUMPDEST PUSH1 0x40 MLOAD PUSH2 0x1D6 SWAP2 SWAP1 PUSH2 0x23AB JUMP JUMPDEST PUSH1 0x40 MLOAD DUP1 SWAP2 SUB SWAP1 RETURN JUMPDEST CALLVALUE DUP1 ISZERO PUSH2 0x1EA JUMPI PUSH0 DUP1 REVERT JUMPDEST POP PUSH2 0x1F3 PUSH2 0x18A8 JUMP JUMPDEST PUSH1 0x40 MLOAD PUSH2 0x200 SWAP2 SWAP1 PUSH2 0x230C JUMP JUMPDEST PUSH1 0x40 MLOAD DUP1 SWAP2 SUB SWAP1 RETURN JUMPDEST CALLVALUE DUP1 ISZERO PUSH2 0x214 JUMPI PUSH0 DUP1 REVERT JUMPDEST POP PUSH2 0x22F PUSH1 0x4 DUP1 CALLDATASIZE SUB DUP2 ADD SWAP1 PUSH2 0x22A SWAP2 SWAP1 PUSH2 0x2489 JUMP JUMPDEST PUSH2 0x1B4D JUMP JUMPDEST PUSH1 0x40 MLOAD PUSH2 0x23C SWAP2 SWAP1 PUSH2 0x24FD JUMP JUMPDEST PUSH1 0x40 MLOAD DUP1 SWAP2 SUB SWAP1 RETURN JUMPDEST CALLVALUE DUP1 ISZERO PUSH2 0x250 JUMPI PUSH0 DUP1 REVERT JUMPDEST POP PUSH2 0x259 PUSH2 0x1BCB JUMP JUMPDEST PUSH1 0x40 MLOAD PUSH2 0x266 SWAP2 SWAP1 PUSH2 0x25BE JUMP JUMPDEST PUSH1 0x40 MLOAD DUP1 SWAP2 SUB SWAP1 RETURN JUMPDEST PUSH0 DUP1 PUSH0 PUSH3 0x15180 TIMESTAMP PUSH2 0x281 SWAP2 SWAP1 PUSH2 0x2638 JUMP JUMPDEST SWAP1 POP PUSH0 PUSH1 0x40 MLOAD DUP1 PUSH1 0x20 ADD PUSH1 0x40 MSTORE DUP1 PUSH0 DUP2 MSTORE POP SWAP1 POP PUSH0 PUSH1 0x1 SWAP1 POP JUMPDEST PUSH1 0x16 DUP2 LT ISZERO PUSH2 0x4A7 JUMPI PUSH1 0x3 PUSH0 DUP3 DUP2 MSTORE PUSH1 0x20 ADD SWAP1 DUP2 MSTORE PUSH1 0x20 ADD PUSH0 KECCAK256 PUSH0 SWAP1 SLOAD SWAP1 PUSH2 0x100 EXP SWAP1 DIV PUSH20 0xFFFFFFFFFFFFFFFFFFFFFFFFFFFFFFFFFFFFFFFF AND PUSH20 0xFFFFFFFFFFFFFFFFFFFFFFFFFFFFFFFFFFFFFFFF AND CALLER PUSH20 0xFFFFFFFFFFFFFFFFFFFFFFFFFFFFFFFFFFFFFFFF AND EQ DUP1 ISZERO PUSH2 0x320 JUMPI POP DUP3 PUSH1 0x5 PUSH0 DUP4 DUP2 MSTORE PUSH1 0x20 ADD SWAP1 DUP2 MSTORE PUSH1 0x20 ADD PUSH0 KECCAK256 SLOAD LT ISZERO JUMPDEST DUP1 ISZERO PUSH2 0x33F JUMPI POP PUSH1 0x3 PUSH1 0x4 PUSH0 DUP4 DUP2 MSTORE PUSH1 0x20 ADD SWAP1 DUP2 MSTORE PUSH1 0x20 ADD PUSH0 KECCAK256 PUSH0 ADD SLOAD EQ JUMPDEST ISZERO PUSH2 0x3E6 JUMPI PUSH1 0x1 SWAP5 POP PUSH1 0x4 PUSH0 DUP3 DUP2 MSTORE PUSH1 0x20 ADD SWAP1 DUP2 MSTORE PUSH1 0x20 ADD PUSH0 KECCAK256 PUSH1 0x1 ADD DUP1 SLOAD PUSH2 0x367 SWAP1 PUSH2 0x2695 JUMP JUMPDEST DUP1 PUSH1 0x1F ADD PUSH1 0x20 DUP1 SWAP2 DIV MUL PUSH1 0x20 ADD PUSH1 0x40 MLOAD SWAP1 DUP2 ADD PUSH1 0x40 MSTORE DUP1 SWAP3 SWAP2 SWAP1 DUP2 DUP2 MSTORE PUSH1 0x20 ADD DUP3 DUP1 SLOAD PUSH2 0x393 SWAP1 PUSH2 0x2695 JUMP JUMPDEST DUP1 ISZERO PUSH2 0x3DE JUMPI DUP1 PUSH1 0x1F LT PUSH2 0x3B5 JUMPI PUSH2 0x100 DUP1 DUP4 SLOAD DIV MUL DUP4 MSTORE SWAP2 PUSH1 0x20 ADD SWAP2 PUSH2 0x3DE JUMP JUMPDEST DUP3 ADD SWAP2 SWAP1 PUSH0 MSTORE PUSH1 0x20 PUSH0 KECCAK256 SWAP1 JUMPDEST DUP2 SLOAD DUP2 MSTORE SWAP1 PUSH1 0x1 ADD SWAP1 PUSH1 0x20 ADD DUP1 DUP4 GT PUSH2 0x3C1 JUMPI DUP3 SWAP1 SUB PUSH1 0x1F AND DUP3 ADD SWAP2 JUMPDEST POP POP POP POP POP SWAP2 POP JUMPDEST PUSH1 0x3 PUSH0 DUP3 DUP2 MSTORE PUSH1 0x20 ADD SWAP1 DUP2 MSTORE PUSH1 0x20 ADD PUSH0 KECCAK256 PUSH0 SWAP1 SLOAD SWAP1 PUSH2 0x100 EXP SWAP1 DIV PUSH20 0xFFFFFFFFFFFFFFFFFFFFFFFFFFFFFFFFFFFFFFFF AND PUSH20 0xFFFFFFFFFFFFFFFFFFFFFFFFFFFFFFFFFFFFFFFF AND DUP7 PUSH20 0xFFFFFFFFFFFFFFFFFFFFFFFFFFFFFFFFFFFFFFFF AND EQ DUP1 ISZERO PUSH2 0x462 JUMPI POP DUP3 PUSH1 0x5 PUSH0 DUP4 DUP2 MSTORE PUSH1 0x20 ADD SWAP1 DUP2 MSTORE PUSH1 0x20 ADD PUSH0 KECCAK256 SLOAD LT ISZERO JUMPDEST DUP1 ISZERO PUSH2 0x482 JUMPI POP PUSH1 0x2 PUSH1 0x4 PUSH0 DUP4 DUP2 MSTORE PUSH1 0x20 ADD SWAP1 DUP2 MSTORE PUSH1 0x20 ADD PUSH0 KECCAK256 PUSH0 ADD SLOAD LT ISZERO JUMPDEST ISZERO PUSH2 0x48C JUMPI PUSH1 0x1 SWAP4 POP JUMPDEST DUP5 DUP1 ISZERO PUSH2 0x496 JUMPI POP DUP4 JUMPDEST PUSH2 0x4A7 JUMPI DUP1 DUP1 PUSH1 0x1 ADD SWAP2 POP POP PUSH2 0x29B JUMP JUMPDEST POP DUP4 PUSH2 0x4E8 JUMPI PUSH1 0x40 MLOAD PUSH32 0x8C379A000000000000000000000000000000000000000000000000000000000 DUP2 MSTORE PUSH1 0x4 ADD PUSH2 0x4DF SWAP1 PUSH2 0x2745 JUMP JUMPDEST PUSH1 0x40 MLOAD DUP1 SWAP2 SUB SWAP1 REVERT JUMPDEST DUP3 PUSH2 0x528 JUMPI PUSH1 0x40 MLOAD PUSH32 0x8C379A000000000000000000000000000000000000000000000000000000000 DUP2 MSTORE PUSH1 0x4 ADD PUSH2 0x51F SWAP1 PUSH2 0x27D3 JUMP JUMPDEST PUSH1 0x40 MLOAD DUP1 SWAP2 SUB SWAP1 REVERT JUMPDEST PUSH0 PUSH1 0x6 PUSH0 DUP8 PUSH20 0xFFFFFFFFFFFFFFFFFFFFFFFFFFFFFFFFFFFFFFFF AND PUSH20 0xFFFFFFFFFFFFFFFFFFFFFFFFFFFFFFFFFFFFFFFF AND DUP2 MSTORE PUSH1 0x20 ADD SWAP1 DUP2 MSTORE PUSH1 0x20 ADD PUSH0 KECCAK256 DUP1 SLOAD DUP1 PUSH1 0x20 MUL PUSH1 0x20 ADD PUSH1 0x40 MLOAD SWAP1 DUP2 ADD PUSH1 0x40 MSTORE DUP1 SWAP3 SWAP2 SWAP1 DUP2 DUP2 MSTORE PUSH1 0x20 ADD DUP3 DUP1 SLOAD DUP1 ISZERO PUSH2 0x5E3 JUMPI PUSH1 0x20 MUL DUP3 ADD SWAP2 SWAP1 PUSH0 MSTORE PUSH1 0x20 PUSH0 KECCAK256 SWAP1 JUMPDEST DUP2 PUSH0 SWAP1 SLOAD SWAP1 PUSH2 0x100 EXP SWAP1 DIV PUSH20 0xFFFFFFFFFFFFFFFFFFFFFFFFFFFFFFFFFFFFFFFF AND PUSH20 0xFFFFFFFFFFFFFFFFFFFFFFFFFFFFFFFFFFFFFFFF AND DUP2 MSTORE PUSH1 0x20 ADD SWAP1 PUSH1 0x1 ADD SWAP1 DUP1 DUP4 GT PUSH2 0x59A JUMPI JUMPDEST POP POP POP POP POP SWAP1 POP PUSH2 0x5F4 CALLER DUP3 PUSH2 0x1B4D JUMP JUMPDEST ISZERO PUSH2 0x634 JUMPI PUSH1 0x40 MLOAD PUSH32 0x8C379A000000000000000000000000000000000000000000000000000000000 DUP2 MSTORE PUSH1 0x4 ADD PUSH2 0x62B SWAP1 PUSH2 0x2861 JUMP JUMPDEST PUSH1 0x40 MLOAD DUP1 SWAP2 SUB SWAP1 REVERT JUMPDEST PUSH1 0x6 PUSH0 DUP8 PUSH20 0xFFFFFFFFFFFFFFFFFFFFFFFFFFFFFFFFFFFFFFFF AND PUSH20 0xFFFFFFFFFFFFFFFFFFFFFFFFFFFFFFFFFFFFFFFF AND DUP2 MSTORE PUSH1 0x20 ADD SWAP1 DUP2 MSTORE PUSH1 0x20 ADD PUSH0 KECCAK256 CALLER SWAP1 DUP1 PUSH1 0x1 DUP2 SLOAD ADD DUP1 DUP3 SSTORE DUP1 SWAP2 POP POP PUSH1 0x1 SWAP1 SUB SWAP1 PUSH0 MSTORE PUSH1 0x20 PUSH0 KECCAK256 ADD PUSH0 SWAP1 SWAP2 SWAP1 SWAP2 SWAP1 SWAP2 PUSH2 0x100 EXP DUP2 SLOAD DUP2 PUSH20 0xFFFFFFFFFFFFFFFFFFFFFFFFFFFFFFFFFFFFFFFF MUL NOT AND SWAP1 DUP4 PUSH20 0xFFFFFFFFFFFFFFFFFFFFFFFFFFFFFFFFFFFFFFFF AND MUL OR SWAP1 SSTORE POP PUSH1 0x7 PUSH0 DUP8 PUSH20 0xFFFFFFFFFFFFFFFFFFFFFFFFFFFFFFFFFFFFFFFF AND PUSH20 0xFFFFFFFFFFFFFFFFFFFFFFFFFFFFFFFFFFFFFFFF AND DUP2 MSTORE PUSH1 0x20 ADD SWAP1 DUP2 MSTORE PUSH1 0x20 ADD PUSH0 KECCAK256 DUP3 SWAP1 DUP1 PUSH1 0x1 DUP2 SLOAD ADD DUP1 DUP3 SSTORE DUP1 SWAP2 POP POP PUSH1 0x1 SWAP1 SUB SWAP1 PUSH0 MSTORE PUSH1 0x20 PUSH0 KECCAK256 ADD PUSH0 SWAP1 SWAP2 SWAP1 SWAP2 SWAP1 SWAP2 POP SWAP1 DUP2 PUSH2 0x73B SWAP2 SWAP1 PUSH2 0x2A1C JUMP JUMPDEST POP POP POP POP POP POP POP JUMP JUMPDEST PUSH0 DUP1 PUSH3 0x15180 TIMESTAMP PUSH2 0x755 SWAP2 SWAP1 PUSH2 0x2638 JUMP JUMPDEST SWAP1 POP PUSH0 DUP1 PUSH1 0x1 SWAP1 POP JUMPDEST PUSH1 0x16 DUP2 LT ISZERO PUSH2 0x9E6 JUMPI PUSH0 PUSH1 0x5 PUSH0 DUP4 DUP2 MSTORE PUSH1 0x20 ADD SWAP1 DUP2 MSTORE PUSH1 0x20 ADD PUSH0 KECCAK256 SLOAD SWAP1 POP DUP1 DUP5 GT ISZERO DUP1 ISZERO PUSH2 0x7E7 JUMPI POP PUSH1 0x3 PUSH0 DUP4 DUP2 MSTORE PUSH1 0x20 ADD SWAP1 DUP2 MSTORE PUSH1 0x20 ADD PUSH0 KECCAK256 PUSH0 SWAP1 SLOAD SWAP1 PUSH2 0x100 EXP SWAP1 DIV PUSH20 0xFFFFFFFFFFFFFFFFFFFFFFFFFFFFFFFFFFFFFFFF AND PUSH20 0xFFFFFFFFFFFFFFFFFFFFFFFFFFFFFFFFFFFFFFFF AND CALLER PUSH20 0xFFFFFFFFFFFFFFFFFFFFFFFFFFFFFFFFFFFFFFFF AND EQ JUMPDEST ISZERO PUSH2 0x9D8 JUMPI PUSH0 PUSH1 0x4 PUSH0 DUP5 DUP2 MSTORE PUSH1 0x20 ADD SWAP1 DUP2 MSTORE PUSH1 0x20 ADD PUSH0 KECCAK256 PUSH1 0x40 MLOAD DUP1 PUSH1 0x80 ADD PUSH1 0x40 MSTORE SWAP1 DUP2 PUSH0 DUP3 ADD SLOAD DUP2 MSTORE PUSH1 0x20 ADD PUSH1 0x1 DUP3 ADD DUP1 SLOAD PUSH2 0x822 SWAP1 PUSH2 0x2695 JUMP JUMPDEST DUP1 PUSH1 0x1F ADD PUSH1 0x20 DUP1 SWAP2 DIV MUL PUSH1 0x20 ADD PUSH1 0x40 MLOAD SWAP1 DUP2 ADD PUSH1 0x40 MSTORE DUP1 SWAP3 SWAP2 SWAP1 DUP2 DUP2 MSTORE PUSH1 0x20 ADD DUP3 DUP1 SLOAD PUSH2 0x84E SWAP1 PUSH2 0x2695 JUMP JUMPDEST DUP1 ISZERO PUSH2 0x899 JUMPI DUP1 PUSH1 0x1F LT PUSH2 0x870 JUMPI PUSH2 0x100 DUP1 DUP4 SLOAD DIV MUL DUP4 MSTORE SWAP2 PUSH1 0x20 ADD SWAP2 PUSH2 0x899 JUMP JUMPDEST DUP3 ADD SWAP2 SWAP1 PUSH0 MSTORE PUSH1 0x20 PUSH0 KECCAK256 SWAP1 JUMPDEST DUP2 SLOAD DUP2 MSTORE SWAP1 PUSH1 0x1 ADD SWAP1 PUSH1 0x20 ADD DUP1 DUP4 GT PUSH2 0x87C JUMPI DUP3 SWAP1 SUB PUSH1 0x1F AND DUP3 ADD SWAP2 JUMPDEST POP POP POP POP POP DUP2 MSTORE PUSH1 0x20 ADD PUSH1 0x2 DUP3 ADD DUP1 SLOAD PUSH2 0x8B2 SWAP1 PUSH2 0x2695 JUMP JUMPDEST DUP1 PUSH1 0x1F ADD PUSH1 0x20 DUP1 SWAP2 DIV MUL PUSH1 0x20 ADD PUSH1 0x40 MLOAD SWAP1 DUP2 ADD PUSH1 0x40 MSTORE DUP1 SWAP3 SWAP2 SWAP1 DUP2 DUP2 MSTORE PUSH1 0x20 ADD DUP3 DUP1 SLOAD PUSH2 0x8DE SWAP1 PUSH2 0x2695 JUMP JUMPDEST DUP1 ISZERO PUSH2 0x929 JUMPI DUP1 PUSH1 0x1F LT PUSH2 0x900 JUMPI PUSH2 0x100 DUP1 DUP4 SLOAD DIV MUL DUP4 MSTORE SWAP2 PUSH1 0x20 ADD SWAP2 PUSH2 0x929 JUMP JUMPDEST DUP3 ADD SWAP2 SWAP1 PUSH0 MSTORE PUSH1 0x20 PUSH0 KECCAK256 SWAP1 JUMPDEST DUP2 SLOAD DUP2 MSTORE SWAP1 PUSH1 0x1 ADD SWAP1 PUSH1 0x20 ADD DUP1 DUP4 GT PUSH2 0x90C JUMPI DUP3 SWAP1 SUB PUSH1 0x1F AND DUP3 ADD SWAP2 JUMPDEST POP POP POP POP POP DUP2 MSTORE PUSH1 0x20 ADD PUSH1 0x3 DUP3 ADD DUP1 SLOAD PUSH2 0x942 SWAP1 PUSH2 0x2695 JUMP JUMPDEST DUP1 PUSH1 0x1F ADD PUSH1 0x20 DUP1 SWAP2 DIV MUL PUSH1 0x20 ADD PUSH1 0x40 MLOAD SWAP1 DUP2 ADD PUSH1 0x40 MSTORE DUP1 SWAP3 SWAP2 SWAP1 DUP2 DUP2 MSTORE PUSH1 0x20 ADD DUP3 DUP1 SLOAD PUSH2 0x96E SWAP1 PUSH2 0x2695 JUMP JUMPDEST DUP1 ISZERO PUSH2 0x9B9 JUMPI DUP1 PUSH1 0x1F LT PUSH2 0x990 JUMPI PUSH2 0x100 DUP1 DUP4 SLOAD DIV MUL DUP4 MSTORE SWAP2 PUSH1 0x20 ADD SWAP2 PUSH2 0x9B9 JUMP JUMPDEST DUP3 ADD SWAP2 SWAP1 PUSH0 MSTORE PUSH1 0x20 PUSH0 KECCAK256 SWAP1 JUMPDEST DUP2 SLOAD DUP2 MSTORE SWAP1 PUSH1 0x1 ADD SWAP1 PUSH1 0x20 ADD DUP1 DUP4 GT PUSH2 0x99C JUMPI DUP3 SWAP1 SUB PUSH1 0x1F AND DUP3 ADD SWAP2 JUMPDEST POP POP POP POP POP DUP2 MSTORE POP POP SWAP1 POP DUP1 PUSH0 ADD MLOAD DUP5 LT ISZERO PUSH2 0x9D6 JUMPI DUP1 PUSH0 ADD MLOAD SWAP4 POP JUMPDEST POP JUMPDEST POP DUP1 DUP1 PUSH1 0x1 ADD SWAP2 POP POP PUSH2 0x75E JUMP JUMPDEST POP DUP1 SWAP3 POP POP POP SWAP1 JUMP JUMPDEST PUSH0 DUP1 PUSH3 0x15180 TIMESTAMP PUSH2 0xA00 SWAP2 SWAP1 PUSH2 0x2638 JUMP JUMPDEST SWAP1 POP PUSH0 DUP1 PUSH0 PUSH5 0x2540BE400 PUSH1 0x3 PUSH0 SLOAD DUP7 PUSH2 0xBB8 PUSH2 0xA1D SWAP2 SWAP1 PUSH2 0x2AEB JUMP JUMPDEST PUSH2 0xA27 SWAP2 SWAP1 PUSH2 0x2B1E JUMP JUMPDEST PUSH2 0xA31 SWAP2 SWAP1 PUSH2 0x2638 JUMP JUMPDEST PUSH2 0xA3B SWAP2 SWAP1 PUSH2 0x2B51 JUMP JUMPDEST SWAP1 POP PUSH0 PUSH1 0x1 SWAP1 POP JUMPDEST PUSH1 0x16 DUP2 LT ISZERO PUSH2 0xA81 JUMPI DUP5 PUSH1 0x5 PUSH0 DUP4 DUP2 MSTORE PUSH1 0x20 ADD SWAP1 DUP2 MSTORE PUSH1 0x20 ADD PUSH0 KECCAK256 SLOAD LT PUSH2 0xA74 JUMPI PUSH1 0x1 DUP5 PUSH2 0xA71 SWAP2 SWAP1 PUSH2 0x2AEB JUMP JUMPDEST SWAP4 POP JUMPDEST DUP1 DUP1 PUSH1 0x1 ADD SWAP2 POP POP PUSH2 0xA43 JUMP JUMPDEST POP PUSH1 0xF DUP4 GT ISZERO PUSH2 0xA93 JUMPI DUP1 SWAP2 POP PUSH2 0xB01 JUMP JUMPDEST PUSH1 0x7 DUP4 GT DUP1 ISZERO PUSH2 0xAA4 JUMPI POP PUSH1 0xF DUP4 GT ISZERO JUMPDEST ISZERO PUSH2 0xAB3 JUMPI PUSH1 0x1 SLOAD SWAP2 POP PUSH2 0xB00 JUMP JUMPDEST PUSH1 0x2 SLOAD PUSH1 0xA PUSH2 0xAC2 SWAP2 SWAP1 PUSH2 0x2B51 JUMP JUMPDEST PUSH1 0x9 PUSH1 0x1 SLOAD PUSH2 0xAD1 SWAP2 SWAP1 PUSH2 0x2B51 JUMP JUMPDEST GT ISZERO PUSH2 0xAF9 JUMPI PUSH1 0xA PUSH1 0x9 PUSH1 0x1 SLOAD PUSH2 0xAE8 SWAP2 SWAP1 PUSH2 0x2B51 JUMP JUMPDEST PUSH2 0xAF2 SWAP2 SWAP1 PUSH2 0x2638 JUMP JUMPDEST SWAP2 POP PUSH2 0xAFF JUMP JUMPDEST PUSH1 0x2 SLOAD SWAP2 POP JUMPDEST JUMPDEST JUMPDEST DUP2 SWAP5 POP POP POP POP POP SWAP1 JUMP JUMPDEST PUSH1 0x60 PUSH0 PUSH3 0x15180 TIMESTAMP PUSH2 0xB1D SWAP2 SWAP1 PUSH2 0x2638 JUMP JUMPDEST SWAP1 POP PUSH0 DUP1 PUSH1 0x1 SWAP1 POP JUMPDEST PUSH1 0x16 DUP2 LT ISZERO PUSH2 0xBE6 JUMPI PUSH1 0x3 PUSH0 DUP3 DUP2 MSTORE PUSH1 0x20 ADD SWAP1 DUP2 MSTORE PUSH1 0x20 ADD PUSH0 KECCAK256 PUSH0 SWAP1 SLOAD SWAP1 PUSH2 0x100 EXP SWAP1 DIV PUSH20 0xFFFFFFFFFFFFFFFFFFFFFFFFFFFFFFFFFFFFFFFF AND PUSH20 0xFFFFFFFFFFFFFFFFFFFFFFFFFFFFFFFFFFFFFFFF AND CALLER PUSH20 0xFFFFFFFFFFFFFFFFFFFFFFFFFFFFFFFFFFFFFFFF AND EQ DUP1 ISZERO PUSH2 0xBAB JUMPI POP DUP3 PUSH1 0x5 PUSH0 DUP4 DUP2 MSTORE PUSH1 0x20 ADD SWAP1 DUP2 MSTORE PUSH1 0x20 ADD PUSH0 KECCAK256 SLOAD LT ISZERO JUMPDEST DUP1 ISZERO PUSH2 0xBCB JUMPI POP PUSH1 0x2 PUSH1 0x4 PUSH0 DUP4 DUP2 MSTORE PUSH1 0x20 ADD SWAP1 DUP2 MSTORE PUSH1 0x20 ADD PUSH0 KECCAK256 PUSH0 ADD SLOAD LT ISZERO JUMPDEST ISZERO PUSH2 0xBD9 JUMPI PUSH1 0x1 SWAP2 POP PUSH2 0xBE6 JUMP JUMPDEST DUP1 DUP1 PUSH1 0x1 ADD SWAP2 POP POP PUSH2 0xB26 JUMP JUMPDEST POP DUP1 PUSH2 0xC27 JUMPI PUSH1 0x40 MLOAD PUSH32 0x8C379A000000000000000000000000000000000000000000000000000000000 DUP2 MSTORE PUSH1 0x4 ADD PUSH2 0xC1E SWAP1 PUSH2 0x2C02 JUMP JUMPDEST PUSH1 0x40 MLOAD DUP1 SWAP2 SUB SWAP1 REVERT JUMPDEST PUSH1 0x6 PUSH0 CALLER PUSH20 0xFFFFFFFFFFFFFFFFFFFFFFFFFFFFFFFFFFFFFFFF AND PUSH20 0xFFFFFFFFFFFFFFFFFFFFFFFFFFFFFFFFFFFFFFFF AND DUP2 MSTORE PUSH1 0x20 ADD SWAP1 DUP2 MSTORE PUSH1 0x20 ADD PUSH0 KECCAK256 DUP1 SLOAD DUP1 PUSH1 0x20 MUL PUSH1 0x20 ADD PUSH1 0x40 MLOAD SWAP1 DUP2 ADD PUSH1 0x40 MSTORE DUP1 SWAP3 SWAP2 SWAP1 DUP2 DUP2 MSTORE PUSH1 0x20 ADD DUP3 DUP1 SLOAD DUP1 ISZERO PUSH2 0xCE1 JUMPI PUSH1 0x20 MUL DUP3 ADD SWAP2 SWAP1 PUSH0 MSTORE PUSH1 0x20 PUSH0 KECCAK256 SWAP1 JUMPDEST DUP2 PUSH0 SWAP1 SLOAD SWAP1 PUSH2 0x100 EXP SWAP1 DIV PUSH20 0xFFFFFFFFFFFFFFFFFFFFFFFFFFFFFFFFFFFFFFFF AND PUSH20 0xFFFFFFFFFFFFFFFFFFFFFFFFFFFFFFFFFFFFFFFF AND DUP2 MSTORE PUSH1 0x20 ADD SWAP1 PUSH1 0x1 ADD SWAP1 DUP1 DUP4 GT PUSH2 0xC98 JUMPI JUMPDEST POP POP POP POP POP SWAP3 POP POP POP SWAP1 JUMP JUMPDEST PUSH0 PUSH1 0x1 DUP6 LT ISZERO DUP1 ISZERO PUSH2 0xCFF JUMPI POP PUSH1 0x8 DUP6 LT JUMPDEST ISZERO PUSH2 0xD0D JUMPI PUSH1 0x3 SWAP1 POP PUSH2 0xD32 JUMP JUMPDEST PUSH1 0x8 DUP6 LT ISZERO DUP1 ISZERO PUSH2 0xD1E JUMPI POP PUSH1 0xF DUP6 LT JUMPDEST ISZERO PUSH2 0xD2C JUMPI PUSH1 0x2 SWAP1 POP PUSH2 0xD31 JUMP JUMPDEST PUSH1 0x1 SWAP1 POP JUMPDEST JUMPDEST PUSH0 PUSH3 0x15180 TIMESTAMP PUSH2 0xD42 SWAP2 SWAP1 PUSH2 0x2638 JUMP JUMPDEST SWAP1 POP PUSH0 DUP1 PUSH0 PUSH5 0x2540BE400 PUSH1 0x3 PUSH0 SLOAD DUP7 PUSH2 0xBB8 PUSH2 0xD5F SWAP2 SWAP1 PUSH2 0x2AEB JUMP JUMPDEST PUSH2 0xD69 SWAP2 SWAP1 PUSH2 0x2B1E JUMP JUMPDEST PUSH2 0xD73 SWAP2 SWAP1 PUSH2 0x2638 JUMP JUMPDEST DUP7 PUSH2 0xD7E SWAP2 SWAP1 PUSH2 0x2B51 JUMP JUMPDEST PUSH2 0xD88 SWAP2 SWAP1 PUSH2 0x2B51 JUMP JUMPDEST SWAP1 POP PUSH0 PUSH1 0x1 SWAP1 POP JUMPDEST PUSH1 0x16 DUP2 LT ISZERO PUSH2 0xDCE JUMPI DUP5 PUSH1 0x5 PUSH0 DUP4 DUP2 MSTORE PUSH1 0x20 ADD SWAP1 DUP2 MSTORE PUSH1 0x20 ADD PUSH0 KECCAK256 SLOAD LT PUSH2 0xDC1 JUMPI PUSH1 0x1 DUP5 PUSH2 0xDBE SWAP2 SWAP1 PUSH2 0x2AEB JUMP JUMPDEST SWAP4 POP JUMPDEST DUP1 DUP1 PUSH1 0x1 ADD SWAP2 POP POP PUSH2 0xD90 JUMP JUMPDEST POP PUSH1 0xF DUP4 GT ISZERO PUSH2 0xDE0 JUMPI DUP1 SWAP2 POP PUSH2 0xE4E JUMP JUMPDEST PUSH1 0x7 DUP4 GT DUP1 ISZERO PUSH2 0xDF1 JUMPI POP PUSH1 0xF DUP4 GT ISZERO JUMPDEST ISZERO PUSH2 0xE00 JUMPI PUSH1 0x1 SLOAD SWAP2 POP PUSH2 0xE4D JUMP JUMPDEST PUSH1 0x2 SLOAD PUSH1 0xA PUSH2 0xE0F SWAP2 SWAP1 PUSH2 0x2B51 JUMP JUMPDEST PUSH1 0x9 PUSH1 0x1 SLOAD PUSH2 0xE1E SWAP2 SWAP1 PUSH2 0x2B51 JUMP JUMPDEST GT ISZERO PUSH2 0xE46 JUMPI PUSH1 0xA PUSH1 0x9 PUSH1 0x1 SLOAD PUSH2 0xE35 SWAP2 SWAP1 PUSH2 0x2B51 JUMP JUMPDEST PUSH2 0xE3F SWAP2 SWAP1 PUSH2 0x2638 JUMP JUMPDEST SWAP2 POP PUSH2 0xE4C JUMP JUMPDEST PUSH1 0x2 SLOAD SWAP2 POP JUMPDEST JUMPDEST JUMPDEST PUSH0 DUP10 GT PUSH2 0xE90 JUMPI PUSH1 0x40 MLOAD PUSH32 0x8C379A000000000000000000000000000000000000000000000000000000000 DUP2 MSTORE PUSH1 0x4 ADD PUSH2 0xE87 SWAP1 PUSH2 0x2C6A JUMP JUMPDEST PUSH1 0x40 MLOAD DUP1 SWAP2 SUB SWAP1 REVERT JUMPDEST PUSH1 0x15 DUP10 GT ISZERO PUSH2 0xED4 JUMPI PUSH1 0x40 MLOAD PUSH32 0x8C379A000000000000000000000000000000000000000000000000000000000 DUP2 MSTORE PUSH1 0x4 ADD PUSH2 0xECB SWAP1 PUSH2 0x2CD2 JUMP JUMPDEST PUSH1 0x40 MLOAD DUP1 SWAP2 SUB SWAP1 REVERT JUMPDEST DUP2 CALLVALUE LT ISZERO PUSH2 0xF17 JUMPI PUSH1 0x40 MLOAD PUSH32 0x8C379A000000000000000000000000000000000000000000000000000000000 DUP2 MSTORE PUSH1 0x4 ADD PUSH2 0xF0E SWAP1 PUSH2 0x2D3A JUMP JUMPDEST PUSH1 0x40 MLOAD DUP1 SWAP2 SUB SWAP1 REVERT JUMPDEST PUSH0 PUSH1 0x5 PUSH0 DUP12 DUP2 MSTORE PUSH1 0x20 ADD SWAP1 DUP2 MSTORE PUSH1 0x20 ADD PUSH0 KECCAK256 SLOAD SWAP1 POP PUSH0 DUP2 EQ PUSH2 0x110D JUMPI PUSH0 PUSH1 0x3 PUSH0 DUP13 DUP2 MSTORE PUSH1 0x20 ADD SWAP1 DUP2 MSTORE PUSH1 0x20 ADD PUSH0 KECCAK256 PUSH0 SWAP1 SLOAD SWAP1 PUSH2 0x100 EXP SWAP1 DIV PUSH20 0xFFFFFFFFFFFFFFFFFFFFFFFFFFFFFFFFFFFFFFFF AND SWAP1 POP CALLER PUSH20 0xFFFFFFFFFFFFFFFFFFFFFFFFFFFFFFFFFFFFFFFF AND DUP2 PUSH20 0xFFFFFFFFFFFFFFFFFFFFFFFFFFFFFFFFFFFFFFFF AND SUB PUSH2 0xFD5 JUMPI PUSH1 0x40 MLOAD PUSH32 0x8C379A000000000000000000000000000000000000000000000000000000000 DUP2 MSTORE PUSH1 0x4 ADD PUSH2 0xFCC SWAP1 PUSH2 0x2DA2 JUMP JUMPDEST PUSH1 0x40 MLOAD DUP1 SWAP2 SUB SWAP1 REVERT JUMPDEST DUP6 DUP3 LT PUSH2 0x1017 JUMPI PUSH1 0x40 MLOAD PUSH32 0x8C379A000000000000000000000000000000000000000000000000000000000 DUP2 MSTORE PUSH1 0x4 ADD PUSH2 0x100E SWAP1 PUSH2 0x2E0A JUMP JUMPDEST PUSH1 0x40 MLOAD DUP1 SWAP2 SUB SWAP1 REVERT JUMPDEST PUSH1 0x1E DUP7 PUSH2 0x1024 SWAP2 SWAP1 PUSH2 0x2AEB JUMP JUMPDEST PUSH1 0x5 PUSH0 DUP14 DUP2 MSTORE PUSH1 0x20 ADD SWAP1 DUP2 MSTORE PUSH1 0x20 ADD PUSH0 KECCAK256 DUP2 SWAP1 SSTORE POP PUSH1 0x40 MLOAD DUP1 PUSH1 0x80 ADD PUSH1 0x40 MSTORE DUP1 DUP9 DUP2 MSTORE PUSH1 0x20 ADD DUP12 DUP2 MSTORE PUSH1 0x20 ADD DUP11 DUP2 MSTORE PUSH1 0x20 ADD DUP10 DUP2 MSTORE POP PUSH1 0x4 PUSH0 DUP14 DUP2 MSTORE PUSH1 0x20 ADD SWAP1 DUP2 MSTORE PUSH1 0x20 ADD PUSH0 KECCAK256 PUSH0 DUP3 ADD MLOAD DUP2 PUSH0 ADD SSTORE PUSH1 0x20 DUP3 ADD MLOAD DUP2 PUSH1 0x1 ADD SWAP1 DUP2 PUSH2 0x1088 SWAP2 SWAP1 PUSH2 0x2A1C JUMP JUMPDEST POP PUSH1 0x40 DUP3 ADD MLOAD DUP2 PUSH1 0x2 ADD SWAP1 DUP2 PUSH2 0x109E SWAP2 SWAP1 PUSH2 0x2E8A JUMP JUMPDEST POP PUSH1 0x60 DUP3 ADD MLOAD DUP2 PUSH1 0x3 ADD SWAP1 DUP2 PUSH2 0x10B4 SWAP2 SWAP1 PUSH2 0x2E8A JUMP JUMPDEST POP SWAP1 POP POP CALLER PUSH1 0x3 PUSH0 DUP14 DUP2 MSTORE PUSH1 0x20 ADD SWAP1 DUP2 MSTORE PUSH1 0x20 ADD PUSH0 KECCAK256 PUSH0 PUSH2 0x100 EXP DUP2 SLOAD DUP2 PUSH20 0xFFFFFFFFFFFFFFFFFFFFFFFFFFFFFFFFFFFFFFFF MUL NOT AND SWAP1 DUP4 PUSH20 0xFFFFFFFFFFFFFFFFFFFFFFFFFFFFFFFFFFFFFFFF AND MUL OR SWAP1 SSTORE POP POP PUSH2 0x11FE JUMP JUMPDEST PUSH1 0x1E DUP6 PUSH2 0x111A SWAP2 SWAP1 PUSH2 0x2AEB JUMP JUMPDEST PUSH1 0x5 PUSH0 DUP13 DUP2 MSTORE PUSH1 0x20 ADD SWAP1 DUP2 MSTORE PUSH1 0x20 ADD PUSH0 KECCAK256 DUP2 SWAP1 SSTORE POP PUSH1 0x40 MLOAD DUP1 PUSH1 0x80 ADD PUSH1 0x40 MSTORE DUP1 DUP8 DUP2 MSTORE PUSH1 0x20 ADD DUP11 DUP2 MSTORE PUSH1 0x20 ADD DUP10 DUP2 MSTORE PUSH1 0x20 ADD DUP9 DUP2 MSTORE POP PUSH1 0x4 PUSH0 DUP13 DUP2 MSTORE PUSH1 0x20 ADD SWAP1 DUP2 MSTORE PUSH1 0x20 ADD PUSH0 KECCAK256 PUSH0 DUP3 ADD MLOAD DUP2 PUSH0 ADD SSTORE PUSH1 0x20 DUP3 ADD MLOAD DUP2 PUSH1 0x1 ADD SWAP1 DUP2 PUSH2 0x117E SWAP2 SWAP1 PUSH2 0x2A1C JUMP JUMPDEST POP PUSH1 0x40 DUP3 ADD MLOAD DUP2 PUSH1 0x2 ADD SWAP1 DUP2 PUSH2 0x1194 SWAP2 SWAP1 PUSH2 0x2E8A JUMP JUMPDEST POP PUSH1 0x60 DUP3 ADD MLOAD DUP2 PUSH1 0x3 ADD SWAP1 DUP2 PUSH2 0x11AA SWAP2 SWAP1 PUSH2 0x2E8A JUMP JUMPDEST POP SWAP1 POP POP CALLER PUSH1 0x3 PUSH0 DUP13 DUP2 MSTORE PUSH1 0x20 ADD SWAP1 DUP2 MSTORE PUSH1 0x20 ADD PUSH0 KECCAK256 PUSH0 PUSH2 0x100 EXP DUP2 SLOAD DUP2 PUSH20 0xFFFFFFFFFFFFFFFFFFFFFFFFFFFFFFFFFFFFFFFF MUL NOT AND SWAP1 DUP4 PUSH20 0xFFFFFFFFFFFFFFFFFFFFFFFFFFFFFFFFFFFFFFFF AND MUL OR SWAP1 SSTORE POP JUMPDEST DUP3 PUSH1 0x1 DUP2 SWAP1 SSTORE POP POP POP POP POP POP POP POP POP POP POP JUMP JUMPDEST PUSH2 0x1219 PUSH2 0x1DF6 JUMP JUMPDEST PUSH0 PUSH3 0x15180 TIMESTAMP PUSH2 0x1229 SWAP2 SWAP1 PUSH2 0x2638 JUMP JUMPDEST SWAP1 POP PUSH2 0x1233 PUSH2 0x1DF6 JUMP JUMPDEST PUSH0 PUSH1 0x1 SWAP1 POP JUMPDEST PUSH1 0x16 DUP2 LT ISZERO PUSH2 0x14AD JUMPI PUSH0 PUSH1 0x5 PUSH0 DUP4 DUP2 MSTORE PUSH1 0x20 ADD SWAP1 DUP2 MSTORE PUSH1 0x20 ADD PUSH0 KECCAK256 SLOAD SWAP1 POP DUP1 DUP5 GT PUSH2 0x1468 JUMPI PUSH0 PUSH1 0x4 PUSH0 DUP5 DUP2 MSTORE PUSH1 0x20 ADD SWAP1 DUP2 MSTORE PUSH1 0x20 ADD PUSH0 KECCAK256 PUSH1 0x40 MLOAD DUP1 PUSH1 0x80 ADD PUSH1 0x40 MSTORE SWAP1 DUP2 PUSH0 DUP3 ADD SLOAD DUP2 MSTORE PUSH1 0x20 ADD PUSH1 0x1 DUP3 ADD DUP1 SLOAD PUSH2 0x1294 SWAP1 PUSH2 0x2695 JUMP JUMPDEST DUP1 PUSH1 0x1F ADD PUSH1 0x20 DUP1 SWAP2 DIV MUL PUSH1 0x20 ADD PUSH1 0x40 MLOAD SWAP1 DUP2 ADD PUSH1 0x40 MSTORE DUP1 SWAP3 SWAP2 SWAP1 DUP2 DUP2 MSTORE PUSH1 0x20 ADD DUP3 DUP1 SLOAD PUSH2 0x12C0 SWAP1 PUSH2 0x2695 JUMP JUMPDEST DUP1 ISZERO PUSH2 0x130B JUMPI DUP1 PUSH1 0x1F LT PUSH2 0x12E2 JUMPI PUSH2 0x100 DUP1 DUP4 SLOAD DIV MUL DUP4 MSTORE SWAP2 PUSH1 0x20 ADD SWAP2 PUSH2 0x130B JUMP JUMPDEST DUP3 ADD SWAP2 SWAP1 PUSH0 MSTORE PUSH1 0x20 PUSH0 KECCAK256 SWAP1 JUMPDEST DUP2 SLOAD DUP2 MSTORE SWAP1 PUSH1 0x1 ADD SWAP1 PUSH1 0x20 ADD DUP1 DUP4 GT PUSH2 0x12EE JUMPI DUP3 SWAP1 SUB PUSH1 0x1F AND DUP3 ADD SWAP2 JUMPDEST POP POP POP POP POP DUP2 MSTORE PUSH1 0x20 ADD PUSH1 0x2 DUP3 ADD DUP1 SLOAD PUSH2 0x1324 SWAP1 PUSH2 0x2695 JUMP JUMPDEST DUP1 PUSH1 0x1F ADD PUSH1 0x20 DUP1 SWAP2 DIV MUL PUSH1 0x20 ADD PUSH1 0x40 MLOAD SWAP1 DUP2 ADD PUSH1 0x40 MSTORE DUP1 SWAP3 SWAP2 SWAP1 DUP2 DUP2 MSTORE PUSH1 0x20 ADD DUP3 DUP1 SLOAD PUSH2 0x1350 SWAP1 PUSH2 0x2695 JUMP JUMPDEST DUP1 ISZERO PUSH2 0x139B JUMPI DUP1 PUSH1 0x1F LT PUSH2 0x1372 JUMPI PUSH2 0x100 DUP1 DUP4 SLOAD DIV MUL DUP4 MSTORE SWAP2 PUSH1 0x20 ADD SWAP2 PUSH2 0x139B JUMP JUMPDEST DUP3 ADD SWAP2 SWAP1 PUSH0 MSTORE PUSH1 0x20 PUSH0 KECCAK256 SWAP1 JUMPDEST DUP2 SLOAD DUP2 MSTORE SWAP1 PUSH1 0x1 ADD SWAP1 PUSH1 0x20 ADD DUP1 DUP4 GT PUSH2 0x137E JUMPI DUP3 SWAP1 SUB PUSH1 0x1F AND DUP3 ADD SWAP2 JUMPDEST POP POP POP POP POP DUP2 MSTORE PUSH1 0x20 ADD PUSH1 0x3 DUP3 ADD DUP1 SLOAD PUSH2 0x13B4 SWAP1 PUSH2 0x2695 JUMP JUMPDEST DUP1 PUSH1 0x1F ADD PUSH1 0x20 DUP1 SWAP2 DIV MUL PUSH1 0x20 ADD PUSH1 0x40 MLOAD SWAP1 DUP2 ADD PUSH1 0x40 MSTORE DUP1 SWAP3 SWAP2 SWAP1 DUP2 DUP2 MSTORE PUSH1 0x20 ADD DUP3 DUP1 SLOAD PUSH2 0x13E0 SWAP1 PUSH2 0x2695 JUMP JUMPDEST DUP1 ISZERO PUSH2 0x142B JUMPI DUP1 PUSH1 0x1F LT PUSH2 0x1402 JUMPI PUSH2 0x100 DUP1 DUP4 SLOAD DIV MUL DUP4 MSTORE SWAP2 PUSH1 0x20 ADD SWAP2 PUSH2 0x142B JUMP JUMPDEST DUP3 ADD SWAP2 SWAP1 PUSH0 MSTORE PUSH1 0x20 PUSH0 KECCAK256 SWAP1 JUMPDEST DUP2 SLOAD DUP2 MSTORE SWAP1 PUSH1 0x1 ADD SWAP1 PUSH1 0x20 ADD DUP1 DUP4 GT PUSH2 0x140E JUMPI DUP3 SWAP1 SUB PUSH1 0x1F AND DUP3 ADD SWAP2 JUMPDEST POP POP POP POP POP DUP2 MSTORE POP POP SWAP1 POP DUP1 PUSH1 0x40 ADD MLOAD DUP5 PUSH1 0x1 DUP6 PUSH2 0x1449 SWAP2 SWAP1 PUSH2 0x2B1E JUMP JUMPDEST PUSH1 0x15 DUP2 LT PUSH2 0x145A JUMPI PUSH2 0x1459 PUSH2 0x2F59 JUMP JUMPDEST JUMPDEST PUSH1 0x20 MUL ADD DUP2 SWAP1 MSTORE POP POP PUSH2 0x149F JUMP JUMPDEST PUSH1 0x40 MLOAD DUP1 PUSH1 0x20 ADD PUSH1 0x40 MSTORE DUP1 PUSH0 DUP2 MSTORE POP DUP4 PUSH1 0x1 DUP5 PUSH2 0x1485 SWAP2 SWAP1 PUSH2 0x2B1E JUMP JUMPDEST PUSH1 0x15 DUP2 LT PUSH2 0x1496 JUMPI PUSH2 0x1495 PUSH2 0x2F59 JUMP JUMPDEST JUMPDEST PUSH1 0x20 MUL ADD DUP2 SWAP1 MSTORE POP JUMPDEST POP DUP1 DUP1 PUSH1 0x1 ADD SWAP2 POP POP PUSH2 0x1239 JUMP JUMPDEST POP DUP1 SWAP3 POP POP POP SWAP1 JUMP JUMPDEST PUSH2 0x14BE PUSH2 0x1DF6 JUMP JUMPDEST PUSH0 PUSH3 0x15180 TIMESTAMP PUSH2 0x14CE SWAP2 SWAP1 PUSH2 0x2638 JUMP JUMPDEST SWAP1 POP PUSH2 0x14D8 PUSH2 0x1DF6 JUMP JUMPDEST PUSH0 PUSH1 0x1 SWAP1 POP JUMPDEST PUSH1 0x16 DUP2 LT ISZERO PUSH2 0x1752 JUMPI PUSH0 PUSH1 0x5 PUSH0 DUP4 DUP2 MSTORE PUSH1 0x20 ADD SWAP1 DUP2 MSTORE PUSH1 0x20 ADD PUSH0 KECCAK256 SLOAD SWAP1 POP DUP1 DUP5 GT PUSH2 0x170D JUMPI PUSH0 PUSH1 0x4 PUSH0 DUP5 DUP2 MSTORE PUSH1 0x20 ADD SWAP1 DUP2 MSTORE PUSH1 0x20 ADD PUSH0 KECCAK256 PUSH1 0x40 MLOAD DUP1 PUSH1 0x80 ADD PUSH1 0x40 MSTORE SWAP1 DUP2 PUSH0 DUP3 ADD SLOAD DUP2 MSTORE PUSH1 0x20 ADD PUSH1 0x1 DUP3 ADD DUP1 SLOAD PUSH2 0x1539 SWAP1 PUSH2 0x2695 JUMP JUMPDEST DUP1 PUSH1 0x1F ADD PUSH1 0x20 DUP1 SWAP2 DIV MUL PUSH1 0x20 ADD PUSH1 0x40 MLOAD SWAP1 DUP2 ADD PUSH1 0x40 MSTORE DUP1 SWAP3 SWAP2 SWAP1 DUP2 DUP2 MSTORE PUSH1 0x20 ADD DUP3 DUP1 SLOAD PUSH2 0x1565 SWAP1 PUSH2 0x2695 JUMP JUMPDEST DUP1 ISZERO PUSH2 0x15B0 JUMPI DUP1 PUSH1 0x1F LT PUSH2 0x1587 JUMPI PUSH2 0x100 DUP1 DUP4 SLOAD DIV MUL DUP4 MSTORE SWAP2 PUSH1 0x20 ADD SWAP2 PUSH2 0x15B0 JUMP JUMPDEST DUP3 ADD SWAP2 SWAP1 PUSH0 MSTORE PUSH1 0x20 PUSH0 KECCAK256 SWAP1 JUMPDEST DUP2 SLOAD DUP2 MSTORE SWAP1 PUSH1 0x1 ADD SWAP1 PUSH1 0x20 ADD DUP1 DUP4 GT PUSH2 0x1593 JUMPI DUP3 SWAP1 SUB PUSH1 0x1F AND DUP3 ADD SWAP2 JUMPDEST POP POP POP POP POP DUP2 MSTORE PUSH1 0x20 ADD PUSH1 0x2 DUP3 ADD DUP1 SLOAD PUSH2 0x15C9 SWAP1 PUSH2 0x2695 JUMP JUMPDEST DUP1 PUSH1 0x1F ADD PUSH1 0x20 DUP1 SWAP2 DIV MUL PUSH1 0x20 ADD PUSH1 0x40 MLOAD SWAP1 DUP2 ADD PUSH1 0x40 MSTORE DUP1 SWAP3 SWAP2 SWAP1 DUP2 DUP2 MSTORE PUSH1 0x20 ADD DUP3 DUP1 SLOAD PUSH2 0x15F5 SWAP1 PUSH2 0x2695 JUMP JUMPDEST DUP1 ISZERO PUSH2 0x1640 JUMPI DUP1 PUSH1 0x1F LT PUSH2 0x1617 JUMPI PUSH2 0x100 DUP1 DUP4 SLOAD DIV MUL DUP4 MSTORE SWAP2 PUSH1 0x20 ADD SWAP2 PUSH2 0x1640 JUMP JUMPDEST DUP3 ADD SWAP2 SWAP1 PUSH0 MSTORE PUSH1 0x20 PUSH0 KECCAK256 SWAP1 JUMPDEST DUP2 SLOAD DUP2 MSTORE SWAP1 PUSH1 0x1 ADD SWAP1 PUSH1 0x20 ADD DUP1 DUP4 GT PUSH2 0x1623 JUMPI DUP3 SWAP1 SUB PUSH1 0x1F AND DUP3 ADD SWAP2 JUMPDEST POP POP POP POP POP DUP2 MSTORE PUSH1 0x20 ADD PUSH1 0x3 DUP3 ADD DUP1 SLOAD PUSH2 0x1659 SWAP1 PUSH2 0x2695 JUMP JUMPDEST DUP1 PUSH1 0x1F ADD PUSH1 0x20 DUP1 SWAP2 DIV MUL PUSH1 0x20 ADD PUSH1 0x40 MLOAD SWAP1 DUP2 ADD PUSH1 0x40 MSTORE DUP1 SWAP3 SWAP2 SWAP1 DUP2 DUP2 MSTORE PUSH1 0x20 ADD DUP3 DUP1 SLOAD PUSH2 0x1685 SWAP1 PUSH2 0x2695 JUMP JUMPDEST DUP1 ISZERO PUSH2 0x16D0 JUMPI DUP1 PUSH1 0x1F LT PUSH2 0x16A7 JUMPI PUSH2 0x100 DUP1 DUP4 SLOAD DIV MUL DUP4 MSTORE SWAP2 PUSH1 0x20 ADD SWAP2 PUSH2 0x16D0 JUMP JUMPDEST DUP3 ADD SWAP2 SWAP1 PUSH0 MSTORE PUSH1 0x20 PUSH0 KECCAK256 SWAP1 JUMPDEST DUP2 SLOAD DUP2 MSTORE SWAP1 PUSH1 0x1 ADD SWAP1 PUSH1 0x20 ADD DUP1 DUP4 GT PUSH2 0x16B3 JUMPI DUP3 SWAP1 SUB PUSH1 0x1F AND DUP3 ADD SWAP2 JUMPDEST POP POP POP POP POP DUP2 MSTORE POP POP SWAP1 POP DUP1 PUSH1 0x20 ADD MLOAD DUP5 PUSH1 0x1 DUP6 PUSH2 0x16EE SWAP2 SWAP1 PUSH2 0x2B1E JUMP JUMPDEST PUSH1 0x15 DUP2 LT PUSH2 0x16FF JUMPI PUSH2 0x16FE PUSH2 0x2F59 JUMP JUMPDEST JUMPDEST PUSH1 0x20 MUL ADD DUP2 SWAP1 MSTORE POP POP PUSH2 0x1744 JUMP JUMPDEST PUSH1 0x40 MLOAD DUP1 PUSH1 0x20 ADD PUSH1 0x40 MSTORE DUP1 PUSH0 DUP2 MSTORE POP DUP4 PUSH1 0x1 DUP5 PUSH2 0x172A SWAP2 SWAP1 PUSH2 0x2B1E JUMP JUMPDEST PUSH1 0x15 DUP2 LT PUSH2 0x173B JUMPI PUSH2 0x173A PUSH2 0x2F59 JUMP JUMPDEST JUMPDEST PUSH1 0x20 MUL ADD DUP2 SWAP1 MSTORE POP JUMPDEST POP DUP1 DUP1 PUSH1 0x1 ADD SWAP2 POP POP PUSH2 0x14DE JUMP JUMPDEST POP DUP1 SWAP3 POP POP POP SWAP1 JUMP JUMPDEST PUSH2 0x1763 PUSH2 0x1E1E JUMP JUMPDEST PUSH0 PUSH3 0x15180 TIMESTAMP PUSH2 0x1773 SWAP2 SWAP1 PUSH2 0x2638 JUMP JUMPDEST SWAP1 POP PUSH2 0x177D PUSH2 0x1E1E JUMP JUMPDEST PUSH0 PUSH1 0x1 SWAP1 POP JUMPDEST PUSH1 0x16 DUP2 LT ISZERO PUSH2 0x189F JUMPI PUSH0 PUSH1 0x5 PUSH0 DUP4 DUP2 MSTORE PUSH1 0x20 ADD SWAP1 DUP2 MSTORE PUSH1 0x20 ADD PUSH0 KECCAK256 SLOAD SWAP1 POP DUP1 DUP5 GT PUSH2 0x1839 JUMPI PUSH0 PUSH1 0x3 PUSH0 DUP5 DUP2 MSTORE PUSH1 0x20 ADD SWAP1 DUP2 MSTORE PUSH1 0x20 ADD PUSH0 KECCAK256 PUSH0 SWAP1 SLOAD SWAP1 PUSH2 0x100 EXP SWAP1 DIV PUSH20 0xFFFFFFFFFFFFFFFFFFFFFFFFFFFFFFFFFFFFFFFF AND SWAP1 POP DUP1 DUP5 PUSH1 0x1 DUP6 PUSH2 0x17EB SWAP2 SWAP1 PUSH2 0x2B1E JUMP JUMPDEST PUSH1 0x15 DUP2 LT PUSH2 0x17FC JUMPI PUSH2 0x17FB PUSH2 0x2F59 JUMP JUMPDEST JUMPDEST PUSH1 0x20 MUL ADD SWAP1 PUSH20 0xFFFFFFFFFFFFFFFFFFFFFFFFFFFFFFFFFFFFFFFF AND SWAP1 DUP2 PUSH20 0xFFFFFFFFFFFFFFFFFFFFFFFFFFFFFFFFFFFFFFFF AND DUP2 MSTORE POP POP POP PUSH2 0x1891 JUMP JUMPDEST PUSH0 DUP4 PUSH1 0x1 DUP5 PUSH2 0x1848 SWAP2 SWAP1 PUSH2 0x2B1E JUMP JUMPDEST PUSH1 0x15 DUP2 LT PUSH2 0x1859 JUMPI PUSH2 0x1858 PUSH2 0x2F59 JUMP JUMPDEST JUMPDEST PUSH1 0x20 MUL ADD SWAP1 PUSH20 0xFFFFFFFFFFFFFFFFFFFFFFFFFFFFFFFFFFFFFFFF AND SWAP1 DUP2 PUSH20 0xFFFFFFFFFFFFFFFFFFFFFFFFFFFFFFFFFFFFFFFF AND DUP2 MSTORE POP POP JUMPDEST POP DUP1 DUP1 PUSH1 0x1 ADD SWAP2 POP POP PUSH2 0x1783 JUMP JUMPDEST POP DUP1 SWAP3 POP POP POP SWAP1 JUMP JUMPDEST PUSH2 0x18B0 PUSH2 0x1DF6 JUMP JUMPDEST PUSH0 PUSH3 0x15180 TIMESTAMP PUSH2 0x18C0 SWAP2 SWAP1 PUSH2 0x2638 JUMP JUMPDEST SWAP1 POP PUSH2 0x18CA PUSH2 0x1DF6 JUMP JUMPDEST PUSH0 PUSH1 0x1 SWAP1 POP JUMPDEST PUSH1 0x16 DUP2 LT ISZERO PUSH2 0x1B44 JUMPI PUSH0 PUSH1 0x5 PUSH0 DUP4 DUP2 MSTORE PUSH1 0x20 ADD SWAP1 DUP2 MSTORE PUSH1 0x20 ADD PUSH0 KECCAK256 SLOAD SWAP1 POP DUP1 DUP5 GT PUSH2 0x1AFF JUMPI PUSH0 PUSH1 0x4 PUSH0 DUP5 DUP2 MSTORE PUSH1 0x20 ADD SWAP1 DUP2 MSTORE PUSH1 0x20 ADD PUSH0 KECCAK256 PUSH1 0x40 MLOAD DUP1 PUSH1 0x80 ADD PUSH1 0x40 MSTORE SWAP1 DUP2 PUSH0 DUP3 ADD SLOAD DUP2 MSTORE PUSH1 0x20 ADD PUSH1 0x1 DUP3 ADD DUP1 SLOAD PUSH2 0x192B SWAP1 PUSH2 0x2695 JUMP JUMPDEST DUP1 PUSH1 0x1F ADD PUSH1 0x20 DUP1 SWAP2 DIV MUL PUSH1 0x20 ADD PUSH1 0x40 MLOAD SWAP1 DUP2 ADD PUSH1 0x40 MSTORE DUP1 SWAP3 SWAP2 SWAP1 DUP2 DUP2 MSTORE PUSH1 0x20 ADD DUP3 DUP1 SLOAD PUSH2 0x1957 SWAP1 PUSH2 0x2695 JUMP JUMPDEST DUP1 ISZERO PUSH2 0x19A2 JUMPI DUP1 PUSH1 0x1F LT PUSH2 0x1979 JUMPI PUSH2 0x100 DUP1 DUP4 SLOAD DIV MUL DUP4 MSTORE SWAP2 PUSH1 0x20 ADD SWAP2 PUSH2 0x19A2 JUMP JUMPDEST DUP3 ADD SWAP2 SWAP1 PUSH0 MSTORE PUSH1 0x20 PUSH0 KECCAK256 SWAP1 JUMPDEST DUP2 SLOAD DUP2 MSTORE SWAP1 PUSH1 0x1 ADD SWAP1 PUSH1 0x20 ADD DUP1 DUP4 GT PUSH2 0x1985 JUMPI DUP3 SWAP1 SUB PUSH1 0x1F AND DUP3 ADD SWAP2 JUMPDEST POP POP POP POP POP DUP2 MSTORE PUSH1 0x20 ADD PUSH1 0x2 DUP3 ADD DUP1 SLOAD PUSH2 0x19BB SWAP1 PUSH2 0x2695 JUMP JUMPDEST DUP1 PUSH1 0x1F ADD PUSH1 0x20 DUP1 SWAP2 DIV MUL PUSH1 0x20 ADD PUSH1 0x40 MLOAD SWAP1 DUP2 ADD PUSH1 0x40 MSTORE DUP1 SWAP3 SWAP2 SWAP1 DUP2 DUP2 MSTORE PUSH1 0x20 ADD DUP3 DUP1 SLOAD PUSH2 0x19E7 SWAP1 PUSH2 0x2695 JUMP JUMPDEST DUP1 ISZERO PUSH2 0x1A32 JUMPI DUP1 PUSH1 0x1F LT PUSH2 0x1A09 JUMPI PUSH2 0x100 DUP1 DUP4 SLOAD DIV MUL DUP4 MSTORE SWAP2 PUSH1 0x20 ADD SWAP2 PUSH2 0x1A32 JUMP JUMPDEST DUP3 ADD SWAP2 SWAP1 PUSH0 MSTORE PUSH1 0x20 PUSH0 KECCAK256 SWAP1 JUMPDEST DUP2 SLOAD DUP2 MSTORE SWAP1 PUSH1 0x1 ADD SWAP1 PUSH1 0x20 ADD DUP1 DUP4 GT PUSH2 0x1A15 JUMPI DUP3 SWAP1 SUB PUSH1 0x1F AND DUP3 ADD SWAP2 JUMPDEST POP POP POP POP POP DUP2 MSTORE PUSH1 0x20 ADD PUSH1 0x3 DUP3 ADD DUP1 SLOAD PUSH2 0x1A4B SWAP1 PUSH2 0x2695 JUMP JUMPDEST DUP1 PUSH1 0x1F ADD PUSH1 0x20 DUP1 SWAP2 DIV MUL PUSH1 0x20 ADD PUSH1 0x40 MLOAD SWAP1 DUP2 ADD PUSH1 0x40 MSTORE DUP1 SWAP3 SWAP2 SWAP1 DUP2 DUP2 MSTORE PUSH1 0x20 ADD DUP3 DUP1 SLOAD PUSH2 0x1A77 SWAP1 PUSH2 0x2695 JUMP JUMPDEST DUP1 ISZERO PUSH2 0x1AC2 JUMPI DUP1 PUSH1 0x1F LT PUSH2 0x1A99 JUMPI PUSH2 0x100 DUP1 DUP4 SLOAD DIV MUL DUP4 MSTORE SWAP2 PUSH1 0x20 ADD SWAP2 PUSH2 0x1AC2 JUMP JUMPDEST DUP3 ADD SWAP2 SWAP1 PUSH0 MSTORE PUSH1 0x20 PUSH0 KECCAK256 SWAP1 JUMPDEST DUP2 SLOAD DUP2 MSTORE SWAP1 PUSH1 0x1 ADD SWAP1 PUSH1 0x20 ADD DUP1 DUP4 GT PUSH2 0x1AA5 JUMPI DUP3 SWAP1 SUB PUSH1 0x1F AND DUP3 ADD SWAP2 JUMPDEST POP POP POP POP POP DUP2 MSTORE POP POP SWAP1 POP DUP1 PUSH1 0x60 ADD MLOAD DUP5 PUSH1 0x1 DUP6 PUSH2 0x1AE0 SWAP2 SWAP1 PUSH2 0x2B1E JUMP JUMPDEST PUSH1 0x15 DUP2 LT PUSH2 0x1AF1 JUMPI PUSH2 0x1AF0 PUSH2 0x2F59 JUMP JUMPDEST JUMPDEST PUSH1 0x20 MUL ADD DUP2 SWAP1 MSTORE POP POP PUSH2 0x1B36 JUMP JUMPDEST PUSH1 0x40 MLOAD DUP1 PUSH1 0x20 ADD PUSH1 0x40 MSTORE DUP1 PUSH0 DUP2 MSTORE POP DUP4 PUSH1 0x1 DUP5 PUSH2 0x1B1C SWAP2 SWAP1 PUSH2 0x2B1E JUMP JUMPDEST PUSH1 0x15 DUP2 LT PUSH2 0x1B2D JUMPI PUSH2 0x1B2C PUSH2 0x2F59 JUMP JUMPDEST JUMPDEST PUSH1 0x20 MUL ADD DUP2 SWAP1 MSTORE POP JUMPDEST POP DUP1 DUP1 PUSH1 0x1 ADD SWAP2 POP POP PUSH2 0x18D0 JUMP JUMPDEST POP DUP1 SWAP3 POP POP POP SWAP1 JUMP JUMPDEST PUSH0 DUP1 PUSH0 SWAP1 POP JUMPDEST DUP3 MLOAD DUP2 LT ISZERO PUSH2 0x1BC0 JUMPI DUP4 PUSH20 0xFFFFFFFFFFFFFFFFFFFFFFFFFFFFFFFFFFFFFFFF AND DUP4 DUP3 DUP2 MLOAD DUP2 LT PUSH2 0x1B86 JUMPI PUSH2 0x1B85 PUSH2 0x2F59 JUMP JUMPDEST JUMPDEST PUSH1 0x20 MUL PUSH1 0x20 ADD ADD MLOAD PUSH20 0xFFFFFFFFFFFFFFFFFFFFFFFFFFFFFFFFFFFFFFFF AND SUB PUSH2 0x1BB3 JUMPI PUSH1 0x1 SWAP2 POP POP PUSH2 0x1BC5 JUMP JUMPDEST DUP1 DUP1 PUSH1 0x1 ADD SWAP2 POP POP PUSH2 0x1B53 JUMP JUMPDEST POP PUSH0 SWAP1 POP JUMPDEST SWAP3 SWAP2 POP POP JUMP JUMPDEST PUSH1 0x60 PUSH0 PUSH3 0x15180 TIMESTAMP PUSH2 0x1BDD SWAP2 SWAP1 PUSH2 0x2638 JUMP JUMPDEST SWAP1 POP PUSH0 DUP1 PUSH1 0x1 SWAP1 POP JUMPDEST PUSH1 0x16 DUP2 LT ISZERO PUSH2 0x1CA6 JUMPI PUSH1 0x3 PUSH0 DUP3 DUP2 MSTORE PUSH1 0x20 ADD SWAP1 DUP2 MSTORE PUSH1 0x20 ADD PUSH0 KECCAK256 PUSH0 SWAP1 SLOAD SWAP1 PUSH2 0x100 EXP SWAP1 DIV PUSH20 0xFFFFFFFFFFFFFFFFFFFFFFFFFFFFFFFFFFFFFFFF AND PUSH20 0xFFFFFFFFFFFFFFFFFFFFFFFFFFFFFFFFFFFFFFFF AND CALLER PUSH20 0xFFFFFFFFFFFFFFFFFFFFFFFFFFFFFFFFFFFFFFFF AND EQ DUP1 ISZERO PUSH2 0x1C6B JUMPI POP DUP3 PUSH1 0x5 PUSH0 DUP4 DUP2 MSTORE PUSH1 0x20 ADD SWAP1 DUP2 MSTORE PUSH1 0x20 ADD PUSH0 KECCAK256 SLOAD LT ISZERO JUMPDEST DUP1 ISZERO PUSH2 0x1C8B JUMPI POP PUSH1 0x2 PUSH1 0x4 PUSH0 DUP4 DUP2 MSTORE PUSH1 0x20 ADD SWAP1 DUP2 MSTORE PUSH1 0x20 ADD PUSH0 KECCAK256 PUSH0 ADD SLOAD LT ISZERO JUMPDEST ISZERO PUSH2 0x1C99 JUMPI PUSH1 0x1 SWAP2 POP PUSH2 0x1CA6 JUMP JUMPDEST DUP1 DUP1 PUSH1 0x1 ADD SWAP2 POP POP PUSH2 0x1BE6 JUMP JUMPDEST POP DUP1 PUSH2 0x1CE7 JUMPI PUSH1 0x40 MLOAD PUSH32 0x8C379A000000000000000000000000000000000000000000000000000000000 DUP2 MSTORE PUSH1 0x4 ADD PUSH2 0x1CDE SWAP1 PUSH2 0x2C02 JUMP JUMPDEST PUSH1 0x40 MLOAD DUP1 SWAP2 SUB SWAP1 REVERT JUMPDEST PUSH1 0x7 PUSH0 CALLER PUSH20 0xFFFFFFFFFFFFFFFFFFFFFFFFFFFFFFFFFFFFFFFF AND PUSH20 0xFFFFFFFFFFFFFFFFFFFFFFFFFFFFFFFFFFFFFFFF AND DUP2 MSTORE PUSH1 0x20 ADD SWAP1 DUP2 MSTORE PUSH1 0x20 ADD PUSH0 KECCAK256 DUP1 SLOAD DUP1 PUSH1 0x20 MUL PUSH1 0x20 ADD PUSH1 0x40 MLOAD SWAP1 DUP2 ADD PUSH1 0x40 MSTORE DUP1 SWAP3 SWAP2 SWAP1 DUP2 DUP2 MSTORE PUSH1 0x20 ADD PUSH0 SWAP1 JUMPDEST DUP3 DUP3 LT ISZERO PUSH2 0x1DEB JUMPI DUP4 DUP3 SWAP1 PUSH0 MSTORE PUSH1 0x20 PUSH0 KECCAK256 ADD DUP1 SLOAD PUSH2 0x1D60 SWAP1 PUSH2 0x2695 JUMP JUMPDEST DUP1 PUSH1 0x1F ADD PUSH1 0x20 DUP1 SWAP2 DIV MUL PUSH1 0x20 ADD PUSH1 0x40 MLOAD SWAP1 DUP2 ADD PUSH1 0x40 MSTORE DUP1 SWAP3 SWAP2 SWAP1 DUP2 DUP2 MSTORE PUSH1 0x20 ADD DUP3 DUP1 SLOAD PUSH2 0x1D8C SWAP1 PUSH2 0x2695 JUMP JUMPDEST DUP1 ISZERO PUSH2 0x1DD7 JUMPI DUP1 PUSH1 0x1F LT PUSH2 0x1DAE JUMPI PUSH2 0x100 DUP1 DUP4 SLOAD DIV MUL DUP4 MSTORE SWAP2 PUSH1 0x20 ADD SWAP2 PUSH2 0x1DD7 JUMP JUMPDEST DUP3 ADD SWAP2 SWAP1 PUSH0 MSTORE PUSH1 0x20 PUSH0 KECCAK256 SWAP1 JUMPDEST DUP2 SLOAD DUP2 MSTORE SWAP1 PUSH1 0x1 ADD SWAP1 PUSH1 0x20 ADD DUP1 DUP4 GT PUSH2 0x1DBA JUMPI DUP3 SWAP1 SUB PUSH1 0x1F AND DUP3 ADD SWAP2 JUMPDEST POP POP POP POP POP DUP2 MSTORE PUSH1 0x20 ADD SWAP1 PUSH1 0x1 ADD SWAP1 PUSH2 0x1D43 JUMP JUMPDEST POP POP POP POP SWAP3 POP POP POP SWAP1 JUMP JUMPDEST PUSH1 0x40 MLOAD DUP1 PUSH2 0x2A0 ADD PUSH1 0x40 MSTORE DUP1 PUSH1 0x15 SWAP1 JUMPDEST PUSH1 0x60 DUP2 MSTORE PUSH1 0x20 ADD SWAP1 PUSH1 0x1 SWAP1 SUB SWAP1 DUP2 PUSH2 0x1E06 JUMPI SWAP1 POP POP SWAP1 JUMP JUMPDEST PUSH1 0x40 MLOAD DUP1 PUSH2 0x2A0 ADD PUSH1 0x40 MSTORE DUP1 PUSH1 0x15 SWAP1 PUSH1 0x20 DUP3 MUL DUP1 CALLDATASIZE DUP4 CALLDATACOPY DUP1 DUP3 ADD SWAP2 POP POP SWAP1 POP POP SWAP1 JUMP JUMPDEST PUSH0 PUSH1 0x40 MLOAD SWAP1 POP SWAP1 JUMP JUMPDEST PUSH0 DUP1 REVERT JUMPDEST PUSH0 DUP1 REVERT JUMPDEST PUSH0 PUSH20 0xFFFFFFFFFFFFFFFFFFFFFFFFFFFFFFFFFFFFFFFF DUP3 AND SWAP1 POP SWAP2 SWAP1 POP JUMP JUMPDEST PUSH0 PUSH2 0x1E7B DUP3 PUSH2 0x1E52 JUMP JUMPDEST SWAP1 POP SWAP2 SWAP1 POP JUMP JUMPDEST PUSH2 0x1E8B DUP2 PUSH2 0x1E71 JUMP JUMPDEST DUP2 EQ PUSH2 0x1E95 JUMPI PUSH0 DUP1 REVERT JUMPDEST POP JUMP JUMPDEST PUSH0 DUP2 CALLDATALOAD SWAP1 POP PUSH2 0x1EA6 DUP2 PUSH2 0x1E82 JUMP JUMPDEST SWAP3 SWAP2 POP POP JUMP JUMPDEST PUSH0 PUSH1 0x20 DUP3 DUP5 SUB SLT ISZERO PUSH2 0x1EC1 JUMPI PUSH2 0x1EC0 PUSH2 0x1E4A JUMP JUMPDEST JUMPDEST PUSH0 PUSH2 0x1ECE DUP5 DUP3 DUP6 ADD PUSH2 0x1E98 JUMP JUMPDEST SWAP2 POP POP SWAP3 SWAP2 POP POP JUMP JUMPDEST PUSH0 DUP2 SWAP1 POP SWAP2 SWAP1 POP JUMP JUMPDEST PUSH2 0x1EE9 DUP2 PUSH2 0x1ED7 JUMP JUMPDEST DUP3 MSTORE POP POP JUMP JUMPDEST PUSH0 PUSH1 0x20 DUP3 ADD SWAP1 POP PUSH2 0x1F02 PUSH0 DUP4 ADD DUP5 PUSH2 0x1EE0 JUMP JUMPDEST SWAP3 SWAP2 POP POP JUMP JUMPDEST PUSH0 DUP2 MLOAD SWAP1 POP SWAP2 SWAP1 POP JUMP JUMPDEST PUSH0 DUP3 DUP3 MSTORE PUSH1 0x20 DUP3 ADD SWAP1 POP SWAP3 SWAP2 POP POP JUMP JUMPDEST PUSH0 DUP2 SWAP1 POP PUSH1 0x20 DUP3 ADD SWAP1 POP SWAP2 SWAP1 POP JUMP JUMPDEST PUSH2 0x1F3A DUP2 PUSH2 0x1E71 JUMP JUMPDEST DUP3 MSTORE POP POP JUMP JUMPDEST PUSH0 PUSH2 0x1F4B DUP4 DUP4 PUSH2 0x1F31 JUMP JUMPDEST PUSH1 0x20 DUP4 ADD SWAP1 POP SWAP3 SWAP2 POP POP JUMP JUMPDEST PUSH0 PUSH1 0x20 DUP3 ADD SWAP1 POP SWAP2 SWAP1 POP JUMP JUMPDEST PUSH0 PUSH2 0x1F6D DUP3 PUSH2 0x1F08 JUMP JUMPDEST PUSH2 0x1F77 DUP2 DUP6 PUSH2 0x1F12 JUMP JUMPDEST SWAP4 POP PUSH2 0x1F82 DUP4 PUSH2 0x1F22 JUMP JUMPDEST DUP1 PUSH0 JUMPDEST DUP4 DUP2 LT ISZERO PUSH2 0x1FB2 JUMPI DUP2 MLOAD PUSH2 0x1F99 DUP9 DUP3 PUSH2 0x1F40 JUMP JUMPDEST SWAP8 POP PUSH2 0x1FA4 DUP4 PUSH2 0x1F57 JUMP JUMPDEST SWAP3 POP POP PUSH1 0x1 DUP2 ADD SWAP1 POP PUSH2 0x1F85 JUMP JUMPDEST POP DUP6 SWAP4 POP POP POP POP SWAP3 SWAP2 POP POP JUMP JUMPDEST PUSH0 PUSH1 0x20 DUP3 ADD SWAP1 POP DUP2 DUP2 SUB PUSH0 DUP4 ADD MSTORE PUSH2 0x1FD7 DUP2 DUP5 PUSH2 0x1F63 JUMP JUMPDEST SWAP1 POP SWAP3 SWAP2 POP POP JUMP JUMPDEST PUSH2 0x1FE8 DUP2 PUSH2 0x1ED7 JUMP JUMPDEST DUP2 EQ PUSH2 0x1FF2 JUMPI PUSH0 DUP1 REVERT JUMPDEST POP JUMP JUMPDEST PUSH0 DUP2 CALLDATALOAD SWAP1 POP PUSH2 0x2003 DUP2 PUSH2 0x1FDF JUMP JUMPDEST SWAP3 SWAP2 POP POP JUMP JUMPDEST PUSH0 DUP1 REVERT JUMPDEST PUSH0 DUP1 REVERT JUMPDEST PUSH0 PUSH1 0x1F NOT PUSH1 0x1F DUP4 ADD AND SWAP1 POP SWAP2 SWAP1 POP JUMP JUMPDEST PUSH32 0x4E487B7100000000000000000000000000000000000000000000000000000000 PUSH0 MSTORE PUSH1 0x41 PUSH1 0x4 MSTORE PUSH1 0x24 PUSH0 REVERT JUMPDEST PUSH2 0x2057 DUP3 PUSH2 0x2011 JUMP JUMPDEST DUP2 ADD DUP2 DUP2 LT PUSH8 0xFFFFFFFFFFFFFFFF DUP3 GT OR ISZERO PUSH2 0x2076 JUMPI PUSH2 0x2075 PUSH2 0x2021 JUMP JUMPDEST JUMPDEST DUP1 PUSH1 0x40 MSTORE POP POP POP JUMP JUMPDEST PUSH0 PUSH2 0x2088 PUSH2 0x1E41 JUMP JUMPDEST SWAP1 POP PUSH2 0x2094 DUP3 DUP3 PUSH2 0x204E JUMP JUMPDEST SWAP2 SWAP1 POP JUMP JUMPDEST PUSH0 PUSH8 0xFFFFFFFFFFFFFFFF DUP3 GT ISZERO PUSH2 0x20B3 JUMPI PUSH2 0x20B2 PUSH2 0x2021 JUMP JUMPDEST JUMPDEST PUSH2 0x20BC DUP3 PUSH2 0x2011 JUMP JUMPDEST SWAP1 POP PUSH1 0x20 DUP2 ADD SWAP1 POP SWAP2 SWAP1 POP JUMP JUMPDEST DUP3 DUP2 DUP4 CALLDATACOPY PUSH0 DUP4 DUP4 ADD MSTORE POP POP POP JUMP JUMPDEST PUSH0 PUSH2 0x20E9 PUSH2 0x20E4 DUP5 PUSH2 0x2099 JUMP JUMPDEST PUSH2 0x207F JUMP JUMPDEST SWAP1 POP DUP3 DUP2 MSTORE PUSH1 0x20 DUP2 ADD DUP5 DUP5 DUP5 ADD GT ISZERO PUSH2 0x2105 JUMPI PUSH2 0x2104 PUSH2 0x200D JUMP JUMPDEST JUMPDEST PUSH2 0x2110 DUP5 DUP3 DUP6 PUSH2 0x20C9 JUMP JUMPDEST POP SWAP4 SWAP3 POP POP POP JUMP JUMPDEST PUSH0 DUP3 PUSH1 0x1F DUP4 ADD SLT PUSH2 0x212C JUMPI PUSH2 0x212B PUSH2 0x2009 JUMP JUMPDEST JUMPDEST DUP2 CALLDATALOAD PUSH2 0x213C DUP5 DUP3 PUSH1 0x20 DUP7 ADD PUSH2 0x20D7 JUMP JUMPDEST SWAP2 POP POP SWAP3 SWAP2 POP POP JUMP JUMPDEST PUSH0 DUP1 PUSH0 DUP1 PUSH1 0x80 DUP6 DUP8 SUB SLT ISZERO PUSH2 0x215D JUMPI PUSH2 0x215C PUSH2 0x1E4A JUMP JUMPDEST JUMPDEST PUSH0 PUSH2 0x216A DUP8 DUP3 DUP9 ADD PUSH2 0x1FF5 JUMP JUMPDEST SWAP5 POP POP PUSH1 0x20 DUP6 ADD CALLDATALOAD PUSH8 0xFFFFFFFFFFFFFFFF DUP2 GT ISZERO PUSH2 0x218B JUMPI PUSH2 0x218A PUSH2 0x1E4E JUMP JUMPDEST JUMPDEST PUSH2 0x2197 DUP8 DUP3 DUP9 ADD PUSH2 0x2118 JUMP JUMPDEST SWAP4 POP POP PUSH1 0x40 DUP6 ADD CALLDATALOAD PUSH8 0xFFFFFFFFFFFFFFFF DUP2 GT ISZERO PUSH2 0x21B8 JUMPI PUSH2 0x21B7 PUSH2 0x1E4E JUMP JUMPDEST JUMPDEST PUSH2 0x21C4 DUP8 DUP3 DUP9 ADD PUSH2 0x2118 JUMP JUMPDEST SWAP3 POP POP PUSH1 0x60 DUP6 ADD CALLDATALOAD PUSH8 0xFFFFFFFFFFFFFFFF DUP2 GT ISZERO PUSH2 0x21E5 JUMPI PUSH2 0x21E4 PUSH2 0x1E4E JUMP JUMPDEST JUMPDEST PUSH2 0x21F1 DUP8 DUP3 DUP9 ADD PUSH2 0x2118 JUMP JUMPDEST SWAP2 POP POP SWAP3 SWAP6 SWAP2 SWAP5 POP SWAP3 POP JUMP JUMPDEST PUSH0 PUSH1 0x15 SWAP1 POP SWAP2 SWAP1 POP JUMP JUMPDEST PUSH0 DUP2 SWAP1 POP SWAP3 SWAP2 POP POP JUMP JUMPDEST PUSH0 DUP2 SWAP1 POP SWAP2 SWAP1 POP JUMP JUMPDEST PUSH0 DUP2 MLOAD SWAP1 POP SWAP2 SWAP1 POP JUMP JUMPDEST PUSH0 DUP3 DUP3 MSTORE PUSH1 0x20 DUP3 ADD SWAP1 POP SWAP3 SWAP2 POP POP JUMP JUMPDEST DUP3 DUP2 DUP4 MCOPY PUSH0 DUP4 DUP4 ADD MSTORE POP POP POP JUMP JUMPDEST PUSH0 PUSH2 0x224C DUP3 PUSH2 0x221A JUMP JUMPDEST PUSH2 0x2256 DUP2 DUP6 PUSH2 0x2224 JUMP JUMPDEST SWAP4 POP PUSH2 0x2266 DUP2 DUP6 PUSH1 0x20 DUP7 ADD PUSH2 0x2234 JUMP JUMPDEST PUSH2 0x226F DUP2 PUSH2 0x2011 JUMP JUMPDEST DUP5 ADD SWAP2 POP POP SWAP3 SWAP2 POP POP JUMP JUMPDEST PUSH0 PUSH2 0x2285 DUP4 DUP4 PUSH2 0x2242 JUMP JUMPDEST SWAP1 POP SWAP3 SWAP2 POP POP JUMP JUMPDEST PUSH0 PUSH1 0x20 DUP3 ADD SWAP1 POP SWAP2 SWAP1 POP JUMP JUMPDEST PUSH0 PUSH2 0x22A3 DUP3 PUSH2 0x21FD JUMP JUMPDEST PUSH2 0x22AD DUP2 DUP6 PUSH2 0x2207 JUMP JUMPDEST SWAP4 POP DUP4 PUSH1 0x20 DUP3 MUL DUP6 ADD PUSH2 0x22BF DUP6 PUSH2 0x2211 JUMP JUMPDEST DUP1 PUSH0 JUMPDEST DUP6 DUP2 LT ISZERO PUSH2 0x22FA JUMPI DUP5 DUP5 SUB DUP10 MSTORE DUP2 MLOAD PUSH2 0x22DB DUP6 DUP3 PUSH2 0x227A JUMP JUMPDEST SWAP5 POP PUSH2 0x22E6 DUP4 PUSH2 0x228D JUMP JUMPDEST SWAP3 POP PUSH1 0x20 DUP11 ADD SWAP10 POP POP PUSH1 0x1 DUP2 ADD SWAP1 POP PUSH2 0x22C2 JUMP JUMPDEST POP DUP3 SWAP8 POP DUP8 SWAP6 POP POP POP POP POP POP SWAP3 SWAP2 POP POP JUMP JUMPDEST PUSH0 PUSH1 0x20 DUP3 ADD SWAP1 POP DUP2 DUP2 SUB PUSH0 DUP4 ADD MSTORE PUSH2 0x2324 DUP2 DUP5 PUSH2 0x2299 JUMP JUMPDEST SWAP1 POP SWAP3 SWAP2 POP POP JUMP JUMPDEST PUSH0 PUSH1 0x15 SWAP1 POP SWAP2 SWAP1 POP JUMP JUMPDEST PUSH0 DUP2 SWAP1 POP SWAP3 SWAP2 POP POP JUMP JUMPDEST PUSH0 DUP2 SWAP1 POP SWAP2 SWAP1 POP JUMP JUMPDEST PUSH0 PUSH1 0x20 DUP3 ADD SWAP1 POP SWAP2 SWAP1 POP JUMP JUMPDEST PUSH2 0x235E DUP2 PUSH2 0x232C JUMP JUMPDEST PUSH2 0x2368 DUP2 DUP5 PUSH2 0x2336 JUMP JUMPDEST SWAP3 POP PUSH2 0x2373 DUP3 PUSH2 0x2340 JUMP JUMPDEST DUP1 PUSH0 JUMPDEST DUP4 DUP2 LT ISZERO PUSH2 0x23A3 JUMPI DUP2 MLOAD PUSH2 0x238A DUP8 DUP3 PUSH2 0x1F40 JUMP JUMPDEST SWAP7 POP PUSH2 0x2395 DUP4 PUSH2 0x2349 JUMP JUMPDEST SWAP3 POP POP PUSH1 0x1 DUP2 ADD SWAP1 POP PUSH2 0x2376 JUMP JUMPDEST POP POP POP POP POP POP JUMP JUMPDEST PUSH0 PUSH2 0x2A0 DUP3 ADD SWAP1 POP PUSH2 0x23BF PUSH0 DUP4 ADD DUP5 PUSH2 0x2355 JUMP JUMPDEST SWAP3 SWAP2 POP POP JUMP JUMPDEST PUSH0 PUSH8 0xFFFFFFFFFFFFFFFF DUP3 GT ISZERO PUSH2 0x23DF JUMPI PUSH2 0x23DE PUSH2 0x2021 JUMP JUMPDEST JUMPDEST PUSH1 0x20 DUP3 MUL SWAP1 POP PUSH1 0x20 DUP2 ADD SWAP1 POP SWAP2 SWAP1 POP JUMP JUMPDEST PUSH0 DUP1 REVERT JUMPDEST PUSH0 PUSH2 0x2406 PUSH2 0x2401 DUP5 PUSH2 0x23C5 JUMP JUMPDEST PUSH2 0x207F JUMP JUMPDEST SWAP1 POP DUP1 DUP4 DUP3 MSTORE PUSH1 0x20 DUP3 ADD SWAP1 POP PUSH1 0x20 DUP5 MUL DUP4 ADD DUP6 DUP2 GT ISZERO PUSH2 0x2429 JUMPI PUSH2 0x2428 PUSH2 0x23F0 JUMP JUMPDEST JUMPDEST DUP4 JUMPDEST DUP2 DUP2 LT ISZERO PUSH2 0x2452 JUMPI DUP1 PUSH2 0x243E DUP9 DUP3 PUSH2 0x1E98 JUMP JUMPDEST DUP5 MSTORE PUSH1 0x20 DUP5 ADD SWAP4 POP POP PUSH1 0x20 DUP2 ADD SWAP1 POP PUSH2 0x242B JUMP JUMPDEST POP POP POP SWAP4 SWAP3 POP POP POP JUMP JUMPDEST PUSH0 DUP3 PUSH1 0x1F DUP4 ADD SLT PUSH2 0x2470 JUMPI PUSH2 0x246F PUSH2 0x2009 JUMP JUMPDEST JUMPDEST DUP2 CALLDATALOAD PUSH2 0x2480 DUP5 DUP3 PUSH1 0x20 DUP7 ADD PUSH2 0x23F4 JUMP JUMPDEST SWAP2 POP POP SWAP3 SWAP2 POP POP JUMP JUMPDEST PUSH0 DUP1 PUSH1 0x40 DUP4 DUP6 SUB SLT ISZERO PUSH2 0x249F JUMPI PUSH2 0x249E PUSH2 0x1E4A JUMP JUMPDEST JUMPDEST PUSH0 PUSH2 0x24AC DUP6 DUP3 DUP7 ADD PUSH2 0x1E98 JUMP JUMPDEST SWAP3 POP POP PUSH1 0x20 DUP4 ADD CALLDATALOAD PUSH8 0xFFFFFFFFFFFFFFFF DUP2 GT ISZERO PUSH2 0x24CD JUMPI PUSH2 0x24CC PUSH2 0x1E4E JUMP JUMPDEST JUMPDEST PUSH2 0x24D9 DUP6 DUP3 DUP7 ADD PUSH2 0x245C JUMP JUMPDEST SWAP2 POP POP SWAP3 POP SWAP3 SWAP1 POP JUMP JUMPDEST PUSH0 DUP2 ISZERO ISZERO SWAP1 POP SWAP2 SWAP1 POP JUMP JUMPDEST PUSH2 0x24F7 DUP2 PUSH2 0x24E3 JUMP JUMPDEST DUP3 MSTORE POP POP JUMP JUMPDEST PUSH0 PUSH1 0x20 DUP3 ADD SWAP1 POP PUSH2 0x2510 PUSH0 DUP4 ADD DUP5 PUSH2 0x24EE JUMP JUMPDEST SWAP3 SWAP2 POP POP JUMP JUMPDEST PUSH0 DUP2 MLOAD SWAP1 POP SWAP2 SWAP1 POP JUMP JUMPDEST PUSH0 DUP3 DUP3 MSTORE PUSH1 0x20 DUP3 ADD SWAP1 POP SWAP3 SWAP2 POP POP JUMP JUMPDEST PUSH0 DUP2 SWAP1 POP PUSH1 0x20 DUP3 ADD SWAP1 POP SWAP2 SWAP1 POP JUMP JUMPDEST PUSH0 PUSH1 0x20 DUP3 ADD SWAP1 POP SWAP2 SWAP1 POP JUMP JUMPDEST PUSH0 PUSH2 0x2555 DUP3 PUSH2 0x2516 JUMP JUMPDEST PUSH2 0x255F DUP2 DUP6 PUSH2 0x2520 JUMP JUMPDEST SWAP4 POP DUP4 PUSH1 0x20 DUP3 MUL DUP6 ADD PUSH2 0x2571 DUP6 PUSH2 0x2530 JUMP JUMPDEST DUP1 PUSH0 JUMPDEST DUP6 DUP2 LT ISZERO PUSH2 0x25AC JUMPI DUP5 DUP5 SUB DUP10 MSTORE DUP2 MLOAD PUSH2 0x258D DUP6 DUP3 PUSH2 0x227A JUMP JUMPDEST SWAP5 POP PUSH2 0x2598 DUP4 PUSH2 0x253F JUMP JUMPDEST SWAP3 POP PUSH1 0x20 DUP11 ADD SWAP10 POP POP PUSH1 0x1 DUP2 ADD SWAP1 POP PUSH2 0x2574 JUMP JUMPDEST POP DUP3 SWAP8 POP DUP8 SWAP6 POP POP POP POP POP POP SWAP3 SWAP2 POP POP JUMP JUMPDEST PUSH0 PUSH1 0x20 DUP3 ADD SWAP1 POP DUP2 DUP2 SUB PUSH0 DUP4 ADD MSTORE PUSH2 0x25D6 DUP2 DUP5 PUSH2 0x254B JUMP JUMPDEST SWAP1 POP SWAP3 SWAP2 POP POP JUMP JUMPDEST PUSH32 0x4E487B7100000000000000000000000000000000000000000000000000000000 PUSH0 MSTORE PUSH1 0x12 PUSH1 0x4 MSTORE PUSH1 0x24 PUSH0 REVERT JUMPDEST PUSH32 0x4E487B7100000000000000000000000000000000000000000000000000000000 PUSH0 MSTORE PUSH1 0x11 PUSH1 0x4 MSTORE PUSH1 0x24 PUSH0 REVERT JUMPDEST PUSH0 PUSH2 0x2642 DUP3 PUSH2 0x1ED7 JUMP JUMPDEST SWAP2 POP PUSH2 0x264D DUP4 PUSH2 0x1ED7 JUMP JUMPDEST SWAP3 POP DUP3 PUSH2 0x265D JUMPI PUSH2 0x265C PUSH2 0x25DE JUMP JUMPDEST JUMPDEST DUP3 DUP3 DIV SWAP1 POP SWAP3 SWAP2 POP POP JUMP JUMPDEST PUSH32 0x4E487B7100000000000000000000000000000000000000000000000000000000 PUSH0 MSTORE PUSH1 0x22 PUSH1 0x4 MSTORE PUSH1 0x24 PUSH0 REVERT JUMPDEST PUSH0 PUSH1 0x2 DUP3 DIV SWAP1 POP PUSH1 0x1 DUP3 AND DUP1 PUSH2 0x26AC JUMPI PUSH1 0x7F DUP3 AND SWAP2 POP JUMPDEST PUSH1 0x20 DUP3 LT DUP2 SUB PUSH2 0x26BF JUMPI PUSH2 0x26BE PUSH2 0x2668 JUMP JUMPDEST JUMPDEST POP SWAP2 SWAP1 POP JUMP JUMPDEST PUSH0 DUP3 DUP3 MSTORE PUSH1 0x20 DUP3 ADD SWAP1 POP SWAP3 SWAP2 POP POP JUMP JUMPDEST PUSH32 0x6F6E6C79206F776E6572206F662061207469657220332B20736C6F742063616E PUSH0 DUP3 ADD MSTORE PUSH32 0x2070696E67000000000000000000000000000000000000000000000000000000 PUSH1 0x20 DUP3 ADD MSTORE POP JUMP JUMPDEST PUSH0 PUSH2 0x272F PUSH1 0x25 DUP4 PUSH2 0x26C5 JUMP JUMPDEST SWAP2 POP PUSH2 0x273A DUP3 PUSH2 0x26D5 JUMP JUMPDEST PUSH1 0x40 DUP3 ADD SWAP1 POP SWAP2 SWAP1 POP JUMP JUMPDEST PUSH0 PUSH1 0x20 DUP3 ADD SWAP1 POP DUP2 DUP2 SUB PUSH0 DUP4 ADD MSTORE PUSH2 0x275C DUP2 PUSH2 0x2723 JUMP JUMPDEST SWAP1 POP SWAP2 SWAP1 POP JUMP JUMPDEST PUSH32 0x6F6E6C79206F776E6572206F662061207469657220322B20736C6F742063616E PUSH0 DUP3 ADD MSTORE PUSH32 0x2062652070696E67656400000000000000000000000000000000000000000000 PUSH1 0x20 DUP3 ADD MSTORE POP JUMP JUMPDEST PUSH0 PUSH2 0x27BD PUSH1 0x2A DUP4 PUSH2 0x26C5 JUMP JUMPDEST SWAP2 POP PUSH2 0x27C8 DUP3 PUSH2 0x2763 JUMP JUMPDEST PUSH1 0x40 DUP3 ADD SWAP1 POP SWAP2 SWAP1 POP JUMP JUMPDEST PUSH0 PUSH1 0x20 DUP3 ADD SWAP1 POP DUP2 DUP2 SUB PUSH0 DUP4 ADD MSTORE PUSH2 0x27EA DUP2 PUSH2 0x27B1 JUMP JUMPDEST SWAP1 POP SWAP2 SWAP1 POP JUMP JUMPDEST PUSH32 0x796F75206861766520616C72656164792070696E676564207468697320616464 PUSH0 DUP3 ADD MSTORE PUSH32 0x7265737300000000000000000000000000000000000000000000000000000000 PUSH1 0x20 DUP3 ADD MSTORE POP JUMP JUMPDEST PUSH0 PUSH2 0x284B PUSH1 0x24 DUP4 PUSH2 0x26C5 JUMP JUMPDEST SWAP2 POP PUSH2 0x2856 DUP3 PUSH2 0x27F1 JUMP JUMPDEST PUSH1 0x40 DUP3 ADD SWAP1 POP SWAP2 SWAP1 POP JUMP JUMPDEST PUSH0 PUSH1 0x20 DUP3 ADD SWAP1 POP DUP2 DUP2 SUB PUSH0 DUP4 ADD MSTORE PUSH2 0x2878 DUP2 PUSH2 0x283F JUMP JUMPDEST SWAP1 POP SWAP2 SWAP1 POP JUMP JUMPDEST PUSH0 DUP2 SWAP1 POP DUP2 PUSH0 MSTORE PUSH1 0x20 PUSH0 KECCAK256 SWAP1 POP SWAP2 SWAP1 POP JUMP JUMPDEST PUSH0 PUSH1 0x20 PUSH1 0x1F DUP4 ADD DIV SWAP1 POP SWAP2 SWAP1 POP JUMP JUMPDEST PUSH0 DUP3 DUP3 SHL SWAP1 POP SWAP3 SWAP2 POP POP JUMP JUMPDEST PUSH0 PUSH1 0x8 DUP4 MUL PUSH2 0x28DB PUSH32 0xFFFFFFFFFFFFFFFFFFFFFFFFFFFFFFFFFFFFFFFFFFFFFFFFFFFFFFFFFFFFFFFF DUP3 PUSH2 0x28A0 JUMP JUMPDEST PUSH2 0x28E5 DUP7 DUP4 PUSH2 0x28A0 JUMP JUMPDEST SWAP6 POP DUP1 NOT DUP5 AND SWAP4 POP DUP1 DUP7 AND DUP5 OR SWAP3 POP POP POP SWAP4 SWAP3 POP POP POP JUMP JUMPDEST PUSH0 DUP2 SWAP1 POP SWAP2 SWAP1 POP JUMP JUMPDEST PUSH0 PUSH2 0x2920 PUSH2 0x291B PUSH2 0x2916 DUP5 PUSH2 0x1ED7 JUMP JUMPDEST PUSH2 0x28FD JUMP JUMPDEST PUSH2 0x1ED7 JUMP JUMPDEST SWAP1 POP SWAP2 SWAP1 POP JUMP JUMPDEST PUSH0 DUP2 SWAP1 POP SWAP2 SWAP1 POP JUMP JUMPDEST PUSH2 0x2939 DUP4 PUSH2 0x2906 JUMP JUMPDEST PUSH2 0x294D PUSH2 0x2945 DUP3 PUSH2 0x2927 JUMP JUMPDEST DUP5 DUP5 SLOAD PUSH2 0x28AC JUMP JUMPDEST DUP3 SSTORE POP POP POP POP JUMP JUMPDEST PUSH0 SWAP1 JUMP JUMPDEST PUSH2 0x2961 PUSH2 0x2955 JUMP JUMPDEST PUSH2 0x296C DUP2 DUP5 DUP5 PUSH2 0x2930 JUMP JUMPDEST POP POP POP JUMP JUMPDEST JUMPDEST DUP2 DUP2 LT ISZERO PUSH2 0x298F JUMPI PUSH2 0x2984 PUSH0 DUP3 PUSH2 0x2959 JUMP JUMPDEST PUSH1 0x1 DUP2 ADD SWAP1 POP PUSH2 0x2972 JUMP JUMPDEST POP POP JUMP JUMPDEST PUSH1 0x1F DUP3 GT ISZERO PUSH2 0x29D4 JUMPI PUSH2 0x29A5 DUP2 PUSH2 0x287F JUMP JUMPDEST PUSH2 0x29AE DUP5 PUSH2 0x2891 JUMP JUMPDEST DUP2 ADD PUSH1 0x20 DUP6 LT ISZERO PUSH2 0x29BD JUMPI DUP2 SWAP1 POP JUMPDEST PUSH2 0x29D1 PUSH2 0x29C9 DUP6 PUSH2 0x2891 JUMP JUMPDEST DUP4 ADD DUP3 PUSH2 0x2971 JUMP JUMPDEST POP POP JUMPDEST POP POP POP JUMP JUMPDEST PUSH0 DUP3 DUP3 SHR SWAP1 POP SWAP3 SWAP2 POP POP JUMP JUMPDEST PUSH0 PUSH2 0x29F4 PUSH0 NOT DUP5 PUSH1 0x8 MUL PUSH2 0x29D9 JUMP JUMPDEST NOT DUP1 DUP4 AND SWAP2 POP POP SWAP3 SWAP2 POP POP JUMP JUMPDEST PUSH0 PUSH2 0x2A0C DUP4 DUP4 PUSH2 0x29E5 JUMP JUMPDEST SWAP2 POP DUP3 PUSH1 0x2 MUL DUP3 OR SWAP1 POP SWAP3 SWAP2 POP POP JUMP JUMPDEST PUSH2 0x2A25 DUP3 PUSH2 0x221A JUMP JUMPDEST PUSH8 0xFFFFFFFFFFFFFFFF DUP2 GT ISZERO PUSH2 0x2A3E JUMPI PUSH2 0x2A3D PUSH2 0x2021 JUMP JUMPDEST JUMPDEST PUSH2 0x2A48 DUP3 SLOAD PUSH2 0x2695 JUMP JUMPDEST PUSH2 0x2A53 DUP3 DUP3 DUP6 PUSH2 0x2993 JUMP JUMPDEST PUSH0 PUSH1 0x20 SWAP1 POP PUSH1 0x1F DUP4 GT PUSH1 0x1 DUP2 EQ PUSH2 0x2A84 JUMPI PUSH0 DUP5 ISZERO PUSH2 0x2A72 JUMPI DUP3 DUP8 ADD MLOAD SWAP1 POP JUMPDEST PUSH2 0x2A7C DUP6 DUP3 PUSH2 0x2A01 JUMP JUMPDEST DUP7 SSTORE POP PUSH2 0x2AE3 JUMP JUMPDEST PUSH1 0x1F NOT DUP5 AND PUSH2 0x2A92 DUP7 PUSH2 0x287F JUMP JUMPDEST PUSH0 JUMPDEST DUP3 DUP2 LT ISZERO PUSH2 0x2AB9 JUMPI DUP5 DUP10 ADD MLOAD DUP3 SSTORE PUSH1 0x1 DUP3 ADD SWAP2 POP PUSH1 0x20 DUP6 ADD SWAP5 POP PUSH1 0x20 DUP2 ADD SWAP1 POP PUSH2 0x2A94 JUMP JUMPDEST DUP7 DUP4 LT ISZERO PUSH2 0x2AD6 JUMPI DUP5 DUP10 ADD MLOAD PUSH2 0x2AD2 PUSH1 0x1F DUP10 AND DUP3 PUSH2 0x29E5 JUMP JUMPDEST DUP4 SSTORE POP JUMPDEST PUSH1 0x1 PUSH1 0x2 DUP9 MUL ADD DUP9 SSTORE POP POP POP JUMPDEST POP POP POP POP POP POP JUMP JUMPDEST PUSH0 PUSH2 0x2AF5 DUP3 PUSH2 0x1ED7 JUMP JUMPDEST SWAP2 POP PUSH2 0x2B00 DUP4 PUSH2 0x1ED7 JUMP JUMPDEST SWAP3 POP DUP3 DUP3 ADD SWAP1 POP DUP1 DUP3 GT ISZERO PUSH2 0x2B18 JUMPI PUSH2 0x2B17 PUSH2 0x260B JUMP JUMPDEST JUMPDEST SWAP3 SWAP2 POP POP JUMP JUMPDEST PUSH0 PUSH2 0x2B28 DUP3 PUSH2 0x1ED7 JUMP JUMPDEST SWAP2 POP PUSH2 0x2B33 DUP4 PUSH2 0x1ED7 JUMP JUMPDEST SWAP3 POP DUP3 DUP3 SUB SWAP1 POP DUP2 DUP2 GT ISZERO PUSH2 0x2B4B JUMPI PUSH2 0x2B4A PUSH2 0x260B JUMP JUMPDEST JUMPDEST SWAP3 SWAP2 POP POP JUMP JUMPDEST PUSH0 PUSH2 0x2B5B DUP3 PUSH2 0x1ED7 JUMP JUMPDEST SWAP2 POP PUSH2 0x2B66 DUP4 PUSH2 0x1ED7 JUMP JUMPDEST SWAP3 POP DUP3 DUP3 MUL PUSH2 0x2B74 DUP2 PUSH2 0x1ED7 JUMP JUMPDEST SWAP2 POP DUP3 DUP3 DIV DUP5 EQ DUP4 ISZERO OR PUSH2 0x2B8B JUMPI PUSH2 0x2B8A PUSH2 0x260B JUMP JUMPDEST JUMPDEST POP SWAP3 SWAP2 POP POP JUMP JUMPDEST PUSH32 0x796F75206E6F206C6F6E67657220686176652061207469657220322B20737562 PUSH0 DUP3 ADD MSTORE PUSH32 0x736372697074696F6E0000000000000000000000000000000000000000000000 PUSH1 0x20 DUP3 ADD MSTORE POP JUMP JUMPDEST PUSH0 PUSH2 0x2BEC PUSH1 0x29 DUP4 PUSH2 0x26C5 JUMP JUMPDEST SWAP2 POP PUSH2 0x2BF7 DUP3 PUSH2 0x2B92 JUMP JUMPDEST PUSH1 0x40 DUP3 ADD SWAP1 POP SWAP2 SWAP1 POP JUMP JUMPDEST PUSH0 PUSH1 0x20 DUP3 ADD SWAP1 POP DUP2 DUP2 SUB PUSH0 DUP4 ADD MSTORE PUSH2 0x2C19 DUP2 PUSH2 0x2BE0 JUMP JUMPDEST SWAP1 POP SWAP2 SWAP1 POP JUMP JUMPDEST PUSH32 0x74686520736C6F74732073746172742066726F6D203100000000000000000000 PUSH0 DUP3 ADD MSTORE POP JUMP JUMPDEST PUSH0 PUSH2 0x2C54 PUSH1 0x16 DUP4 PUSH2 0x26C5 JUMP JUMPDEST SWAP2 POP PUSH2 0x2C5F DUP3 PUSH2 0x2C20 JUMP JUMPDEST PUSH1 0x20 DUP3 ADD SWAP1 POP SWAP2 SWAP1 POP JUMP JUMPDEST PUSH0 PUSH1 0x20 DUP3 ADD SWAP1 POP DUP2 DUP2 SUB PUSH0 DUP4 ADD MSTORE PUSH2 0x2C81 DUP2 PUSH2 0x2C48 JUMP JUMPDEST SWAP1 POP SWAP2 SWAP1 POP JUMP JUMPDEST PUSH32 0x77616C6C58612068617320323120736C6F7473206F6E6C790000000000000000 PUSH0 DUP3 ADD MSTORE POP JUMP JUMPDEST PUSH0 PUSH2 0x2CBC PUSH1 0x18 DUP4 PUSH2 0x26C5 JUMP JUMPDEST SWAP2 POP PUSH2 0x2CC7 DUP3 PUSH2 0x2C88 JUMP JUMPDEST PUSH1 0x20 DUP3 ADD SWAP1 POP SWAP2 SWAP1 POP JUMP JUMPDEST PUSH0 PUSH1 0x20 DUP3 ADD SWAP1 POP DUP2 DUP2 SUB PUSH0 DUP4 ADD MSTORE PUSH2 0x2CE9 DUP2 PUSH2 0x2CB0 JUMP JUMPDEST SWAP1 POP SWAP2 SWAP1 POP JUMP JUMPDEST PUSH32 0x6E6F7420656E6F75676820677765692061747461636865640000000000000000 PUSH0 DUP3 ADD MSTORE POP JUMP JUMPDEST PUSH0 PUSH2 0x2D24 PUSH1 0x18 DUP4 PUSH2 0x26C5 JUMP JUMPDEST SWAP2 POP PUSH2 0x2D2F DUP3 PUSH2 0x2CF0 JUMP JUMPDEST PUSH1 0x20 DUP3 ADD SWAP1 POP SWAP2 SWAP1 POP JUMP JUMPDEST PUSH0 PUSH1 0x20 DUP3 ADD SWAP1 POP DUP2 DUP2 SUB PUSH0 DUP4 ADD MSTORE PUSH2 0x2D51 DUP2 PUSH2 0x2D18 JUMP JUMPDEST SWAP1 POP SWAP2 SWAP1 POP JUMP JUMPDEST PUSH32 0x796F7520616C7265616479206F776E207468697320736C6F7400000000000000 PUSH0 DUP3 ADD MSTORE POP JUMP JUMPDEST PUSH0 PUSH2 0x2D8C PUSH1 0x19 DUP4 PUSH2 0x26C5 JUMP JUMPDEST SWAP2 POP PUSH2 0x2D97 DUP3 PUSH2 0x2D58 JUMP JUMPDEST PUSH1 0x20 DUP3 ADD SWAP1 POP SWAP2 SWAP1 POP JUMP JUMPDEST PUSH0 PUSH1 0x20 DUP3 ADD SWAP1 POP DUP2 DUP2 SUB PUSH0 DUP4 ADD MSTORE PUSH2 0x2DB9 DUP2 PUSH2 0x2D80 JUMP JUMPDEST SWAP1 POP SWAP2 SWAP1 POP JUMP JUMPDEST PUSH32 0x7468697320736C6F74206973207374696C6C20626F6F6B656421000000000000 PUSH0 DUP3 ADD MSTORE POP JUMP JUMPDEST PUSH0 PUSH2 0x2DF4 PUSH1 0x1A DUP4 PUSH2 0x26C5 JUMP JUMPDEST SWAP2 POP PUSH2 0x2DFF DUP3 PUSH2 0x2DC0 JUMP JUMPDEST PUSH1 0x20 DUP3 ADD SWAP1 POP SWAP2 SWAP1 POP JUMP JUMPDEST PUSH0 PUSH1 0x20 DUP3 ADD SWAP1 POP DUP2 DUP2 SUB PUSH0 DUP4 ADD MSTORE PUSH2 0x2E21 DUP2 PUSH2 0x2DE8 JUMP JUMPDEST SWAP1 POP SWAP2 SWAP1 POP JUMP JUMPDEST PUSH0 DUP2 MLOAD SWAP1 POP SWAP2 SWAP1 POP JUMP JUMPDEST PUSH0 DUP2 SWAP1 POP DUP2 PUSH0 MSTORE PUSH1 0x20 PUSH0 KECCAK256 SWAP1 POP SWAP2 SWAP1 POP JUMP JUMPDEST PUSH1 0x1F DUP3 GT ISZERO PUSH2 0x2E85 JUMPI PUSH2 0x2E56 DUP2 PUSH2 0x2E32 JUMP JUMPDEST PUSH2 0x2E5F DUP5 PUSH2 0x2891 JUMP JUMPDEST DUP2 ADD PUSH1 0x20 DUP6 LT ISZERO PUSH2 0x2E6E JUMPI DUP2 SWAP1 POP JUMPDEST PUSH2 0x2E82 PUSH2 0x2E7A DUP6 PUSH2 0x2891 JUMP JUMPDEST DUP4 ADD DUP3 PUSH2 0x2971 JUMP JUMPDEST POP POP JUMPDEST POP POP POP JUMP JUMPDEST PUSH2 0x2E93 DUP3 PUSH2 0x2E28 JUMP JUMPDEST PUSH8 0xFFFFFFFFFFFFFFFF DUP2 GT ISZERO PUSH2 0x2EAC JUMPI PUSH2 0x2EAB PUSH2 0x2021 JUMP JUMPDEST JUMPDEST PUSH2 0x2EB6 DUP3 SLOAD PUSH2 0x2695 JUMP JUMPDEST PUSH2 0x2EC1 DUP3 DUP3 DUP6 PUSH2 0x2E44 JUMP JUMPDEST PUSH0 PUSH1 0x20 SWAP1 POP PUSH1 0x1F DUP4 GT PUSH1 0x1 DUP2 EQ PUSH2 0x2EF2 JUMPI PUSH0 DUP5 ISZERO PUSH2 0x2EE0 JUMPI DUP3 DUP8 ADD MLOAD SWAP1 POP JUMPDEST PUSH2 0x2EEA DUP6 DUP3 PUSH2 0x2A01 JUMP JUMPDEST DUP7 SSTORE POP PUSH2 0x2F51 JUMP JUMPDEST PUSH1 0x1F NOT DUP5 AND PUSH2 0x2F00 DUP7 PUSH2 0x2E32 JUMP JUMPDEST PUSH0 JUMPDEST DUP3 DUP2 LT ISZERO PUSH2 0x2F27 JUMPI DUP5 DUP10 ADD MLOAD DUP3 SSTORE PUSH1 0x1 DUP3 ADD SWAP2 POP PUSH1 0x20 DUP6 ADD SWAP5 POP PUSH1 0x20 DUP2 ADD SWAP1 POP PUSH2 0x2F02 JUMP JUMPDEST DUP7 DUP4 LT ISZERO PUSH2 0x2F44 JUMPI DUP5 DUP10 ADD MLOAD PUSH2 0x2F40 PUSH1 0x1F DUP10 AND DUP3 PUSH2 0x29E5 JUMP JUMPDEST DUP4 SSTORE POP JUMPDEST PUSH1 0x1 PUSH1 0x2 DUP9 MUL ADD DUP9 SSTORE POP POP POP JUMPDEST POP POP POP POP POP POP JUMP JUMPDEST PUSH32 0x4E487B7100000000000000000000000000000000000000000000000000000000 PUSH0 MSTORE PUSH1 0x32 PUSH1 0x4 MSTORE PUSH1 0x24 PUSH0 REVERT INVALID LOG2 PUSH5 0x6970667358 0x22 SLT KECCAK256 0xB0 PUSH7 0xF492DEB57EF7E2 0xC9 0xE1 SWAP2 PUSH22 0xF711446995AC13F4BDECF55AC05A93BDE1135C64736F PUSH13 0x634300081A0033000000000000 "
		},
		"gasEstimates": {
			"creation": {
				"codeDepositCost": "2444000",
				"executionCost": "infinite",
				"totalCost": "infinite"
			},
			"external": {
				"exists(address,address[])": "infinite",
				"fetch_max_tier()": "infinite",
				"fetch_ping_names()": "infinite",
				"fetch_pings()": "infinite",
				"ping(address)": "infinite",
				"rent(uint256,string,string,string)": "infinite",
				"retrieve_acitve_owners()": "infinite",
				"retrieve_active_names()": "infinite",
				"retrieve_active_pics()": "infinite",
				"retrieve_active_urls()": "infinite",
				"retrieve_base_price()": "infinite"
			}
		},
		"methodIdentifiers": {
			"exists(address,address[])": "b2f897f7",
			"fetch_max_tier()": "595d0b77",
			"fetch_ping_names()": "e3ad2cf6",
			"fetch_pings()": "62467967",
			"ping(address)": "14df9e43",
			"rent(uint256,string,string,string)": "6d2968de",
			"retrieve_acitve_owners()": "91d33dea",
			"retrieve_active_names()": "886a9416",
			"retrieve_active_pics()": "a668b28f",
			"retrieve_active_urls()": "7e01395b",
			"retrieve_base_price()": "598c4648"
		}
	},
	"abi": [
		{
			"inputs": [
				{
					"internalType": "address",
					"name": "add",
					"type": "address"
				},
				{
					"internalType": "address[]",
					"name": "addresses",
					"type": "address[]"
				}
			],
			"name": "exists",
			"outputs": [
				{
					"internalType": "bool",
					"name": "",
					"type": "bool"
				}
			],
			"stateMutability": "pure",
			"type": "function"
		},
		{
			"inputs": [],
			"name": "fetch_max_tier",
			"outputs": [
				{
					"internalType": "uint256",
					"name": "",
					"type": "uint256"
				}
			],
			"stateMutability": "view",
			"type": "function"
		},
		{
			"inputs": [],
			"name": "fetch_ping_names",
			"outputs": [
				{
					"internalType": "string[]",
					"name": "",
					"type": "string[]"
				}
			],
			"stateMutability": "view",
			"type": "function"
		},
		{
			"inputs": [],
			"name": "fetch_pings",
			"outputs": [
				{
					"internalType": "address[]",
					"name": "",
					"type": "address[]"
				}
			],
			"stateMutability": "view",
			"type": "function"
		},
		{
			"inputs": [
				{
					"internalType": "address",
					"name": "recipient",
					"type": "address"
				}
			],
			"name": "ping",
			"outputs": [],
			"stateMutability": "nonpayable",
			"type": "function"
		},
		{
			"inputs": [
				{
					"internalType": "uint256",
					"name": "num",
					"type": "uint256"
				},
				{
					"internalType": "string",
					"name": "title",
					"type": "string"
				},
				{
					"internalType": "string",
					"name": "link",
					"type": "string"
				},
				{
					"internalType": "string",
					"name": "pc",
					"type": "string"
				}
			],
			"name": "rent",
			"outputs": [],
			"stateMutability": "payable",
			"type": "function"
		},
		{
			"inputs": [],
			"name": "retrieve_acitve_owners",
			"outputs": [
				{
					"internalType": "address[21]",
					"name": "",
					"type": "address[21]"
				}
			],
			"stateMutability": "view",
			"type": "function"
		},
		{
			"inputs": [],
			"name": "retrieve_active_names",
			"outputs": [
				{
					"internalType": "string[21]",
					"name": "",
					"type": "string[21]"
				}
			],
			"stateMutability": "view",
			"type": "function"
		},
		{
			"inputs": [],
			"name": "retrieve_active_pics",
			"outputs": [
				{
					"internalType": "string[21]",
					"name": "",
					"type": "string[21]"
				}
			],
			"stateMutability": "view",
			"type": "function"
		},
		{
			"inputs": [],
			"name": "retrieve_active_urls",
			"outputs": [
				{
					"internalType": "string[21]",
					"name": "",
					"type": "string[21]"
				}
			],
			"stateMutability": "view",
			"type": "function"
		},
		{
			"inputs": [],
			"name": "retrieve_base_price",
			"outputs": [
				{
					"internalType": "uint256",
					"name": "",
					"type": "uint256"
				}
			],
			"stateMutability": "view",
			"type": "function"
		}
	]
}