{
	"data": {
		"bytecode": {
			"linkReferences": {},
			"object": "60806040526201518042601191906064565b5f556127106001556127106002553480156029575f80fd5b50608d565b5f819050919050565b7f4e487b71000000000000000000000000000000000000000000000000000000005f52601260045260245ffd5b5f606c82602e565b9150607583602e565b92508260825760816037565b5b828204905092915050565b6120cf8061009a5f395ff3fe60806040526004361061006f575f3560e01c80637e01395b1161004d5780637e01395b146100ef578063a668b28f14610119578063b2f897f714610143578063ceb212e51461017f5761006f565b806314df9e4314610073578063598c46481461009b57806362467967146100c5575b5f80fd5b34801561007e575f80fd5b5061009960048036038101906100949190611277565b61019b565b005b3480156100a6575f80fd5b506100af610553565b6040516100bc91906112ba565b60405180910390f35b3480156100d0575f80fd5b506100d961066f565b6040516100e6919061138a565b60405180910390f35b3480156100fa575f80fd5b50610103610851565b60405161011091906114c9565b60405180910390f35b348015610124575f80fd5b5061012d610a66565b60405161013a91906114c9565b60405180910390f35b34801561014e575f80fd5b5061016960048036038101906101649190611629565b610c7b565b604051610176919061169d565b60405180910390f35b61019960048036038101906101949190611790565b610cf9565b005b5f805f62015180426101ad9190611872565b90505f600190505b60168110156103245760035f8281526020019081526020015f205f9054906101000a900473ffffffffffffffffffffffffffffffffffffffff1673ffffffffffffffffffffffffffffffffffffffff163373ffffffffffffffffffffffffffffffffffffffff1614801561023a57508160055f8381526020019081526020015f205410155b80156102595750600360045f8381526020019081526020015f205f0154145b1561026357600193505b60035f8281526020019081526020015f205f9054906101000a900473ffffffffffffffffffffffffffffffffffffffff1673ffffffffffffffffffffffffffffffffffffffff168573ffffffffffffffffffffffffffffffffffffffff161480156102df57508160055f8381526020019081526020015f205410155b80156102ff5750600260045f8381526020019081526020015f205f015410155b1561030957600192505b8380156103135750825b6103245780806001019150506101b5565b5082610365576040517f08c379a000000000000000000000000000000000000000000000000000000000815260040161035c90611922565b60405180910390fd5b816103a5576040517f08c379a000000000000000000000000000000000000000000000000000000000815260040161039c906119b0565b60405180910390fd5b5f60065f8673ffffffffffffffffffffffffffffffffffffffff1673ffffffffffffffffffffffffffffffffffffffff1681526020019081526020015f2080548060200260200160405190810160405280929190818152602001828054801561046057602002820191905f5260205f20905b815f9054906101000a900473ffffffffffffffffffffffffffffffffffffffff1673ffffffffffffffffffffffffffffffffffffffff1681526020019060010190808311610417575b505050505090506104713382610c7b565b156104b1576040517f08c379a00000000000000000000000000000000000000000000000000000000081526004016104a890611a3e565b60405180910390fd5b60065f8673ffffffffffffffffffffffffffffffffffffffff1673ffffffffffffffffffffffffffffffffffffffff1681526020019081526020015f2033908060018154018082558091505060019003905f5260205f20015f9091909190916101000a81548173ffffffffffffffffffffffffffffffffffffffff021916908373ffffffffffffffffffffffffffffffffffffffff1602179055505050505050565b5f8062015180426105649190611872565b90505f805f6402540be40060035f5486610bb86105819190611a5c565b61058b9190611a8f565b6105959190611872565b61059f9190611ac2565b90505f600190505b60168110156105e5578460055f8381526020019081526020015f2054106105d8576001846105d59190611a5c565b93505b80806001019150506105a7565b50600f8311156105f757809150610665565b6007831180156106085750600f8311155b15610617576001549150610664565b600254600a6106269190611ac2565b60096001546106359190611ac2565b111561065d57600a600960015461064c9190611ac2565b6106569190611872565b9150610663565b60025491505b5b5b8194505050505090565b60605f62015180426106819190611872565b90505f80600190505b601681101561074a5760035f8281526020019081526020015f205f9054906101000a900473ffffffffffffffffffffffffffffffffffffffff1673ffffffffffffffffffffffffffffffffffffffff163373ffffffffffffffffffffffffffffffffffffffff1614801561070f57508260055f8381526020019081526020015f205410155b801561072f5750600260045f8381526020019081526020015f205f015410155b1561073d576001915061074a565b808060010191505061068a565b508061078b576040517f08c379a000000000000000000000000000000000000000000000000000000000815260040161078290611b73565b60405180910390fd5b60065f3373ffffffffffffffffffffffffffffffffffffffff1673ffffffffffffffffffffffffffffffffffffffff1681526020019081526020015f2080548060200260200160405190810160405280929190818152602001828054801561084557602002820191905f5260205f20905b815f9054906101000a900473ffffffffffffffffffffffffffffffffffffffff1673ffffffffffffffffffffffffffffffffffffffff16815260200190600101908083116107fc575b50505050509250505090565b6108596111e4565b5f62015180426108699190611872565b90506108736111e4565b5f600190505b6016811015610a5d575f60055f8381526020019081526020015f20549050808411610a18575f60045f8481526020019081526020015f206040518060600160405290815f82015481526020016001820180546108d490611bbe565b80601f016020809104026020016040519081016040528092919081815260200182805461090090611bbe565b801561094b5780601f106109225761010080835404028352916020019161094b565b820191905f5260205f20905b81548152906001019060200180831161092e57829003601f168201915b5050505050815260200160028201805461096490611bbe565b80601f016020809104026020016040519081016040528092919081815260200182805461099090611bbe565b80156109db5780601f106109b2576101008083540402835291602001916109db565b820191905f5260205f20905b8154815290600101906020018083116109be57829003601f168201915b50505050508152505090508060200151846001856109f99190611a8f565b60158110610a0a57610a09611bee565b5b602002018190525050610a4f565b60405180602001604052805f81525083600184610a359190611a8f565b60158110610a4657610a45611bee565b5b60200201819052505b508080600101915050610879565b50809250505090565b610a6e6111e4565b5f6201518042610a7e9190611872565b9050610a886111e4565b5f600190505b6016811015610c72575f60055f8381526020019081526020015f20549050808411610c2d575f60045f8481526020019081526020015f206040518060600160405290815f8201548152602001600182018054610ae990611bbe565b80601f0160208091040260200160405190810160405280929190818152602001828054610b1590611bbe565b8015610b605780601f10610b3757610100808354040283529160200191610b60565b820191905f5260205f20905b815481529060010190602001808311610b4357829003601f168201915b50505050508152602001600282018054610b7990611bbe565b80601f0160208091040260200160405190810160405280929190818152602001828054610ba590611bbe565b8015610bf05780601f10610bc757610100808354040283529160200191610bf0565b820191905f5260205f20905b815481529060010190602001808311610bd357829003601f168201915b5050505050815250509050806040015184600185610c0e9190611a8f565b60158110610c1f57610c1e611bee565b5b602002018190525050610c64565b60405180602001604052805f81525083600184610c4a9190611a8f565b60158110610c5b57610c5a611bee565b5b60200201819052505b508080600101915050610a8e565b50809250505090565b5f805f90505b8251811015610cee578373ffffffffffffffffffffffffffffffffffffffff16838281518110610cb457610cb3611bee565b5b602002602001015173ffffffffffffffffffffffffffffffffffffffff1603610ce1576001915050610cf3565b8080600101915050610c81565b505f90505b92915050565b5f60018410158015610d0b5750600884105b15610d195760039050610d3e565b60088410158015610d2a5750600f84105b15610d385760029050610d3d565b600190505b5b5f6201518042610d4e9190611872565b90505f805f6402540be40060035f5486610bb8610d6b9190611a5c565b610d759190611a8f565b610d7f9190611872565b86610d8a9190611ac2565b610d949190611ac2565b90505f600190505b6016811015610dda578460055f8381526020019081526020015f205410610dcd57600184610dca9190611a5c565b93505b8080600101915050610d9c565b50600f831115610dec57809150610e5a565b600783118015610dfd5750600f8311155b15610e0c576001549150610e59565b600254600a610e1b9190611ac2565b6009600154610e2a9190611ac2565b1115610e5257600a6009600154610e419190611ac2565b610e4b9190611872565b9150610e58565b60025491505b5b5b5f8811610e9c576040517f08c379a0000000000000000000000000000000000000000000000000000000008152600401610e9390611c65565b60405180910390fd5b6015881115610ee0576040517f08c379a0000000000000000000000000000000000000000000000000000000008152600401610ed790611ccd565b60405180910390fd5b81341015610f23576040517f08c379a0000000000000000000000000000000000000000000000000000000008152600401610f1a90611d35565b60405180910390fd5b5f60055f8a81526020019081526020015f205490505f81146110fd575f60035f8b81526020019081526020015f205f9054906101000a900473ffffffffffffffffffffffffffffffffffffffff1690503373ffffffffffffffffffffffffffffffffffffffff168173ffffffffffffffffffffffffffffffffffffffff1603610fe1576040517f08c379a0000000000000000000000000000000000000000000000000000000008152600401610fd890611d9d565b60405180910390fd5b858210611023576040517f08c379a000000000000000000000000000000000000000000000000000000000815260040161101a90611e05565b60405180910390fd5b601e866110309190611a5c565b60055f8c81526020019081526020015f208190555060405180606001604052808881526020018a81526020018981525060045f8c81526020019081526020015f205f820151815f0155602082015181600101908161108e9190611fca565b5060408201518160020190816110a49190611fca565b509050503360035f8c81526020019081526020015f205f6101000a81548173ffffffffffffffffffffffffffffffffffffffff021916908373ffffffffffffffffffffffffffffffffffffffff160217905550506111d2565b601e8561110a9190611a5c565b60055f8b81526020019081526020015f208190555060405180606001604052808781526020018981526020018881525060045f8b81526020019081526020015f205f820151815f015560208201518160010190816111689190611fca565b50604082015181600201908161117e9190611fca565b509050503360035f8b81526020019081526020015f205f6101000a81548173ffffffffffffffffffffffffffffffffffffffff021916908373ffffffffffffffffffffffffffffffffffffffff1602179055505b82600181905550505050505050505050565b604051806102a001604052806015905b60608152602001906001900390816111f45790505090565b5f604051905090565b5f80fd5b5f80fd5b5f73ffffffffffffffffffffffffffffffffffffffff82169050919050565b5f6112468261121d565b9050919050565b6112568161123c565b8114611260575f80fd5b50565b5f813590506112718161124d565b92915050565b5f6020828403121561128c5761128b611215565b5b5f61129984828501611263565b91505092915050565b5f819050919050565b6112b4816112a2565b82525050565b5f6020820190506112cd5f8301846112ab565b92915050565b5f81519050919050565b5f82825260208201905092915050565b5f819050602082019050919050565b6113058161123c565b82525050565b5f61131683836112fc565b60208301905092915050565b5f602082019050919050565b5f611338826112d3565b61134281856112dd565b935061134d836112ed565b805f5b8381101561137d578151611364888261130b565b975061136f83611322565b925050600181019050611350565b5085935050505092915050565b5f6020820190508181035f8301526113a2818461132e565b905092915050565b5f60159050919050565b5f81905092915050565b5f819050919050565b5f81519050919050565b5f82825260208201905092915050565b8281835e5f83830152505050565b5f601f19601f8301169050919050565b5f611409826113c7565b61141381856113d1565b93506114238185602086016113e1565b61142c816113ef565b840191505092915050565b5f61144283836113ff565b905092915050565b5f602082019050919050565b5f611460826113aa565b61146a81856113b4565b93508360208202850161147c856113be565b805f5b858110156114b757848403895281516114988582611437565b94506114a38361144a565b925060208a0199505060018101905061147f565b50829750879550505050505092915050565b5f6020820190508181035f8301526114e18184611456565b905092915050565b5f80fd5b7f4e487b71000000000000000000000000000000000000000000000000000000005f52604160045260245ffd5b611523826113ef565b810181811067ffffffffffffffff82111715611542576115416114ed565b5b80604052505050565b5f61155461120c565b9050611560828261151a565b919050565b5f67ffffffffffffffff82111561157f5761157e6114ed565b5b602082029050602081019050919050565b5f80fd5b5f6115a66115a184611565565b61154b565b905080838252602082019050602084028301858111156115c9576115c8611590565b5b835b818110156115f257806115de8882611263565b8452602084019350506020810190506115cb565b5050509392505050565b5f82601f8301126116105761160f6114e9565b5b8135611620848260208601611594565b91505092915050565b5f806040838503121561163f5761163e611215565b5b5f61164c85828601611263565b925050602083013567ffffffffffffffff81111561166d5761166c611219565b5b611679858286016115fc565b9150509250929050565b5f8115159050919050565b61169781611683565b82525050565b5f6020820190506116b05f83018461168e565b92915050565b6116bf816112a2565b81146116c9575f80fd5b50565b5f813590506116da816116b6565b92915050565b5f80fd5b5f67ffffffffffffffff8211156116fe576116fd6114ed565b5b611707826113ef565b9050602081019050919050565b828183375f83830152505050565b5f61173461172f846116e4565b61154b565b9050828152602081018484840111156117505761174f6116e0565b5b61175b848285611714565b509392505050565b5f82601f830112611777576117766114e9565b5b8135611787848260208601611722565b91505092915050565b5f805f606084860312156117a7576117a6611215565b5b5f6117b4868287016116cc565b935050602084013567ffffffffffffffff8111156117d5576117d4611219565b5b6117e186828701611763565b925050604084013567ffffffffffffffff81111561180257611801611219565b5b61180e86828701611763565b9150509250925092565b7f4e487b71000000000000000000000000000000000000000000000000000000005f52601260045260245ffd5b7f4e487b71000000000000000000000000000000000000000000000000000000005f52601160045260245ffd5b5f61187c826112a2565b9150611887836112a2565b92508261189757611896611818565b5b828204905092915050565b5f82825260208201905092915050565b7f6f6e6c79206f776e6572206f662061207469657220332b20736c6f742063616e5f8201527f2070696e67000000000000000000000000000000000000000000000000000000602082015250565b5f61190c6025836118a2565b9150611917826118b2565b604082019050919050565b5f6020820190508181035f83015261193981611900565b9050919050565b7f6f6e6c79206f776e6572206f662061207469657220322b20736c6f742063616e5f8201527f2062652070696e67656400000000000000000000000000000000000000000000602082015250565b5f61199a602a836118a2565b91506119a582611940565b604082019050919050565b5f6020820190508181035f8301526119c78161198e565b9050919050565b7f796f75206861766520616c72656164792070696e6765642074686973206164645f8201527f7265737300000000000000000000000000000000000000000000000000000000602082015250565b5f611a286024836118a2565b9150611a33826119ce565b604082019050919050565b5f6020820190508181035f830152611a5581611a1c565b9050919050565b5f611a66826112a2565b9150611a71836112a2565b9250828201905080821115611a8957611a88611845565b5b92915050565b5f611a99826112a2565b9150611aa4836112a2565b9250828203905081811115611abc57611abb611845565b5b92915050565b5f611acc826112a2565b9150611ad7836112a2565b9250828202611ae5816112a2565b91508282048414831517611afc57611afb611845565b5b5092915050565b7f796f75206e6f206c6f6e67657220686176652061207469657220322b207375625f8201527f736372697074696f6e0000000000000000000000000000000000000000000000602082015250565b5f611b5d6029836118a2565b9150611b6882611b03565b604082019050919050565b5f6020820190508181035f830152611b8a81611b51565b9050919050565b7f4e487b71000000000000000000000000000000000000000000000000000000005f52602260045260245ffd5b5f6002820490506001821680611bd557607f821691505b602082108103611be857611be7611b91565b5b50919050565b7f4e487b71000000000000000000000000000000000000000000000000000000005f52603260045260245ffd5b7f74686520736c6f74732073746172742066726f6d2031000000000000000000005f82015250565b5f611c4f6016836118a2565b9150611c5a82611c1b565b602082019050919050565b5f6020820190508181035f830152611c7c81611c43565b9050919050565b7f77616c6c58612068617320323120736c6f7473206f6e6c7900000000000000005f82015250565b5f611cb76018836118a2565b9150611cc282611c83565b602082019050919050565b5f6020820190508181035f830152611ce481611cab565b9050919050565b7f6e6f7420656e6f756768206777656920617474616368656400000000000000005f82015250565b5f611d1f6018836118a2565b9150611d2a82611ceb565b602082019050919050565b5f6020820190508181035f830152611d4c81611d13565b9050919050565b7f796f7520616c7265616479206f776e207468697320736c6f74000000000000005f82015250565b5f611d876019836118a2565b9150611d9282611d53565b602082019050919050565b5f6020820190508181035f830152611db481611d7b565b9050919050565b7f7468697320736c6f74206973207374696c6c20626f6f6b6564210000000000005f82015250565b5f611def601a836118a2565b9150611dfa82611dbb565b602082019050919050565b5f6020820190508181035f830152611e1c81611de3565b9050919050565b5f81519050919050565b5f819050815f5260205f209050919050565b5f6020601f8301049050919050565b5f82821b905092915050565b5f60088302611e897fffffffffffffffffffffffffffffffffffffffffffffffffffffffffffffffff82611e4e565b611e938683611e4e565b95508019841693508086168417925050509392505050565b5f819050919050565b5f611ece611ec9611ec4846112a2565b611eab565b6112a2565b9050919050565b5f819050919050565b611ee783611eb4565b611efb611ef382611ed5565b848454611e5a565b825550505050565b5f90565b611f0f611f03565b611f1a818484611ede565b505050565b5b81811015611f3d57611f325f82611f07565b600181019050611f20565b5050565b601f821115611f8257611f5381611e2d565b611f5c84611e3f565b81016020851015611f6b578190505b611f7f611f7785611e3f565b830182611f1f565b50505b505050565b5f82821c905092915050565b5f611fa25f1984600802611f87565b1980831691505092915050565b5f611fba8383611f93565b9150826002028217905092915050565b611fd382611e23565b67ffffffffffffffff811115611fec57611feb6114ed565b5b611ff68254611bbe565b612001828285611f41565b5f60209050601f831160018114612032575f8415612020578287015190505b61202a8582611faf565b865550612091565b601f19841661204086611e2d565b5f5b8281101561206757848901518255600182019150602085019450602081019050612042565b868310156120845784890151612080601f891682611f93565b8355505b6001600288020188555050505b50505050505056fea2646970667358221220aae9a23e62a86902f2a650312a224e0454e8aa28484e8cd3c6bf2250c6d5e02d64736f6c634300081a0033",
			"opcodes": "PUSH1 0x80 PUSH1 0x40 MSTORE PUSH3 0x15180 TIMESTAMP PUSH1 0x11 SWAP2 SWAP1 PUSH1 0x64 JUMP JUMPDEST PUSH0 SSTORE PUSH2 0x2710 PUSH1 0x1 SSTORE PUSH2 0x2710 PUSH1 0x2 SSTORE CALLVALUE DUP1 ISZERO PUSH1 0x29 JUMPI PUSH0 DUP1 REVERT JUMPDEST POP PUSH1 0x8D JUMP JUMPDEST PUSH0 DUP2 SWAP1 POP SWAP2 SWAP1 POP JUMP JUMPDEST PUSH32 0x4E487B7100000000000000000000000000000000000000000000000000000000 PUSH0 MSTORE PUSH1 0x12 PUSH1 0x4 MSTORE PUSH1 0x24 PUSH0 REVERT JUMPDEST PUSH0 PUSH1 0x6C DUP3 PUSH1 0x2E JUMP JUMPDEST SWAP2 POP PUSH1 0x75 DUP4 PUSH1 0x2E JUMP JUMPDEST SWAP3 POP DUP3 PUSH1 0x82 JUMPI PUSH1 0x81 PUSH1 0x37 JUMP JUMPDEST JUMPDEST DUP3 DUP3 DIV SWAP1 POP SWAP3 SWAP2 POP POP JUMP JUMPDEST PUSH2 0x20CF DUP1 PUSH2 0x9A PUSH0 CODECOPY PUSH0 RETURN INVALID PUSH1 0x80 PUSH1 0x40 MSTORE PUSH1 0x4 CALLDATASIZE LT PUSH2 0x6F JUMPI PUSH0 CALLDATALOAD PUSH1 0xE0 SHR DUP1 PUSH4 0x7E01395B GT PUSH2 0x4D JUMPI DUP1 PUSH4 0x7E01395B EQ PUSH2 0xEF JUMPI DUP1 PUSH4 0xA668B28F EQ PUSH2 0x119 JUMPI DUP1 PUSH4 0xB2F897F7 EQ PUSH2 0x143 JUMPI DUP1 PUSH4 0xCEB212E5 EQ PUSH2 0x17F JUMPI PUSH2 0x6F JUMP JUMPDEST DUP1 PUSH4 0x14DF9E43 EQ PUSH2 0x73 JUMPI DUP1 PUSH4 0x598C4648 EQ PUSH2 0x9B JUMPI DUP1 PUSH4 0x62467967 EQ PUSH2 0xC5 JUMPI JUMPDEST PUSH0 DUP1 REVERT JUMPDEST CALLVALUE DUP1 ISZERO PUSH2 0x7E JUMPI PUSH0 DUP1 REVERT JUMPDEST POP PUSH2 0x99 PUSH1 0x4 DUP1 CALLDATASIZE SUB DUP2 ADD SWAP1 PUSH2 0x94 SWAP2 SWAP1 PUSH2 0x1277 JUMP JUMPDEST PUSH2 0x19B JUMP JUMPDEST STOP JUMPDEST CALLVALUE DUP1 ISZERO PUSH2 0xA6 JUMPI PUSH0 DUP1 REVERT JUMPDEST POP PUSH2 0xAF PUSH2 0x553 JUMP JUMPDEST PUSH1 0x40 MLOAD PUSH2 0xBC SWAP2 SWAP1 PUSH2 0x12BA JUMP JUMPDEST PUSH1 0x40 MLOAD DUP1 SWAP2 SUB SWAP1 RETURN JUMPDEST CALLVALUE DUP1 ISZERO PUSH2 0xD0 JUMPI PUSH0 DUP1 REVERT JUMPDEST POP PUSH2 0xD9 PUSH2 0x66F JUMP JUMPDEST PUSH1 0x40 MLOAD PUSH2 0xE6 SWAP2 SWAP1 PUSH2 0x138A JUMP JUMPDEST PUSH1 0x40 MLOAD DUP1 SWAP2 SUB SWAP1 RETURN JUMPDEST CALLVALUE DUP1 ISZERO PUSH2 0xFA JUMPI PUSH0 DUP1 REVERT JUMPDEST POP PUSH2 0x103 PUSH2 0x851 JUMP JUMPDEST PUSH1 0x40 MLOAD PUSH2 0x110 SWAP2 SWAP1 PUSH2 0x14C9 JUMP JUMPDEST PUSH1 0x40 MLOAD DUP1 SWAP2 SUB SWAP1 RETURN JUMPDEST CALLVALUE DUP1 ISZERO PUSH2 0x124 JUMPI PUSH0 DUP1 REVERT JUMPDEST POP PUSH2 0x12D PUSH2 0xA66 JUMP JUMPDEST PUSH1 0x40 MLOAD PUSH2 0x13A SWAP2 SWAP1 PUSH2 0x14C9 JUMP JUMPDEST PUSH1 0x40 MLOAD DUP1 SWAP2 SUB SWAP1 RETURN JUMPDEST CALLVALUE DUP1 ISZERO PUSH2 0x14E JUMPI PUSH0 DUP1 REVERT JUMPDEST POP PUSH2 0x169 PUSH1 0x4 DUP1 CALLDATASIZE SUB DUP2 ADD SWAP1 PUSH2 0x164 SWAP2 SWAP1 PUSH2 0x1629 JUMP JUMPDEST PUSH2 0xC7B JUMP JUMPDEST PUSH1 0x40 MLOAD PUSH2 0x176 SWAP2 SWAP1 PUSH2 0x169D JUMP JUMPDEST PUSH1 0x40 MLOAD DUP1 SWAP2 SUB SWAP1 RETURN JUMPDEST PUSH2 0x199 PUSH1 0x4 DUP1 CALLDATASIZE SUB DUP2 ADD SWAP1 PUSH2 0x194 SWAP2 SWAP1 PUSH2 0x1790 JUMP JUMPDEST PUSH2 0xCF9 JUMP JUMPDEST STOP JUMPDEST PUSH0 DUP1 PUSH0 PUSH3 0x15180 TIMESTAMP PUSH2 0x1AD SWAP2 SWAP1 PUSH2 0x1872 JUMP JUMPDEST SWAP1 POP PUSH0 PUSH1 0x1 SWAP1 POP JUMPDEST PUSH1 0x16 DUP2 LT ISZERO PUSH2 0x324 JUMPI PUSH1 0x3 PUSH0 DUP3 DUP2 MSTORE PUSH1 0x20 ADD SWAP1 DUP2 MSTORE PUSH1 0x20 ADD PUSH0 KECCAK256 PUSH0 SWAP1 SLOAD SWAP1 PUSH2 0x100 EXP SWAP1 DIV PUSH20 0xFFFFFFFFFFFFFFFFFFFFFFFFFFFFFFFFFFFFFFFF AND PUSH20 0xFFFFFFFFFFFFFFFFFFFFFFFFFFFFFFFFFFFFFFFF AND CALLER PUSH20 0xFFFFFFFFFFFFFFFFFFFFFFFFFFFFFFFFFFFFFFFF AND EQ DUP1 ISZERO PUSH2 0x23A JUMPI POP DUP2 PUSH1 0x5 PUSH0 DUP4 DUP2 MSTORE PUSH1 0x20 ADD SWAP1 DUP2 MSTORE PUSH1 0x20 ADD PUSH0 KECCAK256 SLOAD LT ISZERO JUMPDEST DUP1 ISZERO PUSH2 0x259 JUMPI POP PUSH1 0x3 PUSH1 0x4 PUSH0 DUP4 DUP2 MSTORE PUSH1 0x20 ADD SWAP1 DUP2 MSTORE PUSH1 0x20 ADD PUSH0 KECCAK256 PUSH0 ADD SLOAD EQ JUMPDEST ISZERO PUSH2 0x263 JUMPI PUSH1 0x1 SWAP4 POP JUMPDEST PUSH1 0x3 PUSH0 DUP3 DUP2 MSTORE PUSH1 0x20 ADD SWAP1 DUP2 MSTORE PUSH1 0x20 ADD PUSH0 KECCAK256 PUSH0 SWAP1 SLOAD SWAP1 PUSH2 0x100 EXP SWAP1 DIV PUSH20 0xFFFFFFFFFFFFFFFFFFFFFFFFFFFFFFFFFFFFFFFF AND PUSH20 0xFFFFFFFFFFFFFFFFFFFFFFFFFFFFFFFFFFFFFFFF AND DUP6 PUSH20 0xFFFFFFFFFFFFFFFFFFFFFFFFFFFFFFFFFFFFFFFF AND EQ DUP1 ISZERO PUSH2 0x2DF JUMPI POP DUP2 PUSH1 0x5 PUSH0 DUP4 DUP2 MSTORE PUSH1 0x20 ADD SWAP1 DUP2 MSTORE PUSH1 0x20 ADD PUSH0 KECCAK256 SLOAD LT ISZERO JUMPDEST DUP1 ISZERO PUSH2 0x2FF JUMPI POP PUSH1 0x2 PUSH1 0x4 PUSH0 DUP4 DUP2 MSTORE PUSH1 0x20 ADD SWAP1 DUP2 MSTORE PUSH1 0x20 ADD PUSH0 KECCAK256 PUSH0 ADD SLOAD LT ISZERO JUMPDEST ISZERO PUSH2 0x309 JUMPI PUSH1 0x1 SWAP3 POP JUMPDEST DUP4 DUP1 ISZERO PUSH2 0x313 JUMPI POP DUP3 JUMPDEST PUSH2 0x324 JUMPI DUP1 DUP1 PUSH1 0x1 ADD SWAP2 POP POP PUSH2 0x1B5 JUMP JUMPDEST POP DUP3 PUSH2 0x365 JUMPI PUSH1 0x40 MLOAD PUSH32 0x8C379A000000000000000000000000000000000000000000000000000000000 DUP2 MSTORE PUSH1 0x4 ADD PUSH2 0x35C SWAP1 PUSH2 0x1922 JUMP JUMPDEST PUSH1 0x40 MLOAD DUP1 SWAP2 SUB SWAP1 REVERT JUMPDEST DUP2 PUSH2 0x3A5 JUMPI PUSH1 0x40 MLOAD PUSH32 0x8C379A000000000000000000000000000000000000000000000000000000000 DUP2 MSTORE PUSH1 0x4 ADD PUSH2 0x39C SWAP1 PUSH2 0x19B0 JUMP JUMPDEST PUSH1 0x40 MLOAD DUP1 SWAP2 SUB SWAP1 REVERT JUMPDEST PUSH0 PUSH1 0x6 PUSH0 DUP7 PUSH20 0xFFFFFFFFFFFFFFFFFFFFFFFFFFFFFFFFFFFFFFFF AND PUSH20 0xFFFFFFFFFFFFFFFFFFFFFFFFFFFFFFFFFFFFFFFF AND DUP2 MSTORE PUSH1 0x20 ADD SWAP1 DUP2 MSTORE PUSH1 0x20 ADD PUSH0 KECCAK256 DUP1 SLOAD DUP1 PUSH1 0x20 MUL PUSH1 0x20 ADD PUSH1 0x40 MLOAD SWAP1 DUP2 ADD PUSH1 0x40 MSTORE DUP1 SWAP3 SWAP2 SWAP1 DUP2 DUP2 MSTORE PUSH1 0x20 ADD DUP3 DUP1 SLOAD DUP1 ISZERO PUSH2 0x460 JUMPI PUSH1 0x20 MUL DUP3 ADD SWAP2 SWAP1 PUSH0 MSTORE PUSH1 0x20 PUSH0 KECCAK256 SWAP1 JUMPDEST DUP2 PUSH0 SWAP1 SLOAD SWAP1 PUSH2 0x100 EXP SWAP1 DIV PUSH20 0xFFFFFFFFFFFFFFFFFFFFFFFFFFFFFFFFFFFFFFFF AND PUSH20 0xFFFFFFFFFFFFFFFFFFFFFFFFFFFFFFFFFFFFFFFF AND DUP2 MSTORE PUSH1 0x20 ADD SWAP1 PUSH1 0x1 ADD SWAP1 DUP1 DUP4 GT PUSH2 0x417 JUMPI JUMPDEST POP POP POP POP POP SWAP1 POP PUSH2 0x471 CALLER DUP3 PUSH2 0xC7B JUMP JUMPDEST ISZERO PUSH2 0x4B1 JUMPI PUSH1 0x40 MLOAD PUSH32 0x8C379A000000000000000000000000000000000000000000000000000000000 DUP2 MSTORE PUSH1 0x4 ADD PUSH2 0x4A8 SWAP1 PUSH2 0x1A3E JUMP JUMPDEST PUSH1 0x40 MLOAD DUP1 SWAP2 SUB SWAP1 REVERT JUMPDEST PUSH1 0x6 PUSH0 DUP7 PUSH20 0xFFFFFFFFFFFFFFFFFFFFFFFFFFFFFFFFFFFFFFFF AND PUSH20 0xFFFFFFFFFFFFFFFFFFFFFFFFFFFFFFFFFFFFFFFF AND DUP2 MSTORE PUSH1 0x20 ADD SWAP1 DUP2 MSTORE PUSH1 0x20 ADD PUSH0 KECCAK256 CALLER SWAP1 DUP1 PUSH1 0x1 DUP2 SLOAD ADD DUP1 DUP3 SSTORE DUP1 SWAP2 POP POP PUSH1 0x1 SWAP1 SUB SWAP1 PUSH0 MSTORE PUSH1 0x20 PUSH0 KECCAK256 ADD PUSH0 SWAP1 SWAP2 SWAP1 SWAP2 SWAP1 SWAP2 PUSH2 0x100 EXP DUP2 SLOAD DUP2 PUSH20 0xFFFFFFFFFFFFFFFFFFFFFFFFFFFFFFFFFFFFFFFF MUL NOT AND SWAP1 DUP4 PUSH20 0xFFFFFFFFFFFFFFFFFFFFFFFFFFFFFFFFFFFFFFFF AND MUL OR SWAP1 SSTORE POP POP POP POP POP POP JUMP JUMPDEST PUSH0 DUP1 PUSH3 0x15180 TIMESTAMP PUSH2 0x564 SWAP2 SWAP1 PUSH2 0x1872 JUMP JUMPDEST SWAP1 POP PUSH0 DUP1 PUSH0 PUSH5 0x2540BE400 PUSH1 0x3 PUSH0 SLOAD DUP7 PUSH2 0xBB8 PUSH2 0x581 SWAP2 SWAP1 PUSH2 0x1A5C JUMP JUMPDEST PUSH2 0x58B SWAP2 SWAP1 PUSH2 0x1A8F JUMP JUMPDEST PUSH2 0x595 SWAP2 SWAP1 PUSH2 0x1872 JUMP JUMPDEST PUSH2 0x59F SWAP2 SWAP1 PUSH2 0x1AC2 JUMP JUMPDEST SWAP1 POP PUSH0 PUSH1 0x1 SWAP1 POP JUMPDEST PUSH1 0x16 DUP2 LT ISZERO PUSH2 0x5E5 JUMPI DUP5 PUSH1 0x5 PUSH0 DUP4 DUP2 MSTORE PUSH1 0x20 ADD SWAP1 DUP2 MSTORE PUSH1 0x20 ADD PUSH0 KECCAK256 SLOAD LT PUSH2 0x5D8 JUMPI PUSH1 0x1 DUP5 PUSH2 0x5D5 SWAP2 SWAP1 PUSH2 0x1A5C JUMP JUMPDEST SWAP4 POP JUMPDEST DUP1 DUP1 PUSH1 0x1 ADD SWAP2 POP POP PUSH2 0x5A7 JUMP JUMPDEST POP PUSH1 0xF DUP4 GT ISZERO PUSH2 0x5F7 JUMPI DUP1 SWAP2 POP PUSH2 0x665 JUMP JUMPDEST PUSH1 0x7 DUP4 GT DUP1 ISZERO PUSH2 0x608 JUMPI POP PUSH1 0xF DUP4 GT ISZERO JUMPDEST ISZERO PUSH2 0x617 JUMPI PUSH1 0x1 SLOAD SWAP2 POP PUSH2 0x664 JUMP JUMPDEST PUSH1 0x2 SLOAD PUSH1 0xA PUSH2 0x626 SWAP2 SWAP1 PUSH2 0x1AC2 JUMP JUMPDEST PUSH1 0x9 PUSH1 0x1 SLOAD PUSH2 0x635 SWAP2 SWAP1 PUSH2 0x1AC2 JUMP JUMPDEST GT ISZERO PUSH2 0x65D JUMPI PUSH1 0xA PUSH1 0x9 PUSH1 0x1 SLOAD PUSH2 0x64C SWAP2 SWAP1 PUSH2 0x1AC2 JUMP JUMPDEST PUSH2 0x656 SWAP2 SWAP1 PUSH2 0x1872 JUMP JUMPDEST SWAP2 POP PUSH2 0x663 JUMP JUMPDEST PUSH1 0x2 SLOAD SWAP2 POP JUMPDEST JUMPDEST JUMPDEST DUP2 SWAP5 POP POP POP POP POP SWAP1 JUMP JUMPDEST PUSH1 0x60 PUSH0 PUSH3 0x15180 TIMESTAMP PUSH2 0x681 SWAP2 SWAP1 PUSH2 0x1872 JUMP JUMPDEST SWAP1 POP PUSH0 DUP1 PUSH1 0x1 SWAP1 POP JUMPDEST PUSH1 0x16 DUP2 LT ISZERO PUSH2 0x74A JUMPI PUSH1 0x3 PUSH0 DUP3 DUP2 MSTORE PUSH1 0x20 ADD SWAP1 DUP2 MSTORE PUSH1 0x20 ADD PUSH0 KECCAK256 PUSH0 SWAP1 SLOAD SWAP1 PUSH2 0x100 EXP SWAP1 DIV PUSH20 0xFFFFFFFFFFFFFFFFFFFFFFFFFFFFFFFFFFFFFFFF AND PUSH20 0xFFFFFFFFFFFFFFFFFFFFFFFFFFFFFFFFFFFFFFFF AND CALLER PUSH20 0xFFFFFFFFFFFFFFFFFFFFFFFFFFFFFFFFFFFFFFFF AND EQ DUP1 ISZERO PUSH2 0x70F JUMPI POP DUP3 PUSH1 0x5 PUSH0 DUP4 DUP2 MSTORE PUSH1 0x20 ADD SWAP1 DUP2 MSTORE PUSH1 0x20 ADD PUSH0 KECCAK256 SLOAD LT ISZERO JUMPDEST DUP1 ISZERO PUSH2 0x72F JUMPI POP PUSH1 0x2 PUSH1 0x4 PUSH0 DUP4 DUP2 MSTORE PUSH1 0x20 ADD SWAP1 DUP2 MSTORE PUSH1 0x20 ADD PUSH0 KECCAK256 PUSH0 ADD SLOAD LT ISZERO JUMPDEST ISZERO PUSH2 0x73D JUMPI PUSH1 0x1 SWAP2 POP PUSH2 0x74A JUMP JUMPDEST DUP1 DUP1 PUSH1 0x1 ADD SWAP2 POP POP PUSH2 0x68A JUMP JUMPDEST POP DUP1 PUSH2 0x78B JUMPI PUSH1 0x40 MLOAD PUSH32 0x8C379A000000000000000000000000000000000000000000000000000000000 DUP2 MSTORE PUSH1 0x4 ADD PUSH2 0x782 SWAP1 PUSH2 0x1B73 JUMP JUMPDEST PUSH1 0x40 MLOAD DUP1 SWAP2 SUB SWAP1 REVERT JUMPDEST PUSH1 0x6 PUSH0 CALLER PUSH20 0xFFFFFFFFFFFFFFFFFFFFFFFFFFFFFFFFFFFFFFFF AND PUSH20 0xFFFFFFFFFFFFFFFFFFFFFFFFFFFFFFFFFFFFFFFF AND DUP2 MSTORE PUSH1 0x20 ADD SWAP1 DUP2 MSTORE PUSH1 0x20 ADD PUSH0 KECCAK256 DUP1 SLOAD DUP1 PUSH1 0x20 MUL PUSH1 0x20 ADD PUSH1 0x40 MLOAD SWAP1 DUP2 ADD PUSH1 0x40 MSTORE DUP1 SWAP3 SWAP2 SWAP1 DUP2 DUP2 MSTORE PUSH1 0x20 ADD DUP3 DUP1 SLOAD DUP1 ISZERO PUSH2 0x845 JUMPI PUSH1 0x20 MUL DUP3 ADD SWAP2 SWAP1 PUSH0 MSTORE PUSH1 0x20 PUSH0 KECCAK256 SWAP1 JUMPDEST DUP2 PUSH0 SWAP1 SLOAD SWAP1 PUSH2 0x100 EXP SWAP1 DIV PUSH20 0xFFFFFFFFFFFFFFFFFFFFFFFFFFFFFFFFFFFFFFFF AND PUSH20 0xFFFFFFFFFFFFFFFFFFFFFFFFFFFFFFFFFFFFFFFF AND DUP2 MSTORE PUSH1 0x20 ADD SWAP1 PUSH1 0x1 ADD SWAP1 DUP1 DUP4 GT PUSH2 0x7FC JUMPI JUMPDEST POP POP POP POP POP SWAP3 POP POP POP SWAP1 JUMP JUMPDEST PUSH2 0x859 PUSH2 0x11E4 JUMP JUMPDEST PUSH0 PUSH3 0x15180 TIMESTAMP PUSH2 0x869 SWAP2 SWAP1 PUSH2 0x1872 JUMP JUMPDEST SWAP1 POP PUSH2 0x873 PUSH2 0x11E4 JUMP JUMPDEST PUSH0 PUSH1 0x1 SWAP1 POP JUMPDEST PUSH1 0x16 DUP2 LT ISZERO PUSH2 0xA5D JUMPI PUSH0 PUSH1 0x5 PUSH0 DUP4 DUP2 MSTORE PUSH1 0x20 ADD SWAP1 DUP2 MSTORE PUSH1 0x20 ADD PUSH0 KECCAK256 SLOAD SWAP1 POP DUP1 DUP5 GT PUSH2 0xA18 JUMPI PUSH0 PUSH1 0x4 PUSH0 DUP5 DUP2 MSTORE PUSH1 0x20 ADD SWAP1 DUP2 MSTORE PUSH1 0x20 ADD PUSH0 KECCAK256 PUSH1 0x40 MLOAD DUP1 PUSH1 0x60 ADD PUSH1 0x40 MSTORE SWAP1 DUP2 PUSH0 DUP3 ADD SLOAD DUP2 MSTORE PUSH1 0x20 ADD PUSH1 0x1 DUP3 ADD DUP1 SLOAD PUSH2 0x8D4 SWAP1 PUSH2 0x1BBE JUMP JUMPDEST DUP1 PUSH1 0x1F ADD PUSH1 0x20 DUP1 SWAP2 DIV MUL PUSH1 0x20 ADD PUSH1 0x40 MLOAD SWAP1 DUP2 ADD PUSH1 0x40 MSTORE DUP1 SWAP3 SWAP2 SWAP1 DUP2 DUP2 MSTORE PUSH1 0x20 ADD DUP3 DUP1 SLOAD PUSH2 0x900 SWAP1 PUSH2 0x1BBE JUMP JUMPDEST DUP1 ISZERO PUSH2 0x94B JUMPI DUP1 PUSH1 0x1F LT PUSH2 0x922 JUMPI PUSH2 0x100 DUP1 DUP4 SLOAD DIV MUL DUP4 MSTORE SWAP2 PUSH1 0x20 ADD SWAP2 PUSH2 0x94B JUMP JUMPDEST DUP3 ADD SWAP2 SWAP1 PUSH0 MSTORE PUSH1 0x20 PUSH0 KECCAK256 SWAP1 JUMPDEST DUP2 SLOAD DUP2 MSTORE SWAP1 PUSH1 0x1 ADD SWAP1 PUSH1 0x20 ADD DUP1 DUP4 GT PUSH2 0x92E JUMPI DUP3 SWAP1 SUB PUSH1 0x1F AND DUP3 ADD SWAP2 JUMPDEST POP POP POP POP POP DUP2 MSTORE PUSH1 0x20 ADD PUSH1 0x2 DUP3 ADD DUP1 SLOAD PUSH2 0x964 SWAP1 PUSH2 0x1BBE JUMP JUMPDEST DUP1 PUSH1 0x1F ADD PUSH1 0x20 DUP1 SWAP2 DIV MUL PUSH1 0x20 ADD PUSH1 0x40 MLOAD SWAP1 DUP2 ADD PUSH1 0x40 MSTORE DUP1 SWAP3 SWAP2 SWAP1 DUP2 DUP2 MSTORE PUSH1 0x20 ADD DUP3 DUP1 SLOAD PUSH2 0x990 SWAP1 PUSH2 0x1BBE JUMP JUMPDEST DUP1 ISZERO PUSH2 0x9DB JUMPI DUP1 PUSH1 0x1F LT PUSH2 0x9B2 JUMPI PUSH2 0x100 DUP1 DUP4 SLOAD DIV MUL DUP4 MSTORE SWAP2 PUSH1 0x20 ADD SWAP2 PUSH2 0x9DB JUMP JUMPDEST DUP3 ADD SWAP2 SWAP1 PUSH0 MSTORE PUSH1 0x20 PUSH0 KECCAK256 SWAP1 JUMPDEST DUP2 SLOAD DUP2 MSTORE SWAP1 PUSH1 0x1 ADD SWAP1 PUSH1 0x20 ADD DUP1 DUP4 GT PUSH2 0x9BE JUMPI DUP3 SWAP1 SUB PUSH1 0x1F AND DUP3 ADD SWAP2 JUMPDEST POP POP POP POP POP DUP2 MSTORE POP POP SWAP1 POP DUP1 PUSH1 0x20 ADD MLOAD DUP5 PUSH1 0x1 DUP6 PUSH2 0x9F9 SWAP2 SWAP1 PUSH2 0x1A8F JUMP JUMPDEST PUSH1 0x15 DUP2 LT PUSH2 0xA0A JUMPI PUSH2 0xA09 PUSH2 0x1BEE JUMP JUMPDEST JUMPDEST PUSH1 0x20 MUL ADD DUP2 SWAP1 MSTORE POP POP PUSH2 0xA4F JUMP JUMPDEST PUSH1 0x40 MLOAD DUP1 PUSH1 0x20 ADD PUSH1 0x40 MSTORE DUP1 PUSH0 DUP2 MSTORE POP DUP4 PUSH1 0x1 DUP5 PUSH2 0xA35 SWAP2 SWAP1 PUSH2 0x1A8F JUMP JUMPDEST PUSH1 0x15 DUP2 LT PUSH2 0xA46 JUMPI PUSH2 0xA45 PUSH2 0x1BEE JUMP JUMPDEST JUMPDEST PUSH1 0x20 MUL ADD DUP2 SWAP1 MSTORE POP JUMPDEST POP DUP1 DUP1 PUSH1 0x1 ADD SWAP2 POP POP PUSH2 0x879 JUMP JUMPDEST POP DUP1 SWAP3 POP POP POP SWAP1 JUMP JUMPDEST PUSH2 0xA6E PUSH2 0x11E4 JUMP JUMPDEST PUSH0 PUSH3 0x15180 TIMESTAMP PUSH2 0xA7E SWAP2 SWAP1 PUSH2 0x1872 JUMP JUMPDEST SWAP1 POP PUSH2 0xA88 PUSH2 0x11E4 JUMP JUMPDEST PUSH0 PUSH1 0x1 SWAP1 POP JUMPDEST PUSH1 0x16 DUP2 LT ISZERO PUSH2 0xC72 JUMPI PUSH0 PUSH1 0x5 PUSH0 DUP4 DUP2 MSTORE PUSH1 0x20 ADD SWAP1 DUP2 MSTORE PUSH1 0x20 ADD PUSH0 KECCAK256 SLOAD SWAP1 POP DUP1 DUP5 GT PUSH2 0xC2D JUMPI PUSH0 PUSH1 0x4 PUSH0 DUP5 DUP2 MSTORE PUSH1 0x20 ADD SWAP1 DUP2 MSTORE PUSH1 0x20 ADD PUSH0 KECCAK256 PUSH1 0x40 MLOAD DUP1 PUSH1 0x60 ADD PUSH1 0x40 MSTORE SWAP1 DUP2 PUSH0 DUP3 ADD SLOAD DUP2 MSTORE PUSH1 0x20 ADD PUSH1 0x1 DUP3 ADD DUP1 SLOAD PUSH2 0xAE9 SWAP1 PUSH2 0x1BBE JUMP JUMPDEST DUP1 PUSH1 0x1F ADD PUSH1 0x20 DUP1 SWAP2 DIV MUL PUSH1 0x20 ADD PUSH1 0x40 MLOAD SWAP1 DUP2 ADD PUSH1 0x40 MSTORE DUP1 SWAP3 SWAP2 SWAP1 DUP2 DUP2 MSTORE PUSH1 0x20 ADD DUP3 DUP1 SLOAD PUSH2 0xB15 SWAP1 PUSH2 0x1BBE JUMP JUMPDEST DUP1 ISZERO PUSH2 0xB60 JUMPI DUP1 PUSH1 0x1F LT PUSH2 0xB37 JUMPI PUSH2 0x100 DUP1 DUP4 SLOAD DIV MUL DUP4 MSTORE SWAP2 PUSH1 0x20 ADD SWAP2 PUSH2 0xB60 JUMP JUMPDEST DUP3 ADD SWAP2 SWAP1 PUSH0 MSTORE PUSH1 0x20 PUSH0 KECCAK256 SWAP1 JUMPDEST DUP2 SLOAD DUP2 MSTORE SWAP1 PUSH1 0x1 ADD SWAP1 PUSH1 0x20 ADD DUP1 DUP4 GT PUSH2 0xB43 JUMPI DUP3 SWAP1 SUB PUSH1 0x1F AND DUP3 ADD SWAP2 JUMPDEST POP POP POP POP POP DUP2 MSTORE PUSH1 0x20 ADD PUSH1 0x2 DUP3 ADD DUP1 SLOAD PUSH2 0xB79 SWAP1 PUSH2 0x1BBE JUMP JUMPDEST DUP1 PUSH1 0x1F ADD PUSH1 0x20 DUP1 SWAP2 DIV MUL PUSH1 0x20 ADD PUSH1 0x40 MLOAD SWAP1 DUP2 ADD PUSH1 0x40 MSTORE DUP1 SWAP3 SWAP2 SWAP1 DUP2 DUP2 MSTORE PUSH1 0x20 ADD DUP3 DUP1 SLOAD PUSH2 0xBA5 SWAP1 PUSH2 0x1BBE JUMP JUMPDEST DUP1 ISZERO PUSH2 0xBF0 JUMPI DUP1 PUSH1 0x1F LT PUSH2 0xBC7 JUMPI PUSH2 0x100 DUP1 DUP4 SLOAD DIV MUL DUP4 MSTORE SWAP2 PUSH1 0x20 ADD SWAP2 PUSH2 0xBF0 JUMP JUMPDEST DUP3 ADD SWAP2 SWAP1 PUSH0 MSTORE PUSH1 0x20 PUSH0 KECCAK256 SWAP1 JUMPDEST DUP2 SLOAD DUP2 MSTORE SWAP1 PUSH1 0x1 ADD SWAP1 PUSH1 0x20 ADD DUP1 DUP4 GT PUSH2 0xBD3 JUMPI DUP3 SWAP1 SUB PUSH1 0x1F AND DUP3 ADD SWAP2 JUMPDEST POP POP POP POP POP DUP2 MSTORE POP POP SWAP1 POP DUP1 PUSH1 0x40 ADD MLOAD DUP5 PUSH1 0x1 DUP6 PUSH2 0xC0E SWAP2 SWAP1 PUSH2 0x1A8F JUMP JUMPDEST PUSH1 0x15 DUP2 LT PUSH2 0xC1F JUMPI PUSH2 0xC1E PUSH2 0x1BEE JUMP JUMPDEST JUMPDEST PUSH1 0x20 MUL ADD DUP2 SWAP1 MSTORE POP POP PUSH2 0xC64 JUMP JUMPDEST PUSH1 0x40 MLOAD DUP1 PUSH1 0x20 ADD PUSH1 0x40 MSTORE DUP1 PUSH0 DUP2 MSTORE POP DUP4 PUSH1 0x1 DUP5 PUSH2 0xC4A SWAP2 SWAP1 PUSH2 0x1A8F JUMP JUMPDEST PUSH1 0x15 DUP2 LT PUSH2 0xC5B JUMPI PUSH2 0xC5A PUSH2 0x1BEE JUMP JUMPDEST JUMPDEST PUSH1 0x20 MUL ADD DUP2 SWAP1 MSTORE POP JUMPDEST POP DUP1 DUP1 PUSH1 0x1 ADD SWAP2 POP POP PUSH2 0xA8E JUMP JUMPDEST POP DUP1 SWAP3 POP POP POP SWAP1 JUMP JUMPDEST PUSH0 DUP1 PUSH0 SWAP1 POP JUMPDEST DUP3 MLOAD DUP2 LT ISZERO PUSH2 0xCEE JUMPI DUP4 PUSH20 0xFFFFFFFFFFFFFFFFFFFFFFFFFFFFFFFFFFFFFFFF AND DUP4 DUP3 DUP2 MLOAD DUP2 LT PUSH2 0xCB4 JUMPI PUSH2 0xCB3 PUSH2 0x1BEE JUMP JUMPDEST JUMPDEST PUSH1 0x20 MUL PUSH1 0x20 ADD ADD MLOAD PUSH20 0xFFFFFFFFFFFFFFFFFFFFFFFFFFFFFFFFFFFFFFFF AND SUB PUSH2 0xCE1 JUMPI PUSH1 0x1 SWAP2 POP POP PUSH2 0xCF3 JUMP JUMPDEST DUP1 DUP1 PUSH1 0x1 ADD SWAP2 POP POP PUSH2 0xC81 JUMP JUMPDEST POP PUSH0 SWAP1 POP JUMPDEST SWAP3 SWAP2 POP POP JUMP JUMPDEST PUSH0 PUSH1 0x1 DUP5 LT ISZERO DUP1 ISZERO PUSH2 0xD0B JUMPI POP PUSH1 0x8 DUP5 LT JUMPDEST ISZERO PUSH2 0xD19 JUMPI PUSH1 0x3 SWAP1 POP PUSH2 0xD3E JUMP JUMPDEST PUSH1 0x8 DUP5 LT ISZERO DUP1 ISZERO PUSH2 0xD2A JUMPI POP PUSH1 0xF DUP5 LT JUMPDEST ISZERO PUSH2 0xD38 JUMPI PUSH1 0x2 SWAP1 POP PUSH2 0xD3D JUMP JUMPDEST PUSH1 0x1 SWAP1 POP JUMPDEST JUMPDEST PUSH0 PUSH3 0x15180 TIMESTAMP PUSH2 0xD4E SWAP2 SWAP1 PUSH2 0x1872 JUMP JUMPDEST SWAP1 POP PUSH0 DUP1 PUSH0 PUSH5 0x2540BE400 PUSH1 0x3 PUSH0 SLOAD DUP7 PUSH2 0xBB8 PUSH2 0xD6B SWAP2 SWAP1 PUSH2 0x1A5C JUMP JUMPDEST PUSH2 0xD75 SWAP2 SWAP1 PUSH2 0x1A8F JUMP JUMPDEST PUSH2 0xD7F SWAP2 SWAP1 PUSH2 0x1872 JUMP JUMPDEST DUP7 PUSH2 0xD8A SWAP2 SWAP1 PUSH2 0x1AC2 JUMP JUMPDEST PUSH2 0xD94 SWAP2 SWAP1 PUSH2 0x1AC2 JUMP JUMPDEST SWAP1 POP PUSH0 PUSH1 0x1 SWAP1 POP JUMPDEST PUSH1 0x16 DUP2 LT ISZERO PUSH2 0xDDA JUMPI DUP5 PUSH1 0x5 PUSH0 DUP4 DUP2 MSTORE PUSH1 0x20 ADD SWAP1 DUP2 MSTORE PUSH1 0x20 ADD PUSH0 KECCAK256 SLOAD LT PUSH2 0xDCD JUMPI PUSH1 0x1 DUP5 PUSH2 0xDCA SWAP2 SWAP1 PUSH2 0x1A5C JUMP JUMPDEST SWAP4 POP JUMPDEST DUP1 DUP1 PUSH1 0x1 ADD SWAP2 POP POP PUSH2 0xD9C JUMP JUMPDEST POP PUSH1 0xF DUP4 GT ISZERO PUSH2 0xDEC JUMPI DUP1 SWAP2 POP PUSH2 0xE5A JUMP JUMPDEST PUSH1 0x7 DUP4 GT DUP1 ISZERO PUSH2 0xDFD JUMPI POP PUSH1 0xF DUP4 GT ISZERO JUMPDEST ISZERO PUSH2 0xE0C JUMPI PUSH1 0x1 SLOAD SWAP2 POP PUSH2 0xE59 JUMP JUMPDEST PUSH1 0x2 SLOAD PUSH1 0xA PUSH2 0xE1B SWAP2 SWAP1 PUSH2 0x1AC2 JUMP JUMPDEST PUSH1 0x9 PUSH1 0x1 SLOAD PUSH2 0xE2A SWAP2 SWAP1 PUSH2 0x1AC2 JUMP JUMPDEST GT ISZERO PUSH2 0xE52 JUMPI PUSH1 0xA PUSH1 0x9 PUSH1 0x1 SLOAD PUSH2 0xE41 SWAP2 SWAP1 PUSH2 0x1AC2 JUMP JUMPDEST PUSH2 0xE4B SWAP2 SWAP1 PUSH2 0x1872 JUMP JUMPDEST SWAP2 POP PUSH2 0xE58 JUMP JUMPDEST PUSH1 0x2 SLOAD SWAP2 POP JUMPDEST JUMPDEST JUMPDEST PUSH0 DUP9 GT PUSH2 0xE9C JUMPI PUSH1 0x40 MLOAD PUSH32 0x8C379A000000000000000000000000000000000000000000000000000000000 DUP2 MSTORE PUSH1 0x4 ADD PUSH2 0xE93 SWAP1 PUSH2 0x1C65 JUMP JUMPDEST PUSH1 0x40 MLOAD DUP1 SWAP2 SUB SWAP1 REVERT JUMPDEST PUSH1 0x15 DUP9 GT ISZERO PUSH2 0xEE0 JUMPI PUSH1 0x40 MLOAD PUSH32 0x8C379A000000000000000000000000000000000000000000000000000000000 DUP2 MSTORE PUSH1 0x4 ADD PUSH2 0xED7 SWAP1 PUSH2 0x1CCD JUMP JUMPDEST PUSH1 0x40 MLOAD DUP1 SWAP2 SUB SWAP1 REVERT JUMPDEST DUP2 CALLVALUE LT ISZERO PUSH2 0xF23 JUMPI PUSH1 0x40 MLOAD PUSH32 0x8C379A000000000000000000000000000000000000000000000000000000000 DUP2 MSTORE PUSH1 0x4 ADD PUSH2 0xF1A SWAP1 PUSH2 0x1D35 JUMP JUMPDEST PUSH1 0x40 MLOAD DUP1 SWAP2 SUB SWAP1 REVERT JUMPDEST PUSH0 PUSH1 0x5 PUSH0 DUP11 DUP2 MSTORE PUSH1 0x20 ADD SWAP1 DUP2 MSTORE PUSH1 0x20 ADD PUSH0 KECCAK256 SLOAD SWAP1 POP PUSH0 DUP2 EQ PUSH2 0x10FD JUMPI PUSH0 PUSH1 0x3 PUSH0 DUP12 DUP2 MSTORE PUSH1 0x20 ADD SWAP1 DUP2 MSTORE PUSH1 0x20 ADD PUSH0 KECCAK256 PUSH0 SWAP1 SLOAD SWAP1 PUSH2 0x100 EXP SWAP1 DIV PUSH20 0xFFFFFFFFFFFFFFFFFFFFFFFFFFFFFFFFFFFFFFFF AND SWAP1 POP CALLER PUSH20 0xFFFFFFFFFFFFFFFFFFFFFFFFFFFFFFFFFFFFFFFF AND DUP2 PUSH20 0xFFFFFFFFFFFFFFFFFFFFFFFFFFFFFFFFFFFFFFFF AND SUB PUSH2 0xFE1 JUMPI PUSH1 0x40 MLOAD PUSH32 0x8C379A000000000000000000000000000000000000000000000000000000000 DUP2 MSTORE PUSH1 0x4 ADD PUSH2 0xFD8 SWAP1 PUSH2 0x1D9D JUMP JUMPDEST PUSH1 0x40 MLOAD DUP1 SWAP2 SUB SWAP1 REVERT JUMPDEST DUP6 DUP3 LT PUSH2 0x1023 JUMPI PUSH1 0x40 MLOAD PUSH32 0x8C379A000000000000000000000000000000000000000000000000000000000 DUP2 MSTORE PUSH1 0x4 ADD PUSH2 0x101A SWAP1 PUSH2 0x1E05 JUMP JUMPDEST PUSH1 0x40 MLOAD DUP1 SWAP2 SUB SWAP1 REVERT JUMPDEST PUSH1 0x1E DUP7 PUSH2 0x1030 SWAP2 SWAP1 PUSH2 0x1A5C JUMP JUMPDEST PUSH1 0x5 PUSH0 DUP13 DUP2 MSTORE PUSH1 0x20 ADD SWAP1 DUP2 MSTORE PUSH1 0x20 ADD PUSH0 KECCAK256 DUP2 SWAP1 SSTORE POP PUSH1 0x40 MLOAD DUP1 PUSH1 0x60 ADD PUSH1 0x40 MSTORE DUP1 DUP9 DUP2 MSTORE PUSH1 0x20 ADD DUP11 DUP2 MSTORE PUSH1 0x20 ADD DUP10 DUP2 MSTORE POP PUSH1 0x4 PUSH0 DUP13 DUP2 MSTORE PUSH1 0x20 ADD SWAP1 DUP2 MSTORE PUSH1 0x20 ADD PUSH0 KECCAK256 PUSH0 DUP3 ADD MLOAD DUP2 PUSH0 ADD SSTORE PUSH1 0x20 DUP3 ADD MLOAD DUP2 PUSH1 0x1 ADD SWAP1 DUP2 PUSH2 0x108E SWAP2 SWAP1 PUSH2 0x1FCA JUMP JUMPDEST POP PUSH1 0x40 DUP3 ADD MLOAD DUP2 PUSH1 0x2 ADD SWAP1 DUP2 PUSH2 0x10A4 SWAP2 SWAP1 PUSH2 0x1FCA JUMP JUMPDEST POP SWAP1 POP POP CALLER PUSH1 0x3 PUSH0 DUP13 DUP2 MSTORE PUSH1 0x20 ADD SWAP1 DUP2 MSTORE PUSH1 0x20 ADD PUSH0 KECCAK256 PUSH0 PUSH2 0x100 EXP DUP2 SLOAD DUP2 PUSH20 0xFFFFFFFFFFFFFFFFFFFFFFFFFFFFFFFFFFFFFFFF MUL NOT AND SWAP1 DUP4 PUSH20 0xFFFFFFFFFFFFFFFFFFFFFFFFFFFFFFFFFFFFFFFF AND MUL OR SWAP1 SSTORE POP POP PUSH2 0x11D2 JUMP JUMPDEST PUSH1 0x1E DUP6 PUSH2 0x110A SWAP2 SWAP1 PUSH2 0x1A5C JUMP JUMPDEST PUSH1 0x5 PUSH0 DUP12 DUP2 MSTORE PUSH1 0x20 ADD SWAP1 DUP2 MSTORE PUSH1 0x20 ADD PUSH0 KECCAK256 DUP2 SWAP1 SSTORE POP PUSH1 0x40 MLOAD DUP1 PUSH1 0x60 ADD PUSH1 0x40 MSTORE DUP1 DUP8 DUP2 MSTORE PUSH1 0x20 ADD DUP10 DUP2 MSTORE PUSH1 0x20 ADD DUP9 DUP2 MSTORE POP PUSH1 0x4 PUSH0 DUP12 DUP2 MSTORE PUSH1 0x20 ADD SWAP1 DUP2 MSTORE PUSH1 0x20 ADD PUSH0 KECCAK256 PUSH0 DUP3 ADD MLOAD DUP2 PUSH0 ADD SSTORE PUSH1 0x20 DUP3 ADD MLOAD DUP2 PUSH1 0x1 ADD SWAP1 DUP2 PUSH2 0x1168 SWAP2 SWAP1 PUSH2 0x1FCA JUMP JUMPDEST POP PUSH1 0x40 DUP3 ADD MLOAD DUP2 PUSH1 0x2 ADD SWAP1 DUP2 PUSH2 0x117E SWAP2 SWAP1 PUSH2 0x1FCA JUMP JUMPDEST POP SWAP1 POP POP CALLER PUSH1 0x3 PUSH0 DUP12 DUP2 MSTORE PUSH1 0x20 ADD SWAP1 DUP2 MSTORE PUSH1 0x20 ADD PUSH0 KECCAK256 PUSH0 PUSH2 0x100 EXP DUP2 SLOAD DUP2 PUSH20 0xFFFFFFFFFFFFFFFFFFFFFFFFFFFFFFFFFFFFFFFF MUL NOT AND SWAP1 DUP4 PUSH20 0xFFFFFFFFFFFFFFFFFFFFFFFFFFFFFFFFFFFFFFFF AND MUL OR SWAP1 SSTORE POP JUMPDEST DUP3 PUSH1 0x1 DUP2 SWAP1 SSTORE POP POP POP POP POP POP POP POP POP POP JUMP JUMPDEST PUSH1 0x40 MLOAD DUP1 PUSH2 0x2A0 ADD PUSH1 0x40 MSTORE DUP1 PUSH1 0x15 SWAP1 JUMPDEST PUSH1 0x60 DUP2 MSTORE PUSH1 0x20 ADD SWAP1 PUSH1 0x1 SWAP1 SUB SWAP1 DUP2 PUSH2 0x11F4 JUMPI SWAP1 POP POP SWAP1 JUMP JUMPDEST PUSH0 PUSH1 0x40 MLOAD SWAP1 POP SWAP1 JUMP JUMPDEST PUSH0 DUP1 REVERT JUMPDEST PUSH0 DUP1 REVERT JUMPDEST PUSH0 PUSH20 0xFFFFFFFFFFFFFFFFFFFFFFFFFFFFFFFFFFFFFFFF DUP3 AND SWAP1 POP SWAP2 SWAP1 POP JUMP JUMPDEST PUSH0 PUSH2 0x1246 DUP3 PUSH2 0x121D JUMP JUMPDEST SWAP1 POP SWAP2 SWAP1 POP JUMP JUMPDEST PUSH2 0x1256 DUP2 PUSH2 0x123C JUMP JUMPDEST DUP2 EQ PUSH2 0x1260 JUMPI PUSH0 DUP1 REVERT JUMPDEST POP JUMP JUMPDEST PUSH0 DUP2 CALLDATALOAD SWAP1 POP PUSH2 0x1271 DUP2 PUSH2 0x124D JUMP JUMPDEST SWAP3 SWAP2 POP POP JUMP JUMPDEST PUSH0 PUSH1 0x20 DUP3 DUP5 SUB SLT ISZERO PUSH2 0x128C JUMPI PUSH2 0x128B PUSH2 0x1215 JUMP JUMPDEST JUMPDEST PUSH0 PUSH2 0x1299 DUP5 DUP3 DUP6 ADD PUSH2 0x1263 JUMP JUMPDEST SWAP2 POP POP SWAP3 SWAP2 POP POP JUMP JUMPDEST PUSH0 DUP2 SWAP1 POP SWAP2 SWAP1 POP JUMP JUMPDEST PUSH2 0x12B4 DUP2 PUSH2 0x12A2 JUMP JUMPDEST DUP3 MSTORE POP POP JUMP JUMPDEST PUSH0 PUSH1 0x20 DUP3 ADD SWAP1 POP PUSH2 0x12CD PUSH0 DUP4 ADD DUP5 PUSH2 0x12AB JUMP JUMPDEST SWAP3 SWAP2 POP POP JUMP JUMPDEST PUSH0 DUP2 MLOAD SWAP1 POP SWAP2 SWAP1 POP JUMP JUMPDEST PUSH0 DUP3 DUP3 MSTORE PUSH1 0x20 DUP3 ADD SWAP1 POP SWAP3 SWAP2 POP POP JUMP JUMPDEST PUSH0 DUP2 SWAP1 POP PUSH1 0x20 DUP3 ADD SWAP1 POP SWAP2 SWAP1 POP JUMP JUMPDEST PUSH2 0x1305 DUP2 PUSH2 0x123C JUMP JUMPDEST DUP3 MSTORE POP POP JUMP JUMPDEST PUSH0 PUSH2 0x1316 DUP4 DUP4 PUSH2 0x12FC JUMP JUMPDEST PUSH1 0x20 DUP4 ADD SWAP1 POP SWAP3 SWAP2 POP POP JUMP JUMPDEST PUSH0 PUSH1 0x20 DUP3 ADD SWAP1 POP SWAP2 SWAP1 POP JUMP JUMPDEST PUSH0 PUSH2 0x1338 DUP3 PUSH2 0x12D3 JUMP JUMPDEST PUSH2 0x1342 DUP2 DUP6 PUSH2 0x12DD JUMP JUMPDEST SWAP4 POP PUSH2 0x134D DUP4 PUSH2 0x12ED JUMP JUMPDEST DUP1 PUSH0 JUMPDEST DUP4 DUP2 LT ISZERO PUSH2 0x137D JUMPI DUP2 MLOAD PUSH2 0x1364 DUP9 DUP3 PUSH2 0x130B JUMP JUMPDEST SWAP8 POP PUSH2 0x136F DUP4 PUSH2 0x1322 JUMP JUMPDEST SWAP3 POP POP PUSH1 0x1 DUP2 ADD SWAP1 POP PUSH2 0x1350 JUMP JUMPDEST POP DUP6 SWAP4 POP POP POP POP SWAP3 SWAP2 POP POP JUMP JUMPDEST PUSH0 PUSH1 0x20 DUP3 ADD SWAP1 POP DUP2 DUP2 SUB PUSH0 DUP4 ADD MSTORE PUSH2 0x13A2 DUP2 DUP5 PUSH2 0x132E JUMP JUMPDEST SWAP1 POP SWAP3 SWAP2 POP POP JUMP JUMPDEST PUSH0 PUSH1 0x15 SWAP1 POP SWAP2 SWAP1 POP JUMP JUMPDEST PUSH0 DUP2 SWAP1 POP SWAP3 SWAP2 POP POP JUMP JUMPDEST PUSH0 DUP2 SWAP1 POP SWAP2 SWAP1 POP JUMP JUMPDEST PUSH0 DUP2 MLOAD SWAP1 POP SWAP2 SWAP1 POP JUMP JUMPDEST PUSH0 DUP3 DUP3 MSTORE PUSH1 0x20 DUP3 ADD SWAP1 POP SWAP3 SWAP2 POP POP JUMP JUMPDEST DUP3 DUP2 DUP4 MCOPY PUSH0 DUP4 DUP4 ADD MSTORE POP POP POP JUMP JUMPDEST PUSH0 PUSH1 0x1F NOT PUSH1 0x1F DUP4 ADD AND SWAP1 POP SWAP2 SWAP1 POP JUMP JUMPDEST PUSH0 PUSH2 0x1409 DUP3 PUSH2 0x13C7 JUMP JUMPDEST PUSH2 0x1413 DUP2 DUP6 PUSH2 0x13D1 JUMP JUMPDEST SWAP4 POP PUSH2 0x1423 DUP2 DUP6 PUSH1 0x20 DUP7 ADD PUSH2 0x13E1 JUMP JUMPDEST PUSH2 0x142C DUP2 PUSH2 0x13EF JUMP JUMPDEST DUP5 ADD SWAP2 POP POP SWAP3 SWAP2 POP POP JUMP JUMPDEST PUSH0 PUSH2 0x1442 DUP4 DUP4 PUSH2 0x13FF JUMP JUMPDEST SWAP1 POP SWAP3 SWAP2 POP POP JUMP JUMPDEST PUSH0 PUSH1 0x20 DUP3 ADD SWAP1 POP SWAP2 SWAP1 POP JUMP JUMPDEST PUSH0 PUSH2 0x1460 DUP3 PUSH2 0x13AA JUMP JUMPDEST PUSH2 0x146A DUP2 DUP6 PUSH2 0x13B4 JUMP JUMPDEST SWAP4 POP DUP4 PUSH1 0x20 DUP3 MUL DUP6 ADD PUSH2 0x147C DUP6 PUSH2 0x13BE JUMP JUMPDEST DUP1 PUSH0 JUMPDEST DUP6 DUP2 LT ISZERO PUSH2 0x14B7 JUMPI DUP5 DUP5 SUB DUP10 MSTORE DUP2 MLOAD PUSH2 0x1498 DUP6 DUP3 PUSH2 0x1437 JUMP JUMPDEST SWAP5 POP PUSH2 0x14A3 DUP4 PUSH2 0x144A JUMP JUMPDEST SWAP3 POP PUSH1 0x20 DUP11 ADD SWAP10 POP POP PUSH1 0x1 DUP2 ADD SWAP1 POP PUSH2 0x147F JUMP JUMPDEST POP DUP3 SWAP8 POP DUP8 SWAP6 POP POP POP POP POP POP SWAP3 SWAP2 POP POP JUMP JUMPDEST PUSH0 PUSH1 0x20 DUP3 ADD SWAP1 POP DUP2 DUP2 SUB PUSH0 DUP4 ADD MSTORE PUSH2 0x14E1 DUP2 DUP5 PUSH2 0x1456 JUMP JUMPDEST SWAP1 POP SWAP3 SWAP2 POP POP JUMP JUMPDEST PUSH0 DUP1 REVERT JUMPDEST PUSH32 0x4E487B7100000000000000000000000000000000000000000000000000000000 PUSH0 MSTORE PUSH1 0x41 PUSH1 0x4 MSTORE PUSH1 0x24 PUSH0 REVERT JUMPDEST PUSH2 0x1523 DUP3 PUSH2 0x13EF JUMP JUMPDEST DUP2 ADD DUP2 DUP2 LT PUSH8 0xFFFFFFFFFFFFFFFF DUP3 GT OR ISZERO PUSH2 0x1542 JUMPI PUSH2 0x1541 PUSH2 0x14ED JUMP JUMPDEST JUMPDEST DUP1 PUSH1 0x40 MSTORE POP POP POP JUMP JUMPDEST PUSH0 PUSH2 0x1554 PUSH2 0x120C JUMP JUMPDEST SWAP1 POP PUSH2 0x1560 DUP3 DUP3 PUSH2 0x151A JUMP JUMPDEST SWAP2 SWAP1 POP JUMP JUMPDEST PUSH0 PUSH8 0xFFFFFFFFFFFFFFFF DUP3 GT ISZERO PUSH2 0x157F JUMPI PUSH2 0x157E PUSH2 0x14ED JUMP JUMPDEST JUMPDEST PUSH1 0x20 DUP3 MUL SWAP1 POP PUSH1 0x20 DUP2 ADD SWAP1 POP SWAP2 SWAP1 POP JUMP JUMPDEST PUSH0 DUP1 REVERT JUMPDEST PUSH0 PUSH2 0x15A6 PUSH2 0x15A1 DUP5 PUSH2 0x1565 JUMP JUMPDEST PUSH2 0x154B JUMP JUMPDEST SWAP1 POP DUP1 DUP4 DUP3 MSTORE PUSH1 0x20 DUP3 ADD SWAP1 POP PUSH1 0x20 DUP5 MUL DUP4 ADD DUP6 DUP2 GT ISZERO PUSH2 0x15C9 JUMPI PUSH2 0x15C8 PUSH2 0x1590 JUMP JUMPDEST JUMPDEST DUP4 JUMPDEST DUP2 DUP2 LT ISZERO PUSH2 0x15F2 JUMPI DUP1 PUSH2 0x15DE DUP9 DUP3 PUSH2 0x1263 JUMP JUMPDEST DUP5 MSTORE PUSH1 0x20 DUP5 ADD SWAP4 POP POP PUSH1 0x20 DUP2 ADD SWAP1 POP PUSH2 0x15CB JUMP JUMPDEST POP POP POP SWAP4 SWAP3 POP POP POP JUMP JUMPDEST PUSH0 DUP3 PUSH1 0x1F DUP4 ADD SLT PUSH2 0x1610 JUMPI PUSH2 0x160F PUSH2 0x14E9 JUMP JUMPDEST JUMPDEST DUP2 CALLDATALOAD PUSH2 0x1620 DUP5 DUP3 PUSH1 0x20 DUP7 ADD PUSH2 0x1594 JUMP JUMPDEST SWAP2 POP POP SWAP3 SWAP2 POP POP JUMP JUMPDEST PUSH0 DUP1 PUSH1 0x40 DUP4 DUP6 SUB SLT ISZERO PUSH2 0x163F JUMPI PUSH2 0x163E PUSH2 0x1215 JUMP JUMPDEST JUMPDEST PUSH0 PUSH2 0x164C DUP6 DUP3 DUP7 ADD PUSH2 0x1263 JUMP JUMPDEST SWAP3 POP POP PUSH1 0x20 DUP4 ADD CALLDATALOAD PUSH8 0xFFFFFFFFFFFFFFFF DUP2 GT ISZERO PUSH2 0x166D JUMPI PUSH2 0x166C PUSH2 0x1219 JUMP JUMPDEST JUMPDEST PUSH2 0x1679 DUP6 DUP3 DUP7 ADD PUSH2 0x15FC JUMP JUMPDEST SWAP2 POP POP SWAP3 POP SWAP3 SWAP1 POP JUMP JUMPDEST PUSH0 DUP2 ISZERO ISZERO SWAP1 POP SWAP2 SWAP1 POP JUMP JUMPDEST PUSH2 0x1697 DUP2 PUSH2 0x1683 JUMP JUMPDEST DUP3 MSTORE POP POP JUMP JUMPDEST PUSH0 PUSH1 0x20 DUP3 ADD SWAP1 POP PUSH2 0x16B0 PUSH0 DUP4 ADD DUP5 PUSH2 0x168E JUMP JUMPDEST SWAP3 SWAP2 POP POP JUMP JUMPDEST PUSH2 0x16BF DUP2 PUSH2 0x12A2 JUMP JUMPDEST DUP2 EQ PUSH2 0x16C9 JUMPI PUSH0 DUP1 REVERT JUMPDEST POP JUMP JUMPDEST PUSH0 DUP2 CALLDATALOAD SWAP1 POP PUSH2 0x16DA DUP2 PUSH2 0x16B6 JUMP JUMPDEST SWAP3 SWAP2 POP POP JUMP JUMPDEST PUSH0 DUP1 REVERT JUMPDEST PUSH0 PUSH8 0xFFFFFFFFFFFFFFFF DUP3 GT ISZERO PUSH2 0x16FE JUMPI PUSH2 0x16FD PUSH2 0x14ED JUMP JUMPDEST JUMPDEST PUSH2 0x1707 DUP3 PUSH2 0x13EF JUMP JUMPDEST SWAP1 POP PUSH1 0x20 DUP2 ADD SWAP1 POP SWAP2 SWAP1 POP JUMP JUMPDEST DUP3 DUP2 DUP4 CALLDATACOPY PUSH0 DUP4 DUP4 ADD MSTORE POP POP POP JUMP JUMPDEST PUSH0 PUSH2 0x1734 PUSH2 0x172F DUP5 PUSH2 0x16E4 JUMP JUMPDEST PUSH2 0x154B JUMP JUMPDEST SWAP1 POP DUP3 DUP2 MSTORE PUSH1 0x20 DUP2 ADD DUP5 DUP5 DUP5 ADD GT ISZERO PUSH2 0x1750 JUMPI PUSH2 0x174F PUSH2 0x16E0 JUMP JUMPDEST JUMPDEST PUSH2 0x175B DUP5 DUP3 DUP6 PUSH2 0x1714 JUMP JUMPDEST POP SWAP4 SWAP3 POP POP POP JUMP JUMPDEST PUSH0 DUP3 PUSH1 0x1F DUP4 ADD SLT PUSH2 0x1777 JUMPI PUSH2 0x1776 PUSH2 0x14E9 JUMP JUMPDEST JUMPDEST DUP2 CALLDATALOAD PUSH2 0x1787 DUP5 DUP3 PUSH1 0x20 DUP7 ADD PUSH2 0x1722 JUMP JUMPDEST SWAP2 POP POP SWAP3 SWAP2 POP POP JUMP JUMPDEST PUSH0 DUP1 PUSH0 PUSH1 0x60 DUP5 DUP7 SUB SLT ISZERO PUSH2 0x17A7 JUMPI PUSH2 0x17A6 PUSH2 0x1215 JUMP JUMPDEST JUMPDEST PUSH0 PUSH2 0x17B4 DUP7 DUP3 DUP8 ADD PUSH2 0x16CC JUMP JUMPDEST SWAP4 POP POP PUSH1 0x20 DUP5 ADD CALLDATALOAD PUSH8 0xFFFFFFFFFFFFFFFF DUP2 GT ISZERO PUSH2 0x17D5 JUMPI PUSH2 0x17D4 PUSH2 0x1219 JUMP JUMPDEST JUMPDEST PUSH2 0x17E1 DUP7 DUP3 DUP8 ADD PUSH2 0x1763 JUMP JUMPDEST SWAP3 POP POP PUSH1 0x40 DUP5 ADD CALLDATALOAD PUSH8 0xFFFFFFFFFFFFFFFF DUP2 GT ISZERO PUSH2 0x1802 JUMPI PUSH2 0x1801 PUSH2 0x1219 JUMP JUMPDEST JUMPDEST PUSH2 0x180E DUP7 DUP3 DUP8 ADD PUSH2 0x1763 JUMP JUMPDEST SWAP2 POP POP SWAP3 POP SWAP3 POP SWAP3 JUMP JUMPDEST PUSH32 0x4E487B7100000000000000000000000000000000000000000000000000000000 PUSH0 MSTORE PUSH1 0x12 PUSH1 0x4 MSTORE PUSH1 0x24 PUSH0 REVERT JUMPDEST PUSH32 0x4E487B7100000000000000000000000000000000000000000000000000000000 PUSH0 MSTORE PUSH1 0x11 PUSH1 0x4 MSTORE PUSH1 0x24 PUSH0 REVERT JUMPDEST PUSH0 PUSH2 0x187C DUP3 PUSH2 0x12A2 JUMP JUMPDEST SWAP2 POP PUSH2 0x1887 DUP4 PUSH2 0x12A2 JUMP JUMPDEST SWAP3 POP DUP3 PUSH2 0x1897 JUMPI PUSH2 0x1896 PUSH2 0x1818 JUMP JUMPDEST JUMPDEST DUP3 DUP3 DIV SWAP1 POP SWAP3 SWAP2 POP POP JUMP JUMPDEST PUSH0 DUP3 DUP3 MSTORE PUSH1 0x20 DUP3 ADD SWAP1 POP SWAP3 SWAP2 POP POP JUMP JUMPDEST PUSH32 0x6F6E6C79206F776E6572206F662061207469657220332B20736C6F742063616E PUSH0 DUP3 ADD MSTORE PUSH32 0x2070696E67000000000000000000000000000000000000000000000000000000 PUSH1 0x20 DUP3 ADD MSTORE POP JUMP JUMPDEST PUSH0 PUSH2 0x190C PUSH1 0x25 DUP4 PUSH2 0x18A2 JUMP JUMPDEST SWAP2 POP PUSH2 0x1917 DUP3 PUSH2 0x18B2 JUMP JUMPDEST PUSH1 0x40 DUP3 ADD SWAP1 POP SWAP2 SWAP1 POP JUMP JUMPDEST PUSH0 PUSH1 0x20 DUP3 ADD SWAP1 POP DUP2 DUP2 SUB PUSH0 DUP4 ADD MSTORE PUSH2 0x1939 DUP2 PUSH2 0x1900 JUMP JUMPDEST SWAP1 POP SWAP2 SWAP1 POP JUMP JUMPDEST PUSH32 0x6F6E6C79206F776E6572206F662061207469657220322B20736C6F742063616E PUSH0 DUP3 ADD MSTORE PUSH32 0x2062652070696E67656400000000000000000000000000000000000000000000 PUSH1 0x20 DUP3 ADD MSTORE POP JUMP JUMPDEST PUSH0 PUSH2 0x199A PUSH1 0x2A DUP4 PUSH2 0x18A2 JUMP JUMPDEST SWAP2 POP PUSH2 0x19A5 DUP3 PUSH2 0x1940 JUMP JUMPDEST PUSH1 0x40 DUP3 ADD SWAP1 POP SWAP2 SWAP1 POP JUMP JUMPDEST PUSH0 PUSH1 0x20 DUP3 ADD SWAP1 POP DUP2 DUP2 SUB PUSH0 DUP4 ADD MSTORE PUSH2 0x19C7 DUP2 PUSH2 0x198E JUMP JUMPDEST SWAP1 POP SWAP2 SWAP1 POP JUMP JUMPDEST PUSH32 0x796F75206861766520616C72656164792070696E676564207468697320616464 PUSH0 DUP3 ADD MSTORE PUSH32 0x7265737300000000000000000000000000000000000000000000000000000000 PUSH1 0x20 DUP3 ADD MSTORE POP JUMP JUMPDEST PUSH0 PUSH2 0x1A28 PUSH1 0x24 DUP4 PUSH2 0x18A2 JUMP JUMPDEST SWAP2 POP PUSH2 0x1A33 DUP3 PUSH2 0x19CE JUMP JUMPDEST PUSH1 0x40 DUP3 ADD SWAP1 POP SWAP2 SWAP1 POP JUMP JUMPDEST PUSH0 PUSH1 0x20 DUP3 ADD SWAP1 POP DUP2 DUP2 SUB PUSH0 DUP4 ADD MSTORE PUSH2 0x1A55 DUP2 PUSH2 0x1A1C JUMP JUMPDEST SWAP1 POP SWAP2 SWAP1 POP JUMP JUMPDEST PUSH0 PUSH2 0x1A66 DUP3 PUSH2 0x12A2 JUMP JUMPDEST SWAP2 POP PUSH2 0x1A71 DUP4 PUSH2 0x12A2 JUMP JUMPDEST SWAP3 POP DUP3 DUP3 ADD SWAP1 POP DUP1 DUP3 GT ISZERO PUSH2 0x1A89 JUMPI PUSH2 0x1A88 PUSH2 0x1845 JUMP JUMPDEST JUMPDEST SWAP3 SWAP2 POP POP JUMP JUMPDEST PUSH0 PUSH2 0x1A99 DUP3 PUSH2 0x12A2 JUMP JUMPDEST SWAP2 POP PUSH2 0x1AA4 DUP4 PUSH2 0x12A2 JUMP JUMPDEST SWAP3 POP DUP3 DUP3 SUB SWAP1 POP DUP2 DUP2 GT ISZERO PUSH2 0x1ABC JUMPI PUSH2 0x1ABB PUSH2 0x1845 JUMP JUMPDEST JUMPDEST SWAP3 SWAP2 POP POP JUMP JUMPDEST PUSH0 PUSH2 0x1ACC DUP3 PUSH2 0x12A2 JUMP JUMPDEST SWAP2 POP PUSH2 0x1AD7 DUP4 PUSH2 0x12A2 JUMP JUMPDEST SWAP3 POP DUP3 DUP3 MUL PUSH2 0x1AE5 DUP2 PUSH2 0x12A2 JUMP JUMPDEST SWAP2 POP DUP3 DUP3 DIV DUP5 EQ DUP4 ISZERO OR PUSH2 0x1AFC JUMPI PUSH2 0x1AFB PUSH2 0x1845 JUMP JUMPDEST JUMPDEST POP SWAP3 SWAP2 POP POP JUMP JUMPDEST PUSH32 0x796F75206E6F206C6F6E67657220686176652061207469657220322B20737562 PUSH0 DUP3 ADD MSTORE PUSH32 0x736372697074696F6E0000000000000000000000000000000000000000000000 PUSH1 0x20 DUP3 ADD MSTORE POP JUMP JUMPDEST PUSH0 PUSH2 0x1B5D PUSH1 0x29 DUP4 PUSH2 0x18A2 JUMP JUMPDEST SWAP2 POP PUSH2 0x1B68 DUP3 PUSH2 0x1B03 JUMP JUMPDEST PUSH1 0x40 DUP3 ADD SWAP1 POP SWAP2 SWAP1 POP JUMP JUMPDEST PUSH0 PUSH1 0x20 DUP3 ADD SWAP1 POP DUP2 DUP2 SUB PUSH0 DUP4 ADD MSTORE PUSH2 0x1B8A DUP2 PUSH2 0x1B51 JUMP JUMPDEST SWAP1 POP SWAP2 SWAP1 POP JUMP JUMPDEST PUSH32 0x4E487B7100000000000000000000000000000000000000000000000000000000 PUSH0 MSTORE PUSH1 0x22 PUSH1 0x4 MSTORE PUSH1 0x24 PUSH0 REVERT JUMPDEST PUSH0 PUSH1 0x2 DUP3 DIV SWAP1 POP PUSH1 0x1 DUP3 AND DUP1 PUSH2 0x1BD5 JUMPI PUSH1 0x7F DUP3 AND SWAP2 POP JUMPDEST PUSH1 0x20 DUP3 LT DUP2 SUB PUSH2 0x1BE8 JUMPI PUSH2 0x1BE7 PUSH2 0x1B91 JUMP JUMPDEST JUMPDEST POP SWAP2 SWAP1 POP JUMP JUMPDEST PUSH32 0x4E487B7100000000000000000000000000000000000000000000000000000000 PUSH0 MSTORE PUSH1 0x32 PUSH1 0x4 MSTORE PUSH1 0x24 PUSH0 REVERT JUMPDEST PUSH32 0x74686520736C6F74732073746172742066726F6D203100000000000000000000 PUSH0 DUP3 ADD MSTORE POP JUMP JUMPDEST PUSH0 PUSH2 0x1C4F PUSH1 0x16 DUP4 PUSH2 0x18A2 JUMP JUMPDEST SWAP2 POP PUSH2 0x1C5A DUP3 PUSH2 0x1C1B JUMP JUMPDEST PUSH1 0x20 DUP3 ADD SWAP1 POP SWAP2 SWAP1 POP JUMP JUMPDEST PUSH0 PUSH1 0x20 DUP3 ADD SWAP1 POP DUP2 DUP2 SUB PUSH0 DUP4 ADD MSTORE PUSH2 0x1C7C DUP2 PUSH2 0x1C43 JUMP JUMPDEST SWAP1 POP SWAP2 SWAP1 POP JUMP JUMPDEST PUSH32 0x77616C6C58612068617320323120736C6F7473206F6E6C790000000000000000 PUSH0 DUP3 ADD MSTORE POP JUMP JUMPDEST PUSH0 PUSH2 0x1CB7 PUSH1 0x18 DUP4 PUSH2 0x18A2 JUMP JUMPDEST SWAP2 POP PUSH2 0x1CC2 DUP3 PUSH2 0x1C83 JUMP JUMPDEST PUSH1 0x20 DUP3 ADD SWAP1 POP SWAP2 SWAP1 POP JUMP JUMPDEST PUSH0 PUSH1 0x20 DUP3 ADD SWAP1 POP DUP2 DUP2 SUB PUSH0 DUP4 ADD MSTORE PUSH2 0x1CE4 DUP2 PUSH2 0x1CAB JUMP JUMPDEST SWAP1 POP SWAP2 SWAP1 POP JUMP JUMPDEST PUSH32 0x6E6F7420656E6F75676820677765692061747461636865640000000000000000 PUSH0 DUP3 ADD MSTORE POP JUMP JUMPDEST PUSH0 PUSH2 0x1D1F PUSH1 0x18 DUP4 PUSH2 0x18A2 JUMP JUMPDEST SWAP2 POP PUSH2 0x1D2A DUP3 PUSH2 0x1CEB JUMP JUMPDEST PUSH1 0x20 DUP3 ADD SWAP1 POP SWAP2 SWAP1 POP JUMP JUMPDEST PUSH0 PUSH1 0x20 DUP3 ADD SWAP1 POP DUP2 DUP2 SUB PUSH0 DUP4 ADD MSTORE PUSH2 0x1D4C DUP2 PUSH2 0x1D13 JUMP JUMPDEST SWAP1 POP SWAP2 SWAP1 POP JUMP JUMPDEST PUSH32 0x796F7520616C7265616479206F776E207468697320736C6F7400000000000000 PUSH0 DUP3 ADD MSTORE POP JUMP JUMPDEST PUSH0 PUSH2 0x1D87 PUSH1 0x19 DUP4 PUSH2 0x18A2 JUMP JUMPDEST SWAP2 POP PUSH2 0x1D92 DUP3 PUSH2 0x1D53 JUMP JUMPDEST PUSH1 0x20 DUP3 ADD SWAP1 POP SWAP2 SWAP1 POP JUMP JUMPDEST PUSH0 PUSH1 0x20 DUP3 ADD SWAP1 POP DUP2 DUP2 SUB PUSH0 DUP4 ADD MSTORE PUSH2 0x1DB4 DUP2 PUSH2 0x1D7B JUMP JUMPDEST SWAP1 POP SWAP2 SWAP1 POP JUMP JUMPDEST PUSH32 0x7468697320736C6F74206973207374696C6C20626F6F6B656421000000000000 PUSH0 DUP3 ADD MSTORE POP JUMP JUMPDEST PUSH0 PUSH2 0x1DEF PUSH1 0x1A DUP4 PUSH2 0x18A2 JUMP JUMPDEST SWAP2 POP PUSH2 0x1DFA DUP3 PUSH2 0x1DBB JUMP JUMPDEST PUSH1 0x20 DUP3 ADD SWAP1 POP SWAP2 SWAP1 POP JUMP JUMPDEST PUSH0 PUSH1 0x20 DUP3 ADD SWAP1 POP DUP2 DUP2 SUB PUSH0 DUP4 ADD MSTORE PUSH2 0x1E1C DUP2 PUSH2 0x1DE3 JUMP JUMPDEST SWAP1 POP SWAP2 SWAP1 POP JUMP JUMPDEST PUSH0 DUP2 MLOAD SWAP1 POP SWAP2 SWAP1 POP JUMP JUMPDEST PUSH0 DUP2 SWAP1 POP DUP2 PUSH0 MSTORE PUSH1 0x20 PUSH0 KECCAK256 SWAP1 POP SWAP2 SWAP1 POP JUMP JUMPDEST PUSH0 PUSH1 0x20 PUSH1 0x1F DUP4 ADD DIV SWAP1 POP SWAP2 SWAP1 POP JUMP JUMPDEST PUSH0 DUP3 DUP3 SHL SWAP1 POP SWAP3 SWAP2 POP POP JUMP JUMPDEST PUSH0 PUSH1 0x8 DUP4 MUL PUSH2 0x1E89 PUSH32 0xFFFFFFFFFFFFFFFFFFFFFFFFFFFFFFFFFFFFFFFFFFFFFFFFFFFFFFFFFFFFFFFF DUP3 PUSH2 0x1E4E JUMP JUMPDEST PUSH2 0x1E93 DUP7 DUP4 PUSH2 0x1E4E JUMP JUMPDEST SWAP6 POP DUP1 NOT DUP5 AND SWAP4 POP DUP1 DUP7 AND DUP5 OR SWAP3 POP POP POP SWAP4 SWAP3 POP POP POP JUMP JUMPDEST PUSH0 DUP2 SWAP1 POP SWAP2 SWAP1 POP JUMP JUMPDEST PUSH0 PUSH2 0x1ECE PUSH2 0x1EC9 PUSH2 0x1EC4 DUP5 PUSH2 0x12A2 JUMP JUMPDEST PUSH2 0x1EAB JUMP JUMPDEST PUSH2 0x12A2 JUMP JUMPDEST SWAP1 POP SWAP2 SWAP1 POP JUMP JUMPDEST PUSH0 DUP2 SWAP1 POP SWAP2 SWAP1 POP JUMP JUMPDEST PUSH2 0x1EE7 DUP4 PUSH2 0x1EB4 JUMP JUMPDEST PUSH2 0x1EFB PUSH2 0x1EF3 DUP3 PUSH2 0x1ED5 JUMP JUMPDEST DUP5 DUP5 SLOAD PUSH2 0x1E5A JUMP JUMPDEST DUP3 SSTORE POP POP POP POP JUMP JUMPDEST PUSH0 SWAP1 JUMP JUMPDEST PUSH2 0x1F0F PUSH2 0x1F03 JUMP JUMPDEST PUSH2 0x1F1A DUP2 DUP5 DUP5 PUSH2 0x1EDE JUMP JUMPDEST POP POP POP JUMP JUMPDEST JUMPDEST DUP2 DUP2 LT ISZERO PUSH2 0x1F3D JUMPI PUSH2 0x1F32 PUSH0 DUP3 PUSH2 0x1F07 JUMP JUMPDEST PUSH1 0x1 DUP2 ADD SWAP1 POP PUSH2 0x1F20 JUMP JUMPDEST POP POP JUMP JUMPDEST PUSH1 0x1F DUP3 GT ISZERO PUSH2 0x1F82 JUMPI PUSH2 0x1F53 DUP2 PUSH2 0x1E2D JUMP JUMPDEST PUSH2 0x1F5C DUP5 PUSH2 0x1E3F JUMP JUMPDEST DUP2 ADD PUSH1 0x20 DUP6 LT ISZERO PUSH2 0x1F6B JUMPI DUP2 SWAP1 POP JUMPDEST PUSH2 0x1F7F PUSH2 0x1F77 DUP6 PUSH2 0x1E3F JUMP JUMPDEST DUP4 ADD DUP3 PUSH2 0x1F1F JUMP JUMPDEST POP POP JUMPDEST POP POP POP JUMP JUMPDEST PUSH0 DUP3 DUP3 SHR SWAP1 POP SWAP3 SWAP2 POP POP JUMP JUMPDEST PUSH0 PUSH2 0x1FA2 PUSH0 NOT DUP5 PUSH1 0x8 MUL PUSH2 0x1F87 JUMP JUMPDEST NOT DUP1 DUP4 AND SWAP2 POP POP SWAP3 SWAP2 POP POP JUMP JUMPDEST PUSH0 PUSH2 0x1FBA DUP4 DUP4 PUSH2 0x1F93 JUMP JUMPDEST SWAP2 POP DUP3 PUSH1 0x2 MUL DUP3 OR SWAP1 POP SWAP3 SWAP2 POP POP JUMP JUMPDEST PUSH2 0x1FD3 DUP3 PUSH2 0x1E23 JUMP JUMPDEST PUSH8 0xFFFFFFFFFFFFFFFF DUP2 GT ISZERO PUSH2 0x1FEC JUMPI PUSH2 0x1FEB PUSH2 0x14ED JUMP JUMPDEST JUMPDEST PUSH2 0x1FF6 DUP3 SLOAD PUSH2 0x1BBE JUMP JUMPDEST PUSH2 0x2001 DUP3 DUP3 DUP6 PUSH2 0x1F41 JUMP JUMPDEST PUSH0 PUSH1 0x20 SWAP1 POP PUSH1 0x1F DUP4 GT PUSH1 0x1 DUP2 EQ PUSH2 0x2032 JUMPI PUSH0 DUP5 ISZERO PUSH2 0x2020 JUMPI DUP3 DUP8 ADD MLOAD SWAP1 POP JUMPDEST PUSH2 0x202A DUP6 DUP3 PUSH2 0x1FAF JUMP JUMPDEST DUP7 SSTORE POP PUSH2 0x2091 JUMP JUMPDEST PUSH1 0x1F NOT DUP5 AND PUSH2 0x2040 DUP7 PUSH2 0x1E2D JUMP JUMPDEST PUSH0 JUMPDEST DUP3 DUP2 LT ISZERO PUSH2 0x2067 JUMPI DUP5 DUP10 ADD MLOAD DUP3 SSTORE PUSH1 0x1 DUP3 ADD SWAP2 POP PUSH1 0x20 DUP6 ADD SWAP5 POP PUSH1 0x20 DUP2 ADD SWAP1 POP PUSH2 0x2042 JUMP JUMPDEST DUP7 DUP4 LT ISZERO PUSH2 0x2084 JUMPI DUP5 DUP10 ADD MLOAD PUSH2 0x2080 PUSH1 0x1F DUP10 AND DUP3 PUSH2 0x1F93 JUMP JUMPDEST DUP4 SSTORE POP JUMPDEST PUSH1 0x1 PUSH1 0x2 DUP9 MUL ADD DUP9 SSTORE POP POP POP JUMPDEST POP POP POP POP POP POP JUMP INVALID LOG2 PUSH5 0x6970667358 0x22 SLT KECCAK256 0xAA 0xE9 LOG2 RETURNDATACOPY PUSH3 0xA86902 CALLCODE 0xA6 POP BALANCE 0x2A 0x22 0x4E DIV SLOAD 0xE8 0xAA 0x28 BASEFEE 0x4E DUP13 0xD3 0xC6 0xBF 0x22 POP 0xC6 0xD5 0xE0 0x2D PUSH5 0x736F6C6343 STOP ADDMOD BYTE STOP CALLER "
		},
		"gasEstimates": {
			"creation": {
				"codeDepositCost": "1679800",
				"executionCost": "infinite",
				"totalCost": "infinite"
			},
			"external": {
				"exists(address,address[])": "infinite",
				"fetch_pings()": "infinite",
				"ping(address)": "infinite",
				"rent(uint256,string,string)": "infinite",
				"retrieve_active_pics()": "infinite",
				"retrieve_active_urls()": "infinite",
				"retrieve_base_price()": "infinite"
			}
		},
		"methodIdentifiers": {
			"exists(address,address[])": "b2f897f7",
			"fetch_pings()": "62467967",
			"ping(address)": "14df9e43",
			"rent(uint256,string,string)": "ceb212e5",
			"retrieve_active_pics()": "a668b28f",
			"retrieve_active_urls()": "7e01395b",
			"retrieve_base_price()": "598c4648"
		}
	},
	"abi": [
		{
			"inputs": [
				{
					"internalType": "address",
					"name": "add",
					"type": "address"
				},
				{
					"internalType": "address[]",
					"name": "addresses",
					"type": "address[]"
				}
			],
			"name": "exists",
			"outputs": [
				{
					"internalType": "bool",
					"name": "",
					"type": "bool"
				}
			],
			"stateMutability": "pure",
			"type": "function"
		},
		{
			"inputs": [],
			"name": "fetch_pings",
			"outputs": [
				{
					"internalType": "address[]",
					"name": "",
					"type": "address[]"
				}
			],
			"stateMutability": "view",
			"type": "function"
		},
		{
			"inputs": [
				{
					"internalType": "address",
					"name": "recipient",
					"type": "address"
				}
			],
			"name": "ping",
			"outputs": [],
			"stateMutability": "nonpayable",
			"type": "function"
		},
		{
			"inputs": [
				{
					"internalType": "uint256",
					"name": "num",
					"type": "uint256"
				},
				{
					"internalType": "string",
					"name": "link",
					"type": "string"
				},
				{
					"internalType": "string",
					"name": "pc",
					"type": "string"
				}
			],
			"name": "rent",
			"outputs": [],
			"stateMutability": "payable",
			"type": "function"
		},
		{
			"inputs": [],
			"name": "retrieve_active_pics",
			"outputs": [
				{
					"internalType": "string[21]",
					"name": "",
					"type": "string[21]"
				}
			],
			"stateMutability": "view",
			"type": "function"
		},
		{
			"inputs": [],
			"name": "retrieve_active_urls",
			"outputs": [
				{
					"internalType": "string[21]",
					"name": "",
					"type": "string[21]"
				}
			],
			"stateMutability": "view",
			"type": "function"
		},
		{
			"inputs": [],
			"name": "retrieve_base_price",
			"outputs": [
				{
					"internalType": "uint256",
					"name": "",
					"type": "uint256"
				}
			],
			"stateMutability": "view",
			"type": "function"
		}
	]
}